:100000000C94FD000C9425010C9425010C94250101
:100010000C9425010C9425010C943F0C0C942501A3
:100020000C9425010C94930E0C9425010C9425013D
:100030000C9425010C9425010C9425010C942501A8
:100040000C94C70A0C9425010C943E100C941810C3
:100050000C9425010C941F070C9425010C94250188
:100060000C94110B0C942501201220122012201246
:100070000D1220120712071220121D122012071251
:1000800020121412547C43313600487C25006572DE
:100090007200427C63560000000000240027002A02
:1000A0000000000000250028002B000404040404C4
:1000B0000404040202020202020303030303030115
:1000C00002040810204080010204081020010204EC
:1000D00008102000000008000201000003040700CF
:1000E000000000000000005428544D5031313229E6
:1000F0003A20005248253A2000543A2000563A202F
:100100000062007231005874616C002031383A335B
:10011000363A333900626F6172642056302E3220D5
:100120005245563820000D0A4F70656E5452563AAB
:10013000200052582031737420627974653A20008F
:10014000525845443A20005428544D5031313229F8
:100150003A20005248253A2000543A200005000673
:100160000007010800097F0A060B150C120D000E8E
:10017000000F0010001220130014031500160119BF
:10018000011A141C061D441E0A1F032045210122CA
:10019000D723DC2407256E271E2A282C402D0A2E63
:1001A0002D308832003302340A352A362D37D438C0
:1001B0000039003A003B003C003D003E003F00405B
:1001C000004100420043FF44FF45FF46FF4F1060DF
:1001D000A0622469606D0B6E0E6FBF700C7123728C
:1001E0002E730074007573766A774079007A007C0C
:1001F000377D047E37FFFF00AB1311241FBECFEF06
:10020000D8E0DEBFCDBF11E0A0E0B1E0E0EFF8E262
:1002100002C005900D92A03FB107D9F724E0A0EFEE
:10022000B1E001C01D92AA38B207E1F710E0CDEFAE
:10023000D0E004C02197FE010E945C14CC3FD1079E
:10024000C9F70E9496110C9476140C94000082E970
:1002500090E00895FC0186819781089580E00895DB
:1002600080E090E0089581E0089580E0089581E0C5
:100270000895FC01938181E0911101C080E008950F
:10028000FC019381992351F02FB7F894838189134E
:1002900003C08150838301C083812FBF8281089571
:1002A0008CE30895FC01828108958EE890E0089522
:1002B000FC0182818823C1F04FB7F894208530E09B
:1002C000A381B481A20FB31F8C912F5F3F4F280FE2
:1002D000311D878190E08217930708F420E0208782
:1002E0008281815082834FBF0895FC012FB7F8941B
:1002F00081859085981760F0891305C0928181E00F
:10030000911107C005C0981B81E03581391708F4A9
:1003100080E02FBF0895FC0116162CF083818823FE
:1003200011F080E0089562838AE0838381E008957C
:10033000DC01ED91FC9104A4F5A5E02D099581E087
:100340000895CF92DF92EF92FF920F931F93CF9376
:10035000DF931F92CDB7DEB76C018B01FFB6F89427
:10036000DC01ED91FC9104A0F5A1E02D49830995F4
:10037000E82ED601ED91FC9106A4F7A5E02DC6016B
:100380000995D601ED91FC9100A0F1A1E02DC601E7
:1003900009958FE78EBD49810DB407FEFDCF8EB55F
:1003A000F80150E0CF01801B910B841795073CF4B6
:1003B0001EBC0DB407FEFDCF8EB58193F3CFD601E1
:1003C000ED91FC9102A0F3A1E02DC6010995D601A3
:1003D000ED91FC9100A4F1A5E02D43E068E0C60199
:1003E0000995D601ED91FC9100A4F1A5E02D40E026
:1003F00068E0C6010995D601ED91FC9100A4F1A534
:10040000E02D40E065E0C6010995D601ED91FC9133
:1004100000A4F1A5E02D40E066E0C6010995D601F3
:10042000ED91FC9104A8F5A9E02DC6010995EE20F7
:1004300041F0D601ED91FC9106A0F7A1E02DC60197
:100440000995FFBE0F90DF91CF911F910F91FF9003
:10045000EF90DF90CF900895EF92FF920F931F934C
:10046000CF93DF93EC01E881F98104A0F5A1E02DA1
:100470000995F82E1FB7F894E881F98100A4F1A539
:10048000E02D40E065E0CE010995E881F98100A406
:10049000F1A5E02D40E066E0CE010995E881F98103
:1004A00004A8F5A9E02DCE010995E881F98100A8FD
:1004B000F1A9E02DCE0109951FBF9AEF9A9501F0A1
:1004C000E9F709EE13E08AEFE82E0150110981F0F7
:1004D0009E2D9A9501F0E9F7E881F98102A4F3A530
:1004E000E02D63E0CE01099582FFEFCF11E001C05E
:1004F00010E0FF2039F0E881F98106A0F7A1E02D96
:10050000CE010995812FDF91CF911F910F91FF901F
:10051000EF900895EF92FF920F931F93CF93DF9385
:10052000EC018B01FFB6F894E881F98104A0F5A1F4
:10053000E02D0995E82EF8016491319644916F3FC2
:1005400051F0E881F98100A4F1A5E02DCE010995D3
:100550000E5F1F4FF0CFEE2039F0E881F98106A041
:10056000F7A1E02DCE010995FFBEDF91CF911F913C
:100570000F91FF90EF9008951F93CF93DF93EC01BD
:10058000E881F98104A0F5A1E02D0995182FE881F3
:10059000F98102A4F3A5E02D60E0CE010995883031
:1005A00071F4E881F98102A4F3A5E02D61E0CE01A8
:1005B0000995863021F4112381F011E003C0112345
:1005C00051F010E0E881F98106A0F7A1E02DCE01FD
:1005D0000995111102C080E00FC0EC81FD8160819E
:1005E0007181CE010E948A02E881F98104A4F5A5F7
:1005F000E02DCE01099581E0DF91CF911F91089503
:100600001F93CF93DF93EC018A858617B9F0262FCD
:1006100030E08B81082E000C990B2817390774F4F1
:10062000162FEC81FD8183E0689FE00DF11D112400
:1006300060817181CE010E948A021A87DF91CF9179
:100640001F9108950F931F93CF93DF93EC01E881DF
:10065000F98104A4F5A5E02D09958FB7F8944DB75D
:100660005EB720910001309101014217530730F429
:100670002DB73EB730930101209300018FBF8D85C8
:10068000882309F481C06A816F3F09F47DC0CE01DF
:100690000E9400031FB7F894E881F98104A0F5A136
:1006A000E02DCE010995082FE881F98100A4F1A57C
:1006B000E02D43E068E0CE010995E881F98100A4CE
:1006C000F1A5E02D40E068E0CE0109954C85E88178
:1006D000F98100A4F1A5E02D6EE7CE010995E8812E
:1006E000F98102A4F3A5E02D60E3CE010995E8812C
:1006F000F98100A4F1A5E02D87FF1FC042E065E06D
:10070000CE010995E881F98100A4F1A5E02D40E032
:1007100066E0CE010995E881F98102A4F3A5E02DF8
:1007200063E3CE01099583FF15C04C85E881F9810B
:1007300000A4F1A5E02D6EE30BC040E165E0CE0121
:100740000995E881F98100A4F1A5E02D40E066E07B
:10075000CE010995E881F98104A8F5A9E02DCE0123
:100760000995E881F98102A8F3A9E02DCE01099548
:10077000011102C01FBF08C0E881F98106A0F7A1DE
:10078000E02DCE010995F6CFDF91CF911F910F910A
:1007900008952A9A08952A9808958EBD0DB407FEEB
:1007A000FDCF0895CF93DF9300D0CDB7DEB76A8336
:1007B00089830E94CB03898180680E94CD036A816E
:1007C000862F0E94CD030F900F90DF91CF910C9454
:1007D000C9038EBD0DB407FEFDCF8EB508950E94EE
:1007E000CB0383E00E94E90380E00E94E90380E0FC
:1007F0000E94E9030C94C903CF93DF931F92CDB7F6
:10080000DEB789830E94CB0389818F770E94E90339
:1008100080E00E94E90389830E94C90389810F90C7
:10082000DF91CF91089580E0089580E0089581E000
:10083000089580E0089581E0089581E0089581E0C1
:10084000089580E090E0089581E0089581E00895A2
:1008500080E0089580E0089583E0FB01808380E4D8
:10086000FA01808308950C94EF0365E087E00C940F
:10087000D20369E087E00C94D20360E087E00C9437
:10088000D203862F642F0C94D2030C94C9030C94CA
:10089000CB0383E0FB01808380E4FA018083F901CC
:1008A00080830895862F0C94FC030E960C945801B7
:1008B000FC0180890895FC019FB7F8948385138615
:1008C0009FBF0895FC018281882349F0208530E094
:1008D0002F5F3F4F83819481820F931F089580E0A3
:1008E00090E008950E960C946204FC016623A9F032
:1008F000218530E0A381B481A20FB31F6C932F5FD9
:100900003F4F260F311D878190E08217930708F42F
:1009100020E0218782818F5F82830895FC01918589
:100920008085891750F0981304C0828181110EC010
:1009300004C0891B9581981748F4218530E02F5F0A
:100940003F4F83819481820F931F089580E090E050
:10095000089580E0089580E008950895EF920F9340
:10096000DC01ED91FC910688F789E02DE12C0995D9
:100970000F91EF90089580E0089581E0089580E060
:100980000895DC01ED91FC910480F581E02D60E09B
:1009900070E00994089581E008958AE890E0089550
:1009A00081E0653608F080E00895FC0182810895B9
:1009B00084E890E00895FC018281938108958CE39E
:1009C000089584E0089581E06115784F09F080E092
:1009D0000895FC0182810895CF93CFB7F894809158
:1009E000640082FD03C0CFBF80E00FC02A9A61E09F
:1009F0008AE00E94660A809164008B7F8093640085
:100A000080E58CBD81E08DBDCFBFCF9108950C9462
:100A1000EC04AF92BF92DF92EF92FF920F931F937D
:100A2000CF93DF9300D0CDB7DEB75C01D62E142F65
:100A3000DC01ED91FC9104A4F5A5E02D29837A83D6
:100A400009952981622FC5010E940003FFB6F89421
:100A5000D501ED91FC9104A0F5A1E02DC50109950A
:100A6000E82ED501ED91FC9100A4F1A5E02D41E027
:100A700068E0C5010995D501ED91FC9100A4F1A5AF
:100A8000E02D40E068E0C5010995D501ED91FC91AC
:100A900000A0F1A1E02DC50109958FEF8EBD7A81EF
:100AA0000DB407FEFDCFED2DF72F912F915030F0B3
:100AB00081918EBD0DB407FEFDCFF8CFD501ED912C
:100AC000FC9102A0F3A1E02DC5010995EE2041F0B3
:100AD000D501ED91FC9106A0F7A1E02DC501099586
:100AE000FFBED501ED91FC9104A0F5A1E02DC5015B
:100AF0000995F82ED501ED91FC9102A4F3A5E02D06
:100B000060E3C501099583FF0AC0D501ED91FC9111
:100B100000A4F1A5E02D412F6EE3C5010995FF204A
:100B200041F0D501ED91FC9106A0F7A1E02DC501A2
:100B30000995C5010E942C02182F043048F080E06E
:100B40000E94790CC5010E942C02811101C010E0A5
:100B5000D501ED91FC910280F381E02DC50109954D
:100B6000812F0F900F90DF91CF911F910F91FF90E8
:100B7000EF90DF90BF90AF900895ECEBF0E08081B4
:100B80008B7F8083E4E6F0E0808180688083089535
:100B90008091640087FF35C0809164008F778093D7
:100BA00064008091BC0084608093BC00109252026B
:100BB0001092510210929B021092BC021092990264
:100BC00081E0809398021092730261E082E10E94BA
:100BD0001A0A61E083E10E941A0A8091B9008E7FAF
:100BE0008093B9008091B9008D7F8093B9008DEF1B
:100BF0008093B80085E48093BC001092B80081E037
:100C0000089580E008958091640081FD28C08DEBF7
:100C100092E00E94EA0F8DEB92E00E94EA0FE091D1
:100C2000CF02F091D00280818F7E8083E091CF024D
:100C3000F091D0028081877F8083E091CF02F09194
:100C4000D00280818F778083E091CF02F091D00233
:100C500080818F7D80838091D7028093D60262E06D
:100C600080E00E94660A62E081E00E94660A80914C
:100C7000640082608093640008958091C00085FDC7
:100C800007C066B58091B2004AE20E94DA0EF5CF45
:100C90008DEB92E00E94EA0F8091640081FD08953F
:100CA0008091C00085FD06C08091C0008064809363
:100CB000C000F6CF8091C00086FFFCCF0895409120
:100CC000B20066B59091F1019F5F9093F101892781
:100CD0000C94DA0E0F931F93CF93DF938C018091C6
:100CE000640080FF0CC0809164008E7F809364005C
:100CF00080917A00806880937A0051E001C050E0D2
:100D000080B7806880BF8EE480937C0083B7817F4A
:100D1000826083BF10927B0080917A008062809312
:100D20007A0080917A00886080937A0080917A00BE
:100D3000806480937A0024E09FEF6FEF2150B1F040
:100D40001092F3018091F301811108C083B7816093
:100D500083BF889583B78E7F83BFF4CF30917800AF
:100D60004091790049131DC036131BC080917A0051
:100D7000877F80937A0080917A008F7D80937A00BC
:100D8000C0917800909179005523B9F080917A0054
:100D90008F7780937A0080916400816080936400F3
:100DA0000CC08091F201942F93279A5F8695890F4A
:100DB0008093F201942F632FC1CFD0E0D92BF8019B
:100DC00084819581C817D90721F061E08C2F0E949A
:100DD0005F06F801848195818C179D0738F08C1B84
:100DE0009D0B079718F48681978124C080EC9FEFB4
:100DF000BE010E94261487E3869F9001879F300DD5
:100E0000112485E0369527958A95E1F7F801D58379
:100E1000C4833783268381E0233D310508F080E0D9
:100E2000F801838381E0263F310508F080E0F80176
:100E30008283C901DF91CF911F910F9108951F9275
:100E40000F920FB60F9211248F9381E08093F301DC
:100E50008F910F900FBE0F901F901895CF93CFB723
:100E6000F8942A9A8CB58F7B8CBDE4E6F0E0808103
:100E70008460808361E08AE00E94660A61E08DE020
:100E80000E94660A61E08BE00E94660A62E08CE0E4
:100E90000E94660ACFBFCF910895CF930E94EC04C1
:100EA000C82F60E887E00E94D20360E087E00E94DC
:100EB000D203CC2319F0CF910C942E07CF91089533
:100EC0000C944D07CF93DF93CFB7F8940E94EC04B6
:100ED000D82F60E087E00E94D20363E088E00E94A0
:100EE000D20360E088E00E94D2030E94CB0385E831
:100EF0000E94CD0380E00E94CD0380E00E94CD03DC
:100F00000E94C9030E94EF03D11104C0CFBFDF913B
:100F1000CF9108950E942E07F9CF0C942E07CF92FF
:100F2000DF92EF92FF920F931F93CF93DF9300D046
:100F3000CDB7DEB7DC0112962C912F3F09F4A8C083
:100F40008C010E94EC04D82E0E94CB0383E00E9407
:100F5000E90380E00E94E903E82EF12CFE2CEE2448
:100F600080E00E94E903E82A0E94C903D1100E9490
:100F70002E070E94EC04C82E80E30E94FC03D82EAA
:100F8000C1100E942E07D7FE3EC0F1FE81C00E9414
:100F9000EC04F82E83E30E94FC0383FF02C08EE37F
:100FA00001C08BE40E94FC038A83F1100E942E078B
:100FB0008A81813408F054C06801BEE0CB0ED11C98
:100FC000C6010E948E047C01009709F449C040E4E8
:100FD000BC01C8010E94A101D8011896ED91FC91B5
:100FE0001997309709F44DC0BE016E5F7F4FC7015E
:100FF0000995811146C0D80117968C9117978F5F7C
:1010000017968C933AC0F7FE05C082E0D8011B9674
:101010008C9333C0F4FE3CC06801BEE0CB0ED11C03
:10102000C6010E948E047C010097D1F040E4BC010F
:10103000C8010E94A10180E48983D8011896ED912E
:10104000FC9119973097F9F0BE016F5F7F4FC70190
:101050000995811118C0F80187818F5F87830DC0C2
:1010600041E0BE016F5F7F4FC8010E94A101F801FE
:1010700086818F5F868384E08387C8010E94220374
:1010800007C06A8101C06981C6010E947504F5CF5D
:101090000F900F90DF91CF911F910F91FF90EF90E4
:1010A000DF90CF900895199904C00E948F0781E0C6
:1010B000089580E00895CF93199905C0CFB7F894AB
:1010C0000E948F07CFBFCF910895EC010E94F60DCB
:1010D0000E94B40D182FE091BD02F091BE02019064
:1010E000F081E02D61E28DEB92E009950E943D06D2
:1010F00011110E940306CE010E94780E8DE693E046
:101100000E94C1040E94F50E61E084E00E94660A1C
:101110005C9880E00E94790C5C9A83E00E94790CD4
:10112000F7CF85ED8093BC008091BC0084FDFCCF9F
:1011300010929902089540912202262F30E0240F48
:10114000311D21323105DCF4209199022430C9F49B
:10115000FC0180E090E0861758F430912202219142
:10116000DC01A050BE4FA30FB11D2C930196F3CF0D
:1011700080912202680F6093220280E0089581E04E
:10118000089582E008950895E091520280915102FD
:10119000E81730F4F0E0ED5AFD4F808190E00895BB
:1011A0008FEF9FEF0895909152028091510298170E
:1011B00050F4E92FF0E0ED5AFD4F208130E09F5FC1
:1011C0009093520202C02FEF3FEFC9010895809122
:1011D000510290E020915202821B91090895CF9212
:1011E000DF92EF92FF920F931F93CF93DF937C01D7
:1011F000262F972F8A0180919A02882391F0C62F7B
:10120000D72F6E01C40ED51ECC15DD0571F0699186
:10121000D701ED91FC910190F081E02DC701099576
:10122000F3CF642F822F0E949B08C801DF91CF91DA
:101230001F910F91FF90EF90DF90CF900895CF9383
:10124000DF931F92CDB7DEB7698320919A022223E4
:10125000D1F02091BC02203240F021E030E0FC01CE
:101260003383228380E090E015C080919B02E82FB9
:10127000F0E0E456FD4F998190838F5F80939B024D
:101280008093BC0205C061E0CE0101960E949B08DC
:1012900081E090E00F90DF91CF910895FC01909153
:1012A000610028E030E080E80FB6F8948093610098
:1012B000209361000FBE3197F1F7892F8F7090E076
:1012C00020E80FB6F89420936100809361000FBE70
:1012D0000895CF9380E40E94411167EE8AE593E080
:1012E0000E941F090E94E41061E080E40E944B11FB
:1012F0008091510290E020915202821B91091816B0
:1013000019062CF02091B2002D3FC8F319C08AE5D0
:1013100093E00E94D308C82F80E40E94411167EE39
:101320008AE593E00E941F096C2F687363608AE569
:1013300093E00E941F090E94E41081E08093FE0167
:10134000CF910895CF92DF92EF92FF920F931F9368
:10135000CF93DF938C010E94C805C82E8091FE01B7
:10136000811102C00E94690980E40E94411165EE6A
:101370008AE593E00E941F0986E0E82EF12C81E0C7
:10138000E81AF10841F0DFB6F89486E090E00E9498
:101390004E09DFBEF4CF0E94E41063E080E40E94B7
:1013A0004B114091510250E080915202481B51096B
:1013B0004330510534F48091B2008D3FC8F38FEF74
:1013C00030C08AE593E00E94D308D82E8AE593E0E6
:1013D0000E94D3087C01C1100E94BD05DD2DF0E004
:1013E000CF2F97012C7F33272C2B3D2BADE7B0E07F
:1013F0000E946214CAEFC80FF80182818C1729F08D
:1014000060E08D2D8E250E945F06F801C283CC34EA
:1014100018F081E0838304C0C13410F4F801138212
:101420008C2FDF91CF911F910F91FF90EF90DF9064
:10143000CF90089590E0FC01ED52FF4F3491FC01F4
:10144000E154FF4F2491FC01E555FF4FE491EE2359
:1014500009F43BC0332339F1333091F038F43130A3
:10146000A9F0323001F584B58F7D12C0373091F08C
:101470003830A1F03430B9F4809180008F7D03C002
:10148000809180008F77809380000DC084B58F7726
:1014900084BD09C08091B0008F7703C08091B000F7
:1014A0008F7D8093B000F0E0EE0FFF1FEF55FF4FF0
:1014B000A591B4918FB7F894EC91611103C0209578
:1014C0002E2301C02E2B2C938FBF0895CF93DF9333
:1014D00090E0FC01E154FF4F2491FC01E555FF4FE2
:1014E0008491882361F190E0880F991FFC01E956EF
:1014F000FF4FC591D491FC01EF55FF4FA591B491D9
:10150000611109C09FB7F894888120958223888350
:10151000EC912E230BC0623061F49FB7F8943881B0
:10152000822F809583238883EC912E2B2C939FBF51
:1015300006C08FB7F894E8812E2B28838FBFDF91E8
:10154000CF9108953FB7F89480914C0290914D024D
:10155000A0914E02B0914F0226B5A89B05C02F3F27
:1015600019F00196A11DB11D3FBFBA2FA92F982FC9
:101570008827820F911DA11DB11DBC01CD0146E040
:10158000660F771F881F991F4A95D1F708951F92FC
:101590000F920FB60F9211242F933F938F939F9327
:1015A000AF93BF938091480290914902A0914A0263
:1015B000B0914B023091470220E3230F2D3720F4E6
:1015C0004096A11DB11D05C023EB230F4196A11D1F
:1015D000B11D209347028093480290934902A09343
:1015E0004A02B0934B0280914C0290914D02A0911F
:1015F0004E02B0914F020196A11DB11D80934C0285
:1016000090934D02A0934E02B0934F02BF91AF91C1
:101610009F918F913F912F910F900FBE0F901F9030
:1016200018951F920F920FB60F9211242F933F938C
:101630004F935F936F937F938F939F93AF93BF93DA
:10164000EF93FF938091B900887F803609F49CC0A6
:1016500068F5883209F45BC090F4803109F454C015
:1016600038F4882309F4F6C0883009F44DC0F6C078
:10167000883109F44CC0803209F45DC0EFC0803479
:1016800009F468C048F4803309F455C0883309F080
:10169000E5C080939702D8C0803509F44FC08835E3
:1016A00009F45DC0883409F0D9C0D6C0883909F47E
:1016B000C7C0A8F4883709F467C038F4883609F43D
:1016C00063C0803709F460C0C9C0883809F4B8C065
:1016D000803909F45FC0803809F0C0C05BC0803B2E
:1016E00009F486C038F4803A09F466C0883A09F4EF
:1016F0007FC0B4C0803C09F4A7C0883C09F4A4C0F2
:10170000883B09F48AC0AAC08091740210C09091ED
:10171000960280919502981770F5E091960281E00B
:101720008E0F80939602F0E0EB58FD4F80818093FE
:10173000BB0085EC86C0809397028EC0E091960234
:1017400081E08E0F809396028091BB00F0E0EB5811
:10175000FD4F808390919602809195026EC0E0913A
:10176000960281E08E0F809396028091BB00F0E09C
:10177000EB58FD4F80838091980281116DC081E00C
:101780008093730284EA61C083E08093990210928F
:101790004602CFCF80914602803208F051C0E091DE
:1017A000460281E08E0F809346028091BB00F0E0FC
:1017B000EA5DFD4F8083BDCF85EC8093BC00109225
:1017C000990280914602803230F4E0914602F0E0C6
:1017D000EA5DFD4F10826091460270E0E0912402C4
:1017E000F091250286E292E009951092460236C0F9
:1017F00084E0809399021092230210922202E091D9
:101800002002F0912102099580912202811105C0E8
:1018100081E08093220210920002E091230281E095
:101820008E0F80932302F0E0E050FE4F8081809382
:10183000BB009091230280912202981708F479CF7F
:1018400085E88093BC000AC085EC8093BC001092B0
:10185000990204C0109297020E949108FF91EF91A3
:10186000BF91AF919F918F917F916F915F914F91B8
:101870003F912F910F900FBE0F901F9018951F92C0
:101880000F920FB60F9211248F939F93CF93DF93F4
:101890001F92CDB7DEB70FB6F894A895809160007F
:1018A000886180936000109260000FBECE010196A7
:1018B00080688093FF010F90DF91CF919F918F916E
:1018C0000F900FBE0F901F90189583B7817F866091
:1018D00083BFF89483B7816083BF85B7806685BF77
:1018E0008F7D85BF7894889583B78E7F83BF7894EA
:1018F00008951092FF0183FD02C098E001C098E2B4
:101900008770892B98E10FB6F894A89590936000A2
:101910000FBE8093600080916000806480936000BF
:101920000E94650C8091FF018823D1F30FB6F894D3
:10193000A89580916000886180936000109260009B
:101940000FBE0895BF92CF92DF92EF92FF920F9356
:101950001F93CF93DF937C010E94C805B82E88E4C3
:101960000E94411161E08AE593E00E941F0961E352
:101970008AE593E00E941F090E94E41088E40E9417
:10198000411161E08AE593E00E941F0961EB8AE55D
:1019900093E00E941F090E94E410882319F080E060
:1019A00098EF6CC088E40E94411161E08AE593E001
:1019B0000E941F090E94E4108111F1CFC8E0D0E01D
:1019C000219761F061E088E40E944B11813039F782
:1019D0008AE593E00E94D30887FF0DC088E40E9447
:1019E000411160E08AE593E00E941F090E94E41023
:1019F000882329F0D4CF80E00E94790CE1CF62E007
:101A000088E40E944B11823051F60E94E41081114B
:101A1000C6CF8AE593E00E94D3088C018AE593E063
:101A20000E94D3086C01B1100E94BD05E601DD27BC
:101A300084E0D595C7958A95E1F79801332794E01E
:101A4000220F331F9A95E1F7C22BD32B07FD03C05A
:101A500080E090E002C080E090EFC82BD92BF70126
:101A600082819381C817D90729F061E0802F8C25E6
:101A70000E945F06F701D383C283CE01DF91CF912D
:101A80001F910F91FF90EF90DF90CF90BF9008953E
:101A9000EF92FF920F931F93CF93DF938C010E94DD
:101AA000C805F82E8091FE01811102C00E946909CB
:101AB00080E40E94411163EE8AE593E00E941F09D1
:101AC00081E00E94790C0E94E41063E080E40E94AF
:101AD0004B112091510230E080915202281B3109B4
:101AE000233031053CF48091B2008D3FC8F380E093
:101AF00098EF33C08AE593E00E94D308D82F20E006
:101B0000C22F8AE593E00E94D3088C7F9927C82BC7
:101B1000D92BF1100E94BD059E01A7EFB5E10E94EF
:101B20006214DC01CB0121E1B595A79597958795C6
:101B30002A95D1F77C01EEEEEE1AE2E0FE0AF801FA
:101B400082819381E816F90621F061E08C2F0E94D2
:101B50005F06F801F382E282C701DF91CF911F9106
:101B60000F91FF90EF9008958091640081FF3CC039
:101B7000809164008D7F80936400E091CD02F091AC
:101B8000CE0282E08083E091C902F091CA02108205
:101B9000E091CB02F091CC0289E180831092D502D2
:101BA000E091D102F091D20286E08083E091CF02F1
:101BB000F091D002808180618083E091CF02F0912A
:101BC000D002808188608083E091CF02F091D002C2
:101BD000808180688083E091CF02F091D002808183
:101BE0008F7D808381E0089580E00895CF930E94E7
:101BF000B40DC82F8DEE91E00E9470100E943D063A
:101C0000CC2319F0CF910C940306CF910895CF9275
:101C1000DF92EF92FF921F93CF93DF931F92CDB786
:101C2000DEB76C0169830E94B40D182F4981242FFF
:101C300030E02115310561F4E091BD02F091BE0262
:101C40000190F081E02D6C2D8DEB92E0099522C082
:101C50000D2C000CEE08FF082A303105B9F4F7FE10
:101C600014C0E091BD02F091BE020190F081E02D20
:101C70006DE28DEB92E0099566277727CB016C1911
:101C80007D098E099F094AE003C04AE0C701B601F9
:101C90000E94A3100E943D06112351F00F90DF9186
:101CA000CF911F91FF90EF90DF90CF900C9403069F
:101CB0000F90DF91CF911F91FF90EF90DF90CF9029
:101CC00008950F931F93CF938C010E94B40DC82FDA
:101CD000C8010E9482100E943D06CC2329F0CF91BA
:101CE0001F910F910C940306CF911F910F910895AE
:101CF0000F931F93CF938C010E94B40DC82FC8017E
:101D00000E9482108DEE91E00E9470100E943D06AC
:101D1000CC2329F0CF911F910F910C940306CF9102
:101D20001F910F9108951F920F920FB60F921124D9
:101D30002F938F939F938091FD018E5F8C33C8F01A
:101D40008091FB019091FC010196803A25E0920779
:101D500058F08091F9019091FA0101969093FA015F
:101D60008093F90180E090E09093FC018093FB0167
:101D700080E08093FD018091F801882399F08091A3
:101D8000F701882361F0F89498E288E10FB6F8949F
:101D9000A895809360000FBE90936000FFCF81E014
:101DA0008093F7019F918F912F910F900FBE0F900D
:101DB0001F9018959091F50169279091F40149279A
:101DC000209102012F5F9091F6019227209302014A
:101DD000942789278093F601680F6093F501669533
:101DE000640F86278093F4010895CF93DF930FB695
:101DF000F894A895809160008861809360001092AB
:101E000060000FBE60E087E00E94660A10927A00D0
:101E100080E880BF8FE380937E0083E080937F0023
:101E2000C4E6D0E08881816088830E942E070E94EA
:101E3000BD05888188608883DF91CF910895CF9216
:101E4000DF92EF92FF920F931F93CF93DF936C017A
:101E50007A018B01C0E0D0E0CE15DF0589F0D80112
:101E60006D918D01D601ED91FC910190F081E02DF5
:101E7000C6010995892B11F47E0102C02196ECCF91
:101E8000C701DF91CF911F910F91FF90EF90DF90ED
:101E9000CF900895FC01918D828D981761F0828D0D
:101EA000DF01A80FB11D5D968C91928D9F5F9F738E
:101EB000928F90E008958FEF9FEF0895FC01918D30
:101EC000828D981731F0828DE80FF11D858D90E09D
:101ED00008958FEF9FEF0895FC01918D228D892F3A
:101EE00090E0805C9F4F821B91098F739927089522
:101EF0008DEB92E00E946C0F21E0892B09F420E029
:101F0000822F0895FC01848DDF01A80FB11DA35A13
:101F1000BF4F2C91848D90E001968F739927848F09
:101F2000A689B7892C93A089B1898C9180648C9300
:101F3000938D848D981306C00288F389E02D8081EB
:101F40008F7D80830895EF92FF920F931F93CF931D
:101F5000DF93EC0181E0888F9B8D8C8D981305C0F9
:101F6000E889F989808185FD24C0F62E0B8D10E06B
:101F70000F5F1F4F0F731127E02E8C8DE8120CC0DE
:101F80000FB607FCFACFE889F989808185FFF5CF84
:101F9000CE010E94820FF1CF8B8DFE01E80FF11D63
:101FA000E35AFF4FF0820B8FEA89FB8980818062C0
:101FB00007C0EE89FF896083E889F98980818064A0
:101FC000808381E090E0DF91CF911F910F91FF908E
:101FD000EF900895CF93DF93EC01888D8823C9F0AB
:101FE000EA89FB89808185FD05C0A889B9898C9122
:101FF00086FD0FC00FB607FCF5CF808185FFF2CFBD
:10200000A889B9898C9185FFEDCFCE010E94820FFE
:10201000E7CFDF91CF91089580E090E0892B29F000
:102020000E94780F81110C94000008950E94711491
:102030001F920F920FB60F9211242F933F934F933D
:102040005F936F937F938F939F93AF93BF93EF9320
:10205000FF938DEB92E00E94820FFF91EF91BF9171
:10206000AF919F918F917F916F915F914F913F9130
:102070002F910F900FBE0F901F9018951F920F92E7
:102080000FB60F9211242F938F939F93EF93FF938B
:10209000E091CD02F091CE028081E091D302F091E7
:1020A000D40282FD12C090818091D6028F5F8F731F
:1020B0002091D702821751F0E091D602F0E0E3546C
:1020C000FD4F958F8093D60201C08081FF91EF91E3
:1020D0009F918F912F910F900FBE0F901F90189589
:1020E000009769F0FC0101900020E9F73197AF01FA
:1020F000481B590BBC018DEB92E00C941F0F80E044
:1021000090E008950F931F93CF93DF938C01C0E06D
:10211000D0E0F801EC0FFD1F6491662371F0E091AF
:10212000BD02F091BE020190F081E02D8DEB92E0B6
:102130000995892B11F02196ECCFCE01DF91CF913B
:102140001F910F9108958F929F92AF92BF920F931C
:102150001F93CF93DF93CDB7DEB7A1970FB6F89457
:10216000DEBF0FBECDBF19A2423008F44AE08E0197
:102170000F5D1F4F842E912CA12CB12CA501940131
:102180000E943A14E62FB901CA0101501109EA3040
:1021900014F4E05D01C0E95CD801EC93232B242BFF
:1021A000252B61F7C8010E947010A1960FB6F89414
:1021B000DEBF0FBECDBFDF91CF911F910F91BF90BA
:1021C000AF909F908F9008952091BC0290918504CC
:1021D000213208F04AC0809199028111FCCF32E08F
:1021E0003093990231E0309398023FEF3093970299
:1021F0001092960220939502ACE9B2E045E752E0D6
:10220000FA013E2F341B321718F43D913193F9CF68
:102210001092740220917402990F922B9093740281
:1022200090917302913061F4109273029091740254
:102230009093BB009091BC0093FDF8CF95EC01C04A
:1022400095EE9093BC00909199029230E1F39091B9
:1022500097029F3F79F080919702803241F0809100
:102260009702803331F084E005C081E003C082E052
:1022700001C083E010929B021092BC0210929A025D
:10228000089591E090939A028093850410929B02A6
:102290001092BC020895909199029111FCCF613285
:1022A00008F060E291E090939902909398022FEFEA
:1022B0002093970210929602260F209395029093F6
:1022C000740290917402880F892B8093740280911C
:1022D0007302813061F410927302809174028093D2
:1022E000BB008091BC0083FDF8CF85EC01C085EE7A
:1022F0008093BC00809199028130E1F38091960235
:10230000861710F460919602A5E7B2E023E532E06B
:10231000F9018E2F821B861718F48D918193F9CFC6
:102320001092520260935102862F0895CF93DF934B
:10233000CDB7DEB72C970FB6F894DEBF0FBECDBF7A
:10234000789484B5826084BD84B5816084BD85B590
:10235000826085BD85B5816085BD80916E0081609C
:1023600080936E0010928100809181008260809342
:102370008100809180008160809380008091B10015
:1023800084608093B1008091B00081608093B00040
:1023900080917A008B7F80937A0080917A008260AE
:1023A00080937A0080917A00816080937A00809196
:1023B0007A00806880937A001092C1000E94F50E26
:1023C000809164008F6E80936400809164008F7DA3
:1023D00080936400809164008F7B809364001092EE
:1023E000B00086E08093B10080E28093B60081E087
:1023F000809370000EE010E00150110930F10E30B2
:10240000110528F4F801EC5CFF4F0C945C1460E0BB
:10241000802F0E941A0A61E014C061E084E00E94EB
:10242000660A60E084E006C061E08DE00E94660A12
:1024300061E08DE00E941A0ADFCF60E089E002C00F
:1024400062E0802F0E94660AD7CF86E291E00E9468
:10245000610E85E191E00E94610E8CE0E3E1F1E024
:10246000DE01119601900D928A95E1F70E94B40D5C
:10247000182FCE0101960E9470100E943D06111186
:102480000E9403068BE091E00E94780E5C980E9407
:10249000A20A4B015C0188E8C82E83E1D82EE12C0A
:1024A000F12C0E94A20ADC01CB0188199909AA0922
:1024B000BB09883E9340A105B10558F081E0C81AD8
:1024C000D108E108F108E8EE8E0EE3E09E1EA11CA3
:1024D000B11CC114D104E104F10419F7F090B20069
:1024E0001FEFEE24E394EF0C115009F43BC0009170
:1024F000B20060E0802F0E945F060F1511F00E11F0
:1025000049C080E00E94790CEFCF209166002F3FF8
:1025100049F1893C08F446C080916600815080935F
:102520006600852F8A9501F0E9F79F5F9038D1F01A
:102530006FB7F8943091B2002091B2002F5F809174
:10254000B2003817E1F380E08F5F342F3A9501F045
:10255000E9F73091B2003217B9F36FBF20916600EE
:10256000203899F686E091E013C00E944D0781E083
:10257000809370038AE693E09093720380937103D3
:102580008DE693E00E94BC02811112C083E091E0CD
:102590000E94650882E08A9501F0E9F790E048E042
:1025A00052E0C6CF883C09F3809166008F5FB7CFB9
:1025B0004D9903C081E091E0EBCF83E091E00E9470
:1025C0006A068C018DEF90E00E94610E6AE0C801FE
:1025D0000E94070E0E94F60D8FE091E00E94480DC8
:1025E0008C0189EF90E00E94610E6AE0C8010E94B0
:1025F000070E0E94F60D86E693E00E94A209182FAE
:1026000083EF90E00E94610E6AE0812F90E00E94CB
:10261000070E0E94F60D8BE091E00E94A20C8C0147
:1026200087EE90E00E94610E6AE0C8010E94070EEA
:102630000E94F60D5C9A90916F03809170031816BA
:1026400014F0815001C080E080936F038F3F11F040
:10265000981751F0E0916D03F0916E030280F381C1
:10266000E02D8DE693E0099511E0809150028823DA
:1026700011F05C9801C05C9A00915002602F6127B4
:1026800086E00E941A0A002311F02D9801C02D9AAD
:102690008FE091E00E94480D7C0189E591E00E9465
:1026A000610E6AE0C7010E94070E0E94F60D86E6E1
:1026B00093E00E94A209082F83E591E00E94610E39
:1026C0006AE0802F90E00E94070E0E94F60D8BE0DA
:1026D00091E00E94A20C7C0187E491E00E94610ECF
:1026E0006AE0C7010E94070E0E94F60D8DE693E096
:1026F0000E945B0800917D0380E491E00E94610EDE
:102700006AE0802F90E00E94070E0E94F60D0023E1
:10271000A1F082E391E00E94610E8BE793E00E94BA
:102720006204FC01808160E190E00E94070E0E943B
:10273000F60D8BE793E00E9458010E9403060E9469
:10274000F50E0E94650C8091500281278093500203
:102750000E940C108ACFEDEBF2E01382128288EE19
:1027600093E0A0E0B0E084839583A683B78321E65D
:1027700031E03183208325EC30E03587248724EC59
:1027800030E03787268720EC30E0318B208B21EC3E
:1027900030E0338B228B22EC30E0358B248B26EC1F
:1027A00030E0378B268B118E128E138E148EEAE555
:1027B000F3E01382128284839583A683B78381E733
:1027C00091E091838083E6E8F4E081E891E09183F1
:1027D000808312821382EDE6F3E09FEF92831382EF
:1027E000158214821682178211861086128613862D
:1027F0008CE3848781E0858727EB31E03183208378
:10280000108A25E833E0328B218B80E4838B948B14
:102810008FEB858B168A178A27EA31E03787268760
:102820002DE531E030936B0320936A03ECE6F3E08F
:1028300080818760877E8F7D8083E6E6F3E09283E8
:10284000138285E991E0918380830895AA1BBB1BC5
:1028500051E107C0AA1FBB1FA617B70710F0A61BA0
:10286000B70B881F991F5A95A9F780959095BC01C1
:10287000CD010895A1E21A2EAA1BBB1BFD010DC0BC
:10288000AA1FBB1FEE1FFF1FA217B307E407F50720
:1028900020F0A21BB30BE40BF50B661F771F881FFC
:1028A000991F1A9469F760957095809590959B0192
:1028B000AC01BD01CF010895EE0FFF1F0590F4910B
:1028C000E02D0994A29FB001B39FC001A39F700D9A
:1028D000811D1124911DB29F700D811D1124911D28
:1028E000089581E090E0F8940C947614F894FFCF6A
:1028F000FF085E23010101FFFF0000350100F84BD6
:102900000100F8323031372F4A616E2F3038000025
:102910000000002A01260427016A06170415041383
:102920000400000000DB041D04D804A20C1B04DF1B
:10293000041904E304E10400000000DB041D04D8D2
:1029400004480D1B04DF041904E304E10400000043
:1029500000A30F1F0F6C0F4A0F5E0FEA0F0000005D
:10296000001F09EF08E708D308C408C308000000E7
:102970000052013901550140013701500135018BE9
:102980000100000000E9042404CD04A209D0042AB7
:10299000042804000000002C047501620458018E14
:1029A00004750400000000CB0422036007C104BCCE
:1029B00002BD0449045804720455045B040905AEC1
:1029C000045B08530898014704450407058D074137
:1029D00004520462073D043904350433040D0A002F
:00000001FF
