:100000000C94F4000C941C010C941C010C941C0125
:100010000C941C010C941C010C94C00D0C941C013C
:100020000C941C010C94D40F0C941C010C941C0116
:100030000C941C010C941C010C941C010C941C01CC
:100040000C94960A0C941C010C94DC090C94B609CF
:100050000C941C010C9469060C941C010C941C015A
:100060000C94E00A0C941C016D126D126D125B125F
:1000700061126D125B125B125B126A126D125B12DF
:100080006D124C00547C43313600487C250065726B
:100090007200427C63560000000000240027002A02
:1000A0000000000000250028002B000404040404C4
:1000B0000404040202020202020303030303030115
:1000C00002040810204080010204081020010204EC
:1000D00008102000000008000201000003040700CF
:1000E000000000000000004C3A20005248253A2051
:1000F00000543A2000563A20007231005874616C66
:10010000002031313A31343A333100626F61726428
:100110002056302E3220524556313120000D0A4FE4
:1001200070656E5452563A20005258203173742034
:10013000627974653A2000525845443A20004C3A9E
:1001400020005248253A2000543A200005000600BD
:1001500007010800097F0A060B150C120D000E009E
:100160000F001000122013001403150016011901CE
:100170001A141C061D441E0A1F032045210122D704
:1001800023DC2407256E271E2A282C402D0A2E2D1D
:10019000308832003302340A352A362D37D43800FD
:1001A00039003A003B003C003D003E003F0040006B
:1001B0004100420043FF44FF45FF46FF4F1060A04F
:1001C000622469606D0B6E0E6FBF700C7123722E0E
:1001D000730074007573766A774079007A007C3713
:1001E0007D047E37FFFFE91311241FBECFEFD8E057
:1001F000DEBFCDBF12E0A0E0B1E0ECE6F9E202C064
:1002000005900D92A630B107D9F724E0A6E0B2E040
:1002100001C01D92A03AB207E1F710E0C4EFD0E0B0
:1002200004C02197FE010E949A14C33FD107C9F769
:100230000E94EA110C94B4140C94000082E990E03E
:100240000895FC0186819781089580E0089580E0FB
:1002500090E0089581E0089580E0089581E0089598
:10026000FC01938181E0911101C080E00895FC01BF
:100270009381992351F02FB7F8948381891303C098
:100280008150838301C083812FBF828108958CE3D5
:100290000895FC01828108958EE890E00895FC01A4
:1002A00082818823C1F04FB7F894208530E0A38184
:1002B000B481A20FB31F8C912F5F3F4F280F311DC8
:1002C000878190E08217930708F420E020878281DD
:1002D000815082834FBF0895FC012FB7F894818528
:1002E0009085981760F0891305C0928181E0911183
:1002F00007C005C0981B81E03581391708F480E0FC
:100300002FBF0895FC0116162CF08381882311F06D
:1003100080E0089562838AE0838381E00895DC01B0
:10032000ED91FC9104A4F5A5E02D099581E00895D7
:10033000CF92DF92EF92FF920F931F93CF93DF93B1
:100340001F92CDB7DEB76C018B01FFB6F894DC01CC
:10035000ED91FC9104A0F5A1E02D49830995E82ECB
:10036000D601ED91FC9106A4F7A5E02DC6010995F3
:10037000D601ED91FC9100A0F1A1E02DC6010995F7
:100380008FE78EBD49810DB407FEFDCF8EB5F80114
:1003900050E0CF01801B910B841795073CF41EBCE5
:1003A0000DB407FEFDCF8EB58193F3CFD601ED914D
:1003B000FC9102A0F3A1E02DC6010995D601ED91B3
:1003C000FC9100A4F1A5E02D43E068E0C601099589
:1003D000D601ED91FC9100A4F1A5E02D40E068E08C
:1003E000C6010995D601ED91FC9100A4F1A5E02D7F
:1003F00040E065E0C6010995D601ED91FC9100A4AD
:10040000F1A5E02D40E066E0C6010995D601ED9129
:10041000FC9104A8F5A9E02DC6010995EE2041F054
:10042000D601ED91FC9106A0F7A1E02DC60109953A
:10043000FFBE0F90DF91CF911F910F91FF90EF9032
:10044000DF90CF900895EF92FF920F931F93CF9379
:10045000DF93EC01E881F98104A0F5A1E02D099575
:10046000F82E1FB7F894E881F98100A4F1A5E02DDA
:1004700040E065E0CE010995E881F98100A4F1A58D
:10048000E02D40E066E0CE010995E881F98104A8FD
:10049000F5A9E02DCE010995E881F98100A8F1A91F
:1004A000E02DCE0109951FBF9AEF9A9501F0E9F76B
:1004B00009EE13E08AEFE82E0150110981F09E2D1C
:1004C0009A9501F0E9F7E881F98102A4F3A5E02DFE
:1004D00063E0CE01099582FFEFCF11E001C010E08B
:1004E000FF2039F0E881F98106A0F7A1E02DCE01C7
:1004F0000995812FDF91CF911F910F91FF90EF9080
:100500000895EF92FF920F931F93CF93DF93EC0127
:100510008B01FFB6F894E881F98104A0F5A1E02DE4
:100520000995E82EF8016491319644916F3F51F09E
:10053000E881F98100A4F1A5E02DCE0109950E5FB7
:100540001F4FF0CFEE2039F0E881F98106A0F7A126
:10055000E02DCE010995FFBEDF91CF911F910F9144
:10056000FF90EF9008951F93CF93DF93EC01E88104
:10057000F98104A0F5A1E02D0995182FE881F981F2
:1005800002A4F3A5E02D60E0CE010995883071F456
:10059000E881F98102A4F3A5E02D61E0CE0109957F
:1005A000863021F4112381F011E003C0112351F0B2
:1005B00010E0E881F98106A0F7A1E02DCE010995B0
:1005C000111102C080E00FC0EC81FD81608171815A
:1005D000CE010E948102E881F98104A4F5A5E02DF5
:1005E000CE01099581E0DF91CF911F9108951F936E
:1005F000CF93DF93EC018A858617B9F0262F30E080
:100600008B81082E000C990B2817390774F4162FCC
:10061000EC81FD8183E0689FE00DF11D1124608174
:100620007181CE010E9481021A87DF91CF911F91C3
:1006300008950F931F93CF93DF93EC01E881F98125
:1006400004A4F5A5E02D09958FB7F8944DB75EB7D2
:1006500020910001309101014217530730F42DB76A
:100660003EB730930101209300018FBF8D85882311
:1006700009F481C06A816F3F09F47DC0CE010E94F8
:10068000F7021FB7F894E881F98104A0F5A1E02DE5
:10069000CE010995082FE881F98100A4F1A5E02D8C
:1006A00043E068E0CE010995E881F98100A4F1A555
:1006B000E02D40E068E0CE0109954C85E881F981A4
:1006C00000A4F1A5E02D6EE7CE010995E881F9813E
:1006D00002A4F3A5E02D60E3CE010995E881F9813C
:1006E00000A4F1A5E02D87FF1FC042E065E0CE0128
:1006F0000995E881F98100A4F1A5E02D40E066E0CC
:10070000CE010995E881F98102A4F3A5E02D63E308
:10071000CE01099583FF15C04C85E881F98100A4BD
:10072000F1A5E02D6EE30BC040E165E0CE01099537
:10073000E881F98100A4F1A5E02D40E066E0CE015A
:100740000995E881F98104A8F5A9E02DCE01099564
:10075000E881F98102A8F3A9E02DCE0109950111E4
:1007600002C01FBF08C0E881F98106A0F7A1E02DF3
:10077000CE010995F6CFDF91CF911F910F9108958A
:100780002A9A08952A9808958EBD0DB407FEFDCFCC
:100790000895CF93DF9300D0CDB7DEB76A83898306
:1007A0000E94C203898180680E94C4036A81862FE7
:1007B0000E94C4030F900F90DF91CF910C94C0035F
:1007C0008EBD0DB407FEFDCF8EB508950E94C20305
:1007D00083E00E94E00380E00E94E00380E00E944A
:1007E000E0030C94C003CF93DF931F92CDB7DEB725
:1007F00089830E94C20389818F770E94E00380E091
:100800000E94E00389830E94C00389810F90DF91D9
:10081000CF91089580E0089580E0089581E00895E3
:1008200080E0089581E0089581E0089581E00895D1
:1008300080E090E0089581E0089581E0089580E0EF
:10084000089580E0089583E0FB01808380E4FA014D
:10085000808308950C94E60365E087E00C94C90357
:1008600069E087E00C94C90360E087E00C94C90359
:10087000862F642F0C94C9030C94C0030C94C203FC
:1008800083E0FB01808380E4FA018083F9018083A7
:100890000895862F0C94F3030E960C944F01FC01DF
:1008A00080890895FC019FB7F894838513869FBFC4
:1008B0000895FC018281882349F0208530E02F5F74
:1008C0003F4F83819481820F931F089580E090E0D1
:1008D00008950E960C945904FC016623A9F0218515
:1008E00030E0A381B481A20FB31F6C932F5F3F4F01
:1008F000260F311D878190E08217930708F420E0CE
:10090000218782818F5F82830895FC019185808594
:10091000891750F0981304C0828181110EC004C061
:10092000891B9581981748F4218530E02F5F3F4F50
:1009300083819481820F931F089580E090E0089551
:1009400080E0089580E008950895EF920F93DC0110
:10095000ED91FC910688F789E02DE12C09950F9126
:10096000EF90089580E0089581E0089580E0089573
:10097000DC01ED91FC910480F581E02D60E070E0F8
:100980000994089581E008958AE890E0089581E04F
:10099000653608F080E00895FC018281089584E8BE
:1009A00090E00895FC018281938108958CE308957D
:1009B00084E0089581E06115784F09F080E00895A2
:1009C00082E890E00895FC016483458326830895BE
:1009D000FC0182810895CF93CFB7F8948091640091
:1009E00082FD03C0CFBF80E00FC02A9A61E08AE099
:1009F0000E945A0A809164008B7F8093640080E596
:100A00008CBD81E08DBDCFBFCF9108950C94EB04D8
:100A1000AF92BF92DF92EF92FF920F931F93CF930B
:100A2000DF9300D0CDB7DEB75C01D62E142FDC01EA
:100A3000ED91FC9104A4F5A5E02D29837A83099515
:100A40002981622FC5010E94F702FFB6F894D501F3
:100A5000ED91FC9104A0F5A1E02DC5010995E82ECA
:100A6000D501ED91FC9100A4F1A5E02D41E068E0F5
:100A7000C5010995D501ED91FC9100A4F1A5E02DEA
:100A800040E068E0C5010995D501ED91FC9100A019
:100A9000F1A1E02DC50109958FEF8EBD7A810DB4CE
:100AA00007FEFDCFED2DF72F912F915030F0819162
:100AB0008EBD0DB407FEFDCFF8CFD501ED91FC91B1
:100AC00002A0F3A1E02DC5010995EE2041F0D5016A
:100AD000ED91FC9106A0F7A1E02DC5010995FFBE9F
:100AE000D501ED91FC9104A0F5A1E02DC50109957A
:100AF000F82ED501ED91FC9102A4F3A5E02D60E361
:100B0000C501099583FF0AC0D501ED91FC9100A4B0
:100B1000F1A5E02D412F6EE3C5010995FF2041F0BD
:100B2000D501ED91FC9106A0F7A1E02DC501099535
:100B3000C5010E942302182F043048F080E00E9473
:100B4000FA0DC5010E942302811101C010E0D501F8
:100B5000ED91FC910280F381E02DC5010995812F73
:100B60000F900F90DF91CF911F910F91FF90EF9019
:100B7000DF90BF90AF900895ECEBF0E080818B7F29
:100B80008083E4E6F0E0808180688083089580912E
:100B9000640087FF35C0809164008F778093640084
:100BA0008091BC0084608093BC001092B1021092CE
:100BB000B00210926602109288021092AF0281E099
:100BC0008093AE021092A90261E082E10E940E0AB7
:100BD00061E083E10E940E0A8091B9008E7F8093CC
:100BE000B9008091B9008D7F8093B9008DEF80931B
:100BF000B80085E48093BC001092B80081E00895AD
:100C000080E008958091640081FD28C083ED92E02A
:100C10000E94A60883ED92E00E94A608E091E502FA
:100C2000F091E60280818F7E8083E091E502F09171
:100C3000E6028081877F8083E091E502F091E60201
:100C400080818F778083E091E502F091E6028081D8
:100C50008F7D80838091ED028093EC0262E080E0E2
:100C60000E945A0A62E081E00E945A0A8091640060
:100C700082608093640008958091C00085FD07C064
:100C800066B58091B2004AE20E941B10F5CF83ED59
:100C900092E00E94A6088091640081FD08958091F1
:100CA000C00085FD06C08091C00080648093C000B4
:100CB000F6CF8091C00086FFFCCF08954091B2002E
:100CC00066B5909107029F5F9093070289270C9465
:100CD0001B101F920F920FB60F9211248F9381E079
:100CE0008093D2028F910F900FBE0F901F90189596
:100CF000CF93CFB7F8942A9A8CB58F7B8CBDE4E65E
:100D0000F0E080818460808361E08AE00E945A0A7A
:100D100061E08DE00E945A0A61E08BE00E945A0A6D
:100D200062E08CE00E945A0ACFBFCF910895CF9322
:100D30000E94EB04C82F60E887E00E94C90360E0CE
:100D400087E00E94C903CC2319F0CF910C94780658
:100D5000CF9108950C949706CF93DF93CFB7F89473
:100D60000E94EB04D82F60E087E00E94C90363E093
:100D700088E00E94C90360E088E00E94C9030E94E5
:100D8000C20385E80E94C40380E00E94C40380E09F
:100D90000E94C4030E94C0030E94E603D11104C054
:100DA000CFBFDF91CF9108950E947806F9CF0C94C0
:100DB0007806CF92DF92EF92FF920F931F93CF931B
:100DC000DF9300D0CDB7DEB7DC0112962C912F3F18
:100DD00009F4A8C08C010E94EB04D82E0E94C20323
:100DE00083E00E94E00380E00E94E003E82EF12C03
:100DF000FE2CEE2480E00E94E003E82A0E94C0035B
:100E0000D1100E9478060E94EB04C82E80E30E9455
:100E1000F303D82EC1100E947806D7FE3EC0F1FE23
:100E200081C00E94EB04F82E83E30E94F30383FF4A
:100E300002C08EE301C08BE40E94F3038A83F110A9
:100E40000E9478068A81813408F054C06801BEE0AF
:100E5000CB0ED11CC6010E9485047C01009709F4C9
:100E600049C040E4BC01C8010E949801D80118960D
:100E7000ED91FC911997309709F44DC0BE016E5F5A
:100E80007F4FC7010995811146C0D80117968C91F3
:100E900017978F5F17968C933AC0F7FE05C082E0D4
:100EA000D8011B968C9333C0F4FE3CC06801BEE0B1
:100EB000CB0ED11CC6010E9485047C010097D1F0A5
:100EC00040E4BC01C8010E94980180E48983D801F4
:100ED0001896ED91FC9119973097F9F0BE016F5F6C
:100EE0007F4FC7010995811118C0F80187818F5F75
:100EF00087830DC041E0BE016F5F7F4FC8010E9434
:100F00009801F80186818F5F868384E08387C8011A
:100F10000E94190307C06A8101C06981C6010E944D
:100F20006C04F5CF0F900F90DF91CF911F910F912F
:100F3000FF90EF90DF90CF900895199904C00E9420
:100F4000D90681E0089580E00895CF93199905C0EE
:100F5000CFB7F8940E94D906CFBFCF910895EC0186
:100F60000E94370F0E94F50E182FE091D302F091E6
:100F7000D4020190F081E02D61E283ED92E00995C9
:100F80000E943C0611110E940206CE010E94B90F78
:100F900083E893E00E94B8040E94361061E084E088
:100FA0000E945A0A5C9880E00E94FA0D5C9A83E0E5
:100FB0000E94FA0DF7CFCF92DF92EF92FF920F933C
:100FC0001F93CF93DF936C017A018B01C0E0D0E0D7
:100FD000CE15DF0589F0D8016D918D01D601ED9117
:100FE000FC910190F081E02DC6010995892B11F447
:100FF0007E0102C02196ECCFC701DF91CF911F91F6
:101000000F91FF90EF90DF90CF900895FC01918DAC
:10101000828D981761F0828DDF01A80FB11D5D965A
:101020008C91928D9F5F9F73928F90E008958FEFC8
:101030009FEF0895FC01918D828D981731F0828D7C
:10104000E80FF11D858D90E008958FEF9FEF0895D3
:10105000FC01918D228D892F90E0805C9F4F821B37
:1010600091098F739927089583ED92E00E942808D3
:1010700021E0892B09F420E0822F0895FC01848D62
:10108000DF01A80FB11DA35ABF4F2C91848D90E0B2
:1010900001968F739927848FA689B7892C93A0898D
:1010A000B1898C9180648C93938D848D981306C044
:1010B0000288F389E02D80818F7D80830895EF92EF
:1010C000FF920F931F93CF93DF93EC0181E0888F02
:1010D0009B8D8C8D981305C0E889F989808185FDE9
:1010E00024C0F62E0B8D10E00F5F1F4F0F731127DA
:1010F000E02E8C8DE8120CC00FB607FCFACFE88901
:10110000F989808185FFF5CFCE010E943E08F1CF9D
:101110008B8DFE01E80FF11DE35AFF4FF0820B8F1C
:10112000EA89FB898081806207C0EE89FF8960833C
:10113000E889F98980818064808381E090E0DF9193
:10114000CF911F910F91FF90EF900895CF93DF9370
:10115000EC01888D8823C9F0EA89FB89808185FDAF
:1011600005C0A889B9898C9186FD0FC00FB607FC10
:10117000F5CF808185FFF2CFA889B9898C9185FF51
:10118000EDCFCE010E943E08E7CFDF91CF910895C9
:1011900080E090E0892B29F00E94340881110C94A2
:1011A000000008953FB7F894809154029091550241
:1011B000A0915602B091570226B5A89B05C02F3FBB
:1011C00019F00196A11DB11D3FBFBA2FA92F982F6D
:1011D0008827820F911DA11DB11DBC01CD0146E0E4
:1011E000660F771F881F991F4A95D1F7089585EDDF
:1011F0008093BC008091BC0084FDFCCF1092AF02B4
:10120000089540912A02262F30E0240F311D21320B
:101210003105DCF42091AF022430C9F4FC0180E0F8
:1012200090E0861758F430912A022191DC01A85FE2
:10123000BD4FA30FB11D2C930196F3CF80912A02CD
:10124000680F60932A0280E0089581E0089582E0AB
:1012500008950895E091B1028091B002E81730F44A
:10126000F0E0EE54FD4F808190E008958FEF9FEF06
:1012700008959091B1028091B002981750F4E92F2F
:10128000F0E0EE54FD4F208130E09F5F9093B1027B
:1012900002C02FEF3FEFC90108958091B00290E0A6
:1012A0002091B102821B91090895CF92DF92EF92B3
:1012B000FF920F931F93CF93DF937C01262F972FDD
:1012C0008A0180916502882391F0C62FD72F6E0185
:1012D000C40ED51ECC15DD0571F06991D701ED91D5
:1012E000FC910190F081E02DC7010995F3CF642FA7
:1012F000822F0E940109C801DF91CF911F910F91A8
:10130000FF90EF90DF90CF900895CF93DF931F92DF
:10131000CDB7DEB76983209165022223D1F02091F9
:101320008802203240F021E030E0FC013383228348
:1013300080E090E015C080916602E82FF0E0E95966
:10134000FD4F998190838F5F80936602809388021E
:1013500005C061E0CE0101960E94010981E090E0A4
:101360000F90DF91CF9108950E94AF141F920F92BA
:101370000FB60F9211242F933F934F935F936F9368
:101380007F938F939F93AF93BF93EF93FF9383EDDF
:1013900092E00E943E08FF91EF91BF91AF919F9123
:1013A0008F917F916F915F914F913F912F910F900E
:1013B0000FBE0F901F9018951F920F920FB60F92AD
:1013C00011242F938F939F93EF93FF93E091E30268
:1013D000F091E4028081E091E902F091EA0282FD5D
:1013E00012C090818091EC028F5F8F732091ED028B
:1013F000821751F0E091EC02F0E0ED52FD4F958F35
:101400008093EC0201C08081FF91EF919F918F91B9
:101410002F910F900FBE0F901F90189590E0FC0138
:10142000ED52FF4F3491FC01E154FF4F2491FC0138
:10143000E555FF4FE491EE2309F43BC0332339F126
:10144000333091F038F43130A9F0323001F584B501
:101450008F7D12C0373091F03830A1F03430B9F4BC
:10146000809180008F7D03C0809180008F77809372
:1014700080000DC084B58F7784BD09C08091B00015
:101480008F7703C08091B0008F7D8093B000F0E033
:10149000EE0FFF1FEF55FF4FA591B4918FB7F89452
:1014A000EC91611103C020952E2301C02E2B2C93AB
:1014B0008FBF0895CF93DF9390E0FC01E154FF4F7D
:1014C0002491FC01E555FF4F8491882361F190E060
:1014D000880F991FFC01E956FF4FC591D491FC017B
:1014E000EF55FF4FA591B491611109C09FB7F894D2
:1014F0008881209582238883EC912E230BC0623053
:1015000061F49FB7F8943881822F80958323888374
:10151000EC912E2B2C939FBF06C08FB7F894E881D7
:101520002E2B28838FBFDF91CF9108951F920F92AA
:101530000FB60F9211242F933F938F939F93AF93E6
:10154000BF938091500290915102A0915202B091AC
:10155000530230914F0220E3230F2D3720F44096A1
:10156000A11DB11D05C023EB230F4196A11DB11D87
:1015700020934F028093500290935102A093520205
:10158000B09353028091540290915502A09156025B
:10159000B09157020196A11DB11D80935402909302
:1015A0005502A0935602B0935702BF91AF919F91FD
:1015B0008F913F912F910F900FBE0F901F90189514
:1015C0001F920F920FB60F9211242F933F934F93B8
:1015D0005F936F937F938F939F93AF93BF93EF939B
:1015E000FF938091B900887F803609F49CC068F52C
:1015F000883209F45BC090F4803109F454C038F4A7
:10160000882309F4F6C0883009F44DC0F6C088314B
:1016100009F44CC0803209F45DC0EFC0803409F495
:1016200068C048F4803309F455C0883309F0E5C038
:101630008093AD02D8C0803509F44FC0883509F4D5
:101640005DC0883409F0D9C0D6C0883909F4C7C054
:10165000A8F4883709F467C038F4883609F463C001
:10166000803709F460C0C9C0883809F4B8C080392F
:1016700009F45FC0803809F0C0C05BC0803B09F44A
:1016800086C038F4803A09F466C0883A09F47FC00D
:10169000B4C0803C09F4A7C0883C09F4A4C0883BCE
:1016A00009F48AC0AAC08091AA0210C09091AC022D
:1016B0008091AB02981770F5E091AC0281E08E0F3B
:1016C0008093AC02F0E0E757FD4F80818093BB0030
:1016D00085EC86C08093AD028EC0E091AC0281E0C3
:1016E0008E0F8093AC028091BB00F0E0E757FD4F76
:1016F00080839091AC028091AB026EC0E091AC020D
:1017000081E08E0F8093AC028091BB00F0E0E75740
:10171000FD4F80838091AE0281116DC081E0809386
:10172000A90284EA61C083E08093AF0210924E0266
:10173000CFCF80914E02803208F051C0E0914E022E
:1017400081E08E0F80934E028091BB00F0E0E25D5D
:10175000FD4F8083BDCF85EC8093BC001092AF021B
:1017600080914E02803230F4E0914E02F0E0E25D72
:10177000FD4F108260914E0270E0E0912C02F091DA
:101780002D028EE292E0099510924E0236C084E05E
:101790008093AF0210922B0210922A02E09128024D
:1017A000F0912902099580912A02811105C081E0FA
:1017B00080932A0210920802E0912B0281E08E0FA2
:1017C00080932B02F0E0E85FFD4F80818093BB00A7
:1017D00090912B0280912A02981708F479CF85E81E
:1017E0008093BC000AC085EC8093BC001092AF02CD
:1017F00004C01092AD020E94F708FF91EF91BF91D3
:10180000AF919F918F917F916F915F914F913F9198
:101810002F910F900FBE0F901F901895FC01909183
:10182000610028E030E080E80FB6F8948093610012
:10183000209361000FBE3197F1F7892F8F7090E0F0
:1018400020E80FB6F89420936100809361000FBEEA
:101850000895CF93DF93FC013281631788F4832FBF
:1018600090E0861B910904971CF01382178205C033
:1018700083818F3F11F08F5F8383628380E072C02A
:1018800025812F3F09F424E086818F3F09F48BEFF7
:10189000562F531B91E0543008F090E04381911192
:1018A00002C0138205C04F3F19F071E0740F7383BB
:1018B0007781772339F08381833008F44AC0178217
:1018C00082E048C0911112C0433080F084818F3F84
:1018D00019F0281708F440C088E05817D0F12317F2
:1018E00070F34F3F61F781E0878334C093819E316D
:1018F00080F14481241768F5481758F5A82FA21BDA
:10190000A93038F1B0E0B595A795ED01D595C7950B
:10191000D595C795C20FC617E0F4982F9A1B691783
:10192000C0F4641718F4742F761B02C0762F741B52
:1019300050E090E0DA01A21BB109841B950BA817B7
:10194000B9070CF4CD019C013595279581E0271747
:1019500008F480E0628306C090E0821B91099595AF
:101960008795BBCFDF91CF9108958CE30895CF93F6
:10197000DF9381E08093650280E480938702109278
:1019800066021092880267EE80E793E00E94850964
:101990000E948D1181E00E9444118091B00290E07C
:1019A0002091B102821B9109181619062CF0209182
:1019B000B2002D3FC8F31FC080E793E00E943909B1
:1019C000C82FD1E0D093650280E480938702109203
:1019D00066021092880267EE80E793E00E94850914
:1019E0006C2F6873636080E793E00E9485090E9412
:1019F0008D11D0936302DF91CF910895CF92DF9242
:101A0000EF92FF920F931F93CF93DF938C010E946D
:101A1000C705C82E80916302811102C00E94B70CD5
:101A200081E08093650280E48093870210926602D1
:101A30001092880265EE80E793E00E94850986E0B7
:101A4000E82EF12C81E0E81AF10841F0DFB6F894B5
:101A500086E090E00E940E0CDFBEF4CF0E948D1154
:101A600083E00E9444114091B00250E08091B102A5
:101A7000481B51094330510534F48091B2008D3F29
:101A8000C8F38FEF30C080E793E00E943909D82E69
:101A900080E793E00E9439097C01C1100E94BC05D7
:101AA000DD2DF0E0CF2F97012C7F33272C2B3D2B02
:101AB000ADE7B0E00E94A014CAEFC80FF801828120
:101AC0008C1729F060E08D2D8E250E945E06F801AE
:101AD000C283CC3418F081E0838304C0C13410F495
:101AE000F80113828C2FDF91CF911F910F91FF90FE
:101AF000EF90DF90CF9008950F931F93CF93DF93D4
:101B0000EC018EE40E94D4108C018C819D81081719
:101B1000190721F061E0802F0E945E068C819D8173
:101B20008017910738F0801B910B079718F48E816E
:101B30009F8121C080EC9FEFB8010E94641487E36D
:101B4000869F9001879F300D112485E0369527955B
:101B50008A95E1F71D830C833F832E8381E0233D2B
:101B6000310508F080E08B8381E0263F310508F0E5
:101B700080E08A83C901DF91CF911F910F91089571
:101B80001F920F920FB60F9211248F939F93CF93B2
:101B9000DF931F92CDB7DEB70FB6F894A89580916A
:101BA0006000886180936000109260000FBECE01DB
:101BB00001968068809364020F90DF91CF919F918E
:101BC0008F910F900FBE0F901F90189583B7817F54
:101BD000866083BFF89483B7816083BF85B78066D2
:101BE00085BF8F7D85BF7894889583B78E7F83BFAF
:101BF000789408951092640283FD02C098E001C0B9
:101C000098E28770892B98E10FB6F894A895909385
:101C100060000FBE809360008091600080648093BC
:101C200060000E94E60D809164028823D1F30FB614
:101C3000F894A8958091600088618093600010926C
:101C400060000FBE0895EF92FF920F931F93CF9302
:101C5000DF938C010E94C705F82E809163028111E9
:101C600002C00E94B70C81E08093650280E48093FB
:101C70008702109266021092880263EE80E793E07A
:101C80000E94850981E00E94FA0D0E948D1183E077
:101C90000E9444112091B00230E08091B102281BD3
:101CA0003109233031053CF48091B2008D3FC8F3F7
:101CB00080E098EF33C080E793E00E943909D82F85
:101CC00020E0C22F80E793E00E9439098C7F99279A
:101CD000C82BD92BF1100E94BC059E01A7EFB5E1DE
:101CE0000E94A014DC01CB0121E1B595A795979541
:101CF00087952A95D1F77C01EEEEEE1AE2E0FE0A16
:101D0000F80182819381E816F90621F061E08C2FB9
:101D10000E945E06F801F382E282C701DF91CF9153
:101D20001F910F91FF90EF900895EF92FF920F9304
:101D30001F93CF93DF93EC015F9A61E087E00E94ED
:101D40005A0A81E00E94FA0D80E40E94D4107C01BE
:101D500060E087E00E945A0A87011695079516955C
:101D600007958A81801721F060E08E2D0E945E0623
:101D70000A839A8111E08985891730F010E09A81F1
:101D80008A85891728F411C01B831E821D820DC00D
:101D90001B828C81811109C08D819E818F3F2FEF25
:101DA000920719F001969E838D838B899C89892BDC
:101DB00099F06A81CE010B960E94290C823020F0A6
:101DC000EB89FC8981E007C0112331F0882321F0E1
:101DD000EB89FC8980E009958A818A81DF91CF9126
:101DE0001F910F91FF90EF9008958091640081FF03
:101DF0003CC0809164008D7F80936400E091E30299
:101E0000F091E40282E08083E091DF02F091E00251
:101E10001082E091E102F091E20289E18083109268
:101E2000EB02E091E702F091E80286E08083E09126
:101E3000E502F091E602808180618083E091E50215
:101E4000F091E602808188608083E091E502F09164
:101E5000E602808180688083E091E502F091E602ED
:101E600080818F7D808381E0089580E00895CF9305
:101E70000E94F50EC82F82E092E00E9460100E943E
:101E80003C06CC2319F0CF910C940206CF91089513
:101E9000CF92DF92EF92FF921F93CF93DF931F9227
:101EA000CDB7DEB76C0169830E94F50E182F49810A
:101EB000242F30E02115310561F4E091D302F09137
:101EC000D4020190F081E02D6C2D83ED92E0099514
:101ED00022C00D2C000CEE08FF082A303105B9F4A1
:101EE000F7FE14C0E091D302F091D4020190F0818A
:101EF000E02D6DE283ED92E0099566277727CB010F
:101F00006C197D098E099F094AE003C04AE0C701A8
:101F1000B6010E9493100E943C06112351F00F90CD
:101F2000DF91CF911F91FF90EF90DF90CF900C94B5
:101F300002060F90DF91CF911F91FF90EF90DF90FD
:101F4000CF9008950F931F93CF938C010E94F50EAD
:101F5000C82FC8010E9472100E943C06CC2329F0B1
:101F6000CF911F910F910C940206CF911F910F9169
:101F700008950F931F93CF938C010E94F50EC82FE5
:101F8000C8010E94721082E092E00E9460100E94DC
:101F90003C06CC2329F0CF911F910F910C9402069F
:101FA000CF911F910F9108951F920F920FB60F922C
:101FB00011242F938F939F93809162028E5F8C33B5
:101FC000C8F080916002909161020196803A25E00C
:101FD000920758F080915E0290915F020196909373
:101FE0005F0280935E0280E090E0909361028093B4
:101FF000600280E08093620280915D02882399F004
:1020000080915C02882361F0F89498E288E10FB631
:10201000F894A895809360000FBE90936000FFCF66
:1020200081E080935C029F918F912F910F900FBE62
:102030000F901F90189590915A026927909159021C
:102040004927209123012F5F90915B0292272093D3
:1020500023019427892780935B02680F60935A02BB
:102060006695640F8627809359020895CF93DF9376
:102070000FB6F894A8958091600088618093600005
:10208000109260000FBE60E087E00E945A0A109232
:102090007A0080E880BF8FE380937E0083E08093A6
:1020A0007F00C4E6D0E08881816088830E94780642
:1020B0000E94BC05888188608883DF91CF91089554
:1020C000009769F0FC0101900020E9F73197AF011A
:1020D000481B590BBC0183ED92E00C94DB0780E0B8
:1020E00090E008950F931F93CF93DF938C01C0E08E
:1020F000D0E0F801EC0FFD1F6491662371F0E091D0
:10210000D302F091D4020190F081E02D83ED92E0B2
:102110000995892B11F02196ECCFCE01DF91CF915B
:102120001F910F9108958F929F92AF92BF920F933C
:102130001F93CF93DF93CDB7DEB7A1970FB6F89477
:10214000DEBF0FBECDBF19A2423008F44AE08E01B7
:102150000F5D1F4F842E912CA12CB12CA501940151
:102160000E947814E62FB901CA0101501109EA3022
:1021700014F4E05D01C0E95CD801EC93232B242B1F
:10218000252B61F7C8010E946010A1960FB6F89444
:10219000DEBF0FBECDBFDF91CF911F910F91BF90DA
:1021A000AF909F908F9008959091640090FF0CC025
:1021B000909164009E7F9093640090917A00906863
:1021C00090937A0051E001C050E090B7906890BFC2
:1021D00080937C0083B7817F826083BF10927B00F5
:1021E00080917A00806280937A0080917A00886082
:1021F00080937A0080917A00806480937A0024E052
:102200009FEF6FEF2150B1F01092D2028091D20275
:10221000811108C083B7816083BF889583B78E7FA3
:1022200083BFF4CF309178004091790049131DC0ED
:1022300036131BC080917A00877F80937A0080914B
:102240007A008F7D80937A008091780020917900C8
:102250005523B9F090917A009F7790937A009091EE
:1022600064009160909364000CC080919B04942F53
:102270009327995F8695890F80939B04942F632FF2
:10228000C1CF90E0922B08959091AF029111FCCFB5
:10229000813208F080E291E09093AF029093AE0219
:1022A0002FEF2093AD021092AC02280F2093AB02C7
:1022B0009093AA029091AA0290689093AA0290919A
:1022C000A902913061F41092A9029091AA02909310
:1022D000BB009091BC0093FDF8CF95EC01C095EE4A
:1022E0009093BC009091AF029130E1F39091AC02D9
:1022F000981710F48091AC02A9E8B2E022EB32E02A
:10230000F9019E2F921B981718F49D919193F9CF84
:102310001092B1028093B0020895209188029091AA
:102320008702213208F04AC08091AF028111FCCFB0
:1023300032E03093AF0231E03093AE023FEF3093A2
:10234000AD021092AC022093AB02A7E6B2E049E8DE
:1023500052E0FA013E2F341B321718F43D913193AD
:10236000F9CF1092AA022091AA02990F922B909372
:10237000AA029091A902913061F41092A902909161
:10238000AA029093BB009091BC0093FDF8CF95EC0E
:1023900001C095EE9093BC009091AF029230E1F3B2
:1023A0009091AD029F3F79F08091AD02803241F073
:1023B0008091AD02803331F084E005C081E003C03C
:1023C00082E001C083E010926602109288021092AF
:1023D00065020895CF93DF93CDB7DEB72C970FB684
:1023E000F894DEBF0FBECDBF789484B5826084BD03
:1023F00084B5816084BD85B5826085BD85B5816009
:1024000085BD80916E00816080936E001092810086
:102410008091810082608093810080918000816042
:10242000809380008091B10084608093B10080919E
:10243000B00081608093B00080917A008B7F8093A0
:102440007A0080917A00826080937A0080917A008D
:10245000816080937A0080917A00806880937A000E
:102460001092C1000E943610809164008F6E80939C
:102470006400809164008F7D80936400809164008B
:102480008F7B809364001092B00086E08093B1004F
:1024900080E28093B60081E0809370000EE010E04F
:1024A00001501109F8F00D30110528F4F801EC5C29
:1024B000FF4F0C949A1460E0802F0E940E0A61E096
:1024C0000DC061E084E00E945A0A60E084E00E944E
:1024D0000E0AE6CF60E089E002C062E0802F0E9431
:1024E0005A0ADECF8DE191E00E94A20F8BE091E0CD
:1024F0000E94A20F8CE0E4E2F1E0DE01119601906F
:102500000D928A95E1F70E94F50E182FCE010196E3
:102510000E9460100E943C0611110E94020681E098
:1025200091E00E94B90F5C980E94D2084B015C01B7
:1025300088EEC82E83E0D82EE12CF12C0E94D20820
:10254000DC01CB0188199909AA09BB09883E93408F
:10255000A105B10558F081E0C81AD108E108F108D9
:10256000E8EE8E0EE3E09E1EA11CB11CC114D10446
:10257000E104F10419F7F090B2001FEFEE24E394A8
:10258000EF0C115009F43BC00091B20060E0802FC5
:102590000E945E060F1511F00E1149C080E00E94E6
:1025A000FA0DEFCF209166002F3F49F1893C08F4E6
:1025B00046C080916600815080936600852F8A9581
:1025C00001F0E9F79F5F9038D1F06FB7F894309140
:1025D000B2002091B2002F5F8091B2003817E1F372
:1025E00080E08F5F342F3A9501F0E9F73091B20027
:1025F0003217B9F36FBF20916600203899F68CEF3F
:1026000090E013C00E94970681E08093860380E8E3
:1026100093E0909388038093870383E893E00E947C
:10262000B302811112C089EF90E00E94AF0782E0EF
:102630008A9501F0E9F790E048E052E0C6CF883C87
:1026400009F3809166008F5FB7CF82E091E00E942E
:102650007C0D8C0185EF90E00E94A20F6AE0C8011A
:102660000E94480F0E94370F8FE191E00E94230ED5
:102670008C0181EF90E00E94A20F6AE0C8010E94E5
:10268000480F0E94370F8CE793E00E94FE0C182F32
:102690008BEE90E00E94A20F6AE0812F90E00E94F2
:1026A000480F0E94370F8AE091E00E94950E182F84
:1026B00087EE90E00E94A20F6AE0812F90E00E94D6
:1026C000480F0E94370F5C9A909185038091860392
:1026D000181614F0815001C080E0809385038F3F6D
:1026E00011F0981751F0E0918303F0918403028078
:1026F000F381E02D83E893E0099501E08091580291
:10270000882311F05C9801C05C9A8FE191E00E94EF
:10271000230E7C0188E491E00E94A20F6AE0C701C9
:102720000E94480F0E94370F8CE793E00E94FE0C36
:10273000182F82E491E00E94A20F6AE0812F90E0BE
:102740000E94480F0E94370F8AE091E00E94950E88
:10275000182F8EE391E00E94A20F6AE0812F90E093
:102760000E94480F0E94370F83E893E00E94A5075C
:102770001091930387E391E00E94A20F6AE0812FFA
:1027800090E00E94480F0E94370F1123A1F089E2C8
:1027900091E00E94A20F81E993E00E945904FC019C
:1027A000808160E190E00E94480F0E94370F81E92C
:1027B00093E00E944F010E9402060E9436100E9480
:1027C000E60D809158028027809358020E94C80825
:1027D00095CFE3EDF2E01382128288EE93E0A0E061
:1027E000B0E084839583A683B78326E731E0318305
:1027F000208325EC30E03587248724EC30E03787D0
:10280000268720EC30E0318B208B21EC30E0338BBD
:10281000228B22EC30E0358B248B26EC30E0378B9A
:10282000268B118E128E138E148EE0E7F3E0138246
:10283000128284839583A683B78386E891E091838F
:102840008083ECE9F4E086E991E091838083128251
:102850001382E3E8F3E09FEF9283138215821482E0
:102860001682178211861086128613868CE384875F
:1028700081E085872CEC31E031832083108A2BE9BD
:1028800033E0328B218B80E4838B948B8FEB858BB1
:10289000168A178A2CEB31E0378726872CE431E043
:1028A0003093810320938003E2E8F3E08081876026
:1028B000877E8F7D8083ECE7F3E0928313828AEA40
:1028C00091E0918380830895AA1BBB1B51E107C04F
:1028D000AA1FBB1FA617B70710F0A61BB70B881FB0
:1028E000991F5A95A9F780959095BC01CD0108953F
:1028F000A1E21A2EAA1BBB1BFD010DC0AA1FBB1F04
:10290000EE1FFF1FA217B307E407F50720F0A21B75
:10291000B30BE40BF50B661F771F881F991F1A94E2
:1029200069F760957095809590959B01AC01BD010C
:10293000CF010895EE0FFF1F0590F491E02D09944B
:10294000A29FB001B39FC001A39F700D811D1124F0
:10295000911DB29F700D811D1124911D089581E07C
:0C29600090E0F8940C94B414F894FFCFAD
:10296C00FF0834010101FFFF00004E0100000000D0
:10297C0000FFFF100C4601FE00FFFFFF000000608F
:10298C000100F824323031372F4A616E2F31330079
:10299C000000000021011D041E017C0D0E040C041E
:1029AC000A0400000000290CE30400000000E80405
:1029BC001B04E004950E1604B50C1F040000000067
:1029CC00D2041404CF04230E1204D6041004DA0427
:1029DC00D804000000005F08DB07280806081A0866
:1029EC00A60800000000850955094D0939092A0976
:1029FC00290900000000490130014C0137012E016A
:102A0C0047012C01820100000000E8041B04C404EF
:102A1C00FE0CC70421041F040000000023046C01F9
:102A2C0059044F0185046C0400000000C204190312
:102A3C00AA06B804B302B40440044F0469044C045D
:102A4C0052040805A504A5079D078F013E043C040C
:102A5C000605D70638044904AC06340430042C04AB
:062A6C002A040D0A00001F
:107E0000112484B714BE81FFE6D085E08093810001
:107E100082E08093C00088E18093C10086E0809377
:107E2000C20089E18093C4008EE0BFD0259A86E02D
:107E300023EC3FEF91E0309385002093840096BBC4
:107E4000B09BFECF1D9AA8958150A9F7EE24FF2480
:107E5000AA24A394B5E0CB2EA1E1BA2EF3E0DF2E45
:107E600098D0813461F495D0082FA5D0023829F13B
:107E7000013811F485E001C083E083D07FC08234F3
:107E800011F484E103C0853419F485E09CD076C0F8
:107E9000853579F47ED0E82EFF247BD0082F10E0C2
:107EA000102F00270E291F29000F111F84D07801E1
:107EB00065C0863521F484E086D080E0DECF84364C
:107EC00009F040C066D065D0082F63D080E0E81686
:107ED00080E7F80618F4F701D7BEE895C0E0D1E0D6
:107EE00058D089930C17E1F7F0E0EF16F0E7FF06A2
:107EF00018F0F701D7BEE8955ED007B600FCFDCFBD
:107F0000A701A0E0B1E02C9130E011968C9111977F
:107F100090E0982F8827822B932B1296FA010C0160
:107F2000A7BEE89511244E5F5F4FF1E0A038BF0770
:107F300051F7F701C7BEE89507B600FCFDCFB7BE05
:107F4000E8951CC0843761F424D023D0082F21D0B9
:107F500032D0F70185917F0114D00150D1F70EC0C6
:107F6000853739F428D08EE10CD085E90AD08FE02E
:107F700084CF813511F488E018D01DD080E101D084
:107F80006FCF982F8091C00085FFFCCF9093C600E3
:107F900008958091C00087FFFCCF8091C00084FDD0
:107FA00001C0A8958091C6000895E0E6F0E098E150
:107FB000908380830895EDDF803219F088E0F5DF4B
:107FC000FFCF84E1DECF1F93182FE3DF1150E9F7D5
:107FD000F2DF1F910895282E80E0E7DFEE27FF27CC
:027FE000099402
:027FFE0000057C
:0400000300007E007B
:00000001FF
