:100000000C94F2000C941A010C941A010C941A012D
:100010000C941A010C941A010C94320D0C941A01D0
:100020000C941A010C94D8070C941A010C941A0120
:100030000C941A010C941A010C941A010C941A01D4
:100040000C949F0B0C941A010C94C00A0C949A0AFD
:100050000C941A010C94C0080C941A010C941A0107
:100060000C94E90B0C941A01BD10BD10BD10AB101F
:10007000B110BD10AB10AB10AB10BA10BD10AB106F
:10008000BD104C00547C43313600487C250065721D
:100090007200427C63560000000000240027002A02
:1000A0000000000000250028002B000404040404C4
:1000B0000404040202020202020303030303030115
:1000C00002040810204080010204081020010204EC
:1000D00008102000000008000201000003040700CF
:1000E000000000000000004C3A20005248253A2051
:1000F00000543A2000563A20007231002031333A41
:1001000034343A343400626F6172642056302E32D7
:1001100020524556313120000D0A4F70656E545201
:10012000563A200052582031737420627974653A2F
:100130002000525845443A20004C3A2000524825AD
:100140003A2000543A200005000600070108000983
:100150007F0A060B150C120D000E000F0010001286
:1001600020130014031500160119011A141C061D92
:10017000441E0A1F032045210122D723DC24072522
:100180006E271E2A282C402D0A2E2D30883200334F
:1001900002340A352A362D37D4380039003A003B6C
:1001A000003C003D003E003F004000410042004353
:1001B000FF44FF45FF46FF4F1060A0622469606D59
:1001C0000B6E0E6FBF700C7123722E73007400756E
:1001D00073766A774079007A007C377D047E37FF3A
:1001E000FF00E30F11241FBECFEFD8E0DEBFCDBF6D
:1001F00012E0A0E0B1E0ECEAF4E202C005900D925A
:10020000A631B107D9F723E0A6E1B2E001C01D9203
:10021000A839B207E1F710E0C2EFD0E004C021979F
:10022000FE010E943A12C13FD107C9F70E943A105D
:100230000C9454120C940000CF93DF93FC01328194
:10024000631788F4832F90E0861B910904971CF0B4
:100250001382178205C083818F3F11F08F5F8383E4
:10026000628380E072C025812F3F09F424E08681FB
:100270008F3F09F48BEF562F531B91E0543008F059
:1002800090E04381911102C0138205C04F3F19F0E5
:1002900071E0740F73837781772339F08381833022
:1002A00008F44AC0178282E048C0911112C043305E
:1002B00080F084818F3F19F0281708F440C088E04F
:1002C0005817D0F1231770F34F3F61F781E0878310
:1002D00034C093819E3180F14481241768F548171A
:1002E00058F5A82FA21BA93038F1B0E0B595A79515
:1002F000ED01D595C795D595C795C20FC617E0F402
:10030000982F9A1B6917C0F4641718F4742F761B82
:1003100002C0762F741B50E090E0DA01A21BB109F5
:10032000841B950BA817B9070CF4CD019C013595DA
:10033000279581E0271708F480E0628306C090E0EB
:10034000821B910995958795BBCFDF91CF91089539
:100350008CE308959091190269279091180249271A
:10036000209102012F5F90911A029227209302019F
:100370009427892780931A02680F60931902669563
:10038000640F8627809318020895ECEBF0E08081DB
:100390008B7F8083E4E6F0E080818068808308952D
:1003A00082E990E00895FC0186819781089580E0BC
:1003B000089580E090E0089581E0089580E0089538
:1003C00081E00895FC01938181E0911101C080E0FA
:1003D0000895FC019381992351F02FB7F8948381FC
:1003E000891303C08150838301C083812FBF828121
:1003F00008958CE30895FC01828108958EE890E0D1
:1004000008954091B20066B5909117029F5F909356
:10041000170289270C94AA01FC0116162CF083817F
:10042000882311F080E0089562838AE0838381E06D
:100430000895DC01ED91FC9104A4F5A5E02D09954A
:1004400081E00895EF92FF920F931F93CF93DF9374
:10045000EC01E881F98104A0F5A1E02D0995F82EC1
:100460001FB7F894E881F98100A4F1A5E02D40E0E0
:1004700065E0CE010995E881F98100A4F1A5E02DA0
:1004800040E066E0CE010995E881F98104A8F5A96C
:10049000E02DCE010995E881F98100A8F1A9E02DB0
:1004A000CE0109951FBF9AEF9A9501F0E9F709EE81
:1004B00013E08AEFE82E0150110981F09E2D9A95E4
:1004C00001F0E9F7E881F98102A4F3A5E02D63E0EA
:1004D000CE01099582FFEFCF11E001C010E0FF20AF
:1004E00039F0E881F98106A0F7A1E02DCE01099548
:1004F000812FDF91CF911F910F91FF90EF90089581
:10050000EF92FF920F931F93CF93DF93EC018B0138
:10051000FFB6F894E881F98104A0F5A1E02D0995D2
:10052000E82EF8016491319644916F3F51F0E881D3
:10053000F98100A4F1A5E02DCE0109950E5F1F4FB2
:10054000F0CFEE2039F0E881F98106A0F7A1E02D87
:10055000CE010995FFBEDF91CF911F910F91FF90C2
:10056000EF9008951F93CF93DF93EC01E881F98119
:1005700004A0F5A1E02D0995182FE881F98102A4C6
:10058000F3A5E02D60E0CE010995883071F4E88193
:10059000F98102A4F3A5E02D61E0CE010995863032
:1005A00021F4112381F011E003C0112351F010E078
:1005B000E881F98106A0F7A1E02DCE01099511117E
:1005C00002C080E00FC0EC81FD8160817181CE01AD
:1005D0000E948002E881F98104A4F5A5E02DCE01F6
:1005E000099581E0DF91CF911F9108951F93CF93DB
:1005F000DF93EC018A858617B9F0262F30E08B81D6
:10060000082E000C990B2817390774F4162FEC816B
:10061000FD8183E0689FE00DF11D112460817181EF
:10062000CE010E9480021A87DF91CF911F91089519
:100630000F931F93CF93DF93EC01E881F98104A41A
:10064000F5A5E02D09958FB7F8944DB75EB72091C9
:100650000001309101014217530730F42DB73EB726
:1006600030930101209300018FBF8D85882309F409
:1006700081C06A816F3F09F47DC0CE010E94F602FD
:100680001FB7F894E881F98104A0F5A1E02DCE010F
:100690000995082FE881F98100A4F1A5E02D43E038
:1006A00068E0CE010995E881F98100A4F1A5E02D6B
:1006B00040E068E0CE0109954C85E881F98100A40D
:1006C000F1A5E02D6EE7CE010995E881F98102A43C
:1006D000F3A5E02D60E3CE010995E881F98100A43E
:1006E000F1A5E02D87FF1FC042E065E0CE0109952E
:1006F000E881F98100A4F1A5E02D40E066E0CE019B
:100700000995E881F98102A4F3A5E02D63E3CE0108
:10071000099583FF15C04C85E881F98100A4F1A5F6
:10072000E02D6EE30BC040E165E0CE010995E88164
:10073000F98100A4F1A5E02D40E066E0CE01099525
:10074000E881F98104A8F5A9E02DCE010995E88199
:10075000F98102A8F3A9E02DCE010995011102C08B
:100760001FBF08C0E881F98106A0F7A1E02DCE01E6
:100770000995F6CFDF91CF911F910F9108952A9A95
:1007800008952A9808958EBD0DB407FEFDCF0895F3
:10079000CF93DF9300D0CDB7DEB76A8389830E9401
:1007A000C103898180680E94C3036A81862F0E94E9
:1007B000C3030F900F90DF91CF910C94BF038EBDB8
:1007C0000DB407FEFDCF8EB508950E94C10383E0EE
:1007D0000E94DF0380E00E94DF0380E00E94DF03CD
:1007E0000C94BF0380E0089580E0089581E00895AF
:1007F00080E0089581E0089581E0089581E0089502
:1008000080E090E0089581E0089581E0089580E01F
:10081000089580E008950C94E50365E087E00C946A
:10082000C80369E087E00C94C80360E087E00C949B
:10083000C803862F642F0C94C8030C94BF030C9438
:10084000C10380E00895FB011082FA01108280E468
:10085000F90180830895CF93DF931F92CDB7DEB760
:1008600069830E94C1036981862F8F770E94DF030D
:1008700080E00E94DF0389830E94BF0389810F907B
:10088000DF91CF910895089580E090E00895FC01F4
:10089000808908958FB7F8948FBF0895FC019FB7A2
:1008A000F894838513869FBF0895089580E090E0B3
:1008B0000895089580E090E0089581E00895FB0197
:1008C0001082FA0110820895EF920F93DC01ED91EE
:1008D000FC910688F789E02DE12C09950F91EF90A6
:1008E000089581E00895DC01ED91FC910480F5818B
:1008F000E02D60E070E0099481E008958AE890E0DE
:10090000089581E0653608F080E00895FC01828159
:10091000089584E890E00895FC0182819381089510
:100920008CE3089584E0089581E06115784F09F023
:1009300080E0089582E890E00895FC016483458397
:1009400026830895FC0182810895CF93DF9381E08F
:100950008093740280E48093960210927502109244
:10096000970267EE8FE793E00E94690A0E94860F64
:1009700081E00E943D0F8091BF0290E02091C00273
:10098000821B9109181619062CF02091B2002D3FF8
:10099000C8F31FC08FE793E00E941D0AC82FD1E063
:1009A000D093740280E480939602109275021092A4
:1009B000970267EE8FE793E00E94690A6C2F6873D5
:1009C00063608FE793E00E94690A0E94860FD093CC
:1009D0002202DF91CF910895AF92BF92DF92EF9202
:1009E000FF920F931F93CF93DF9300D0CDB7DEB765
:1009F0005C01D62E142FDC01ED91FC9104A4F5A529
:100A0000E02D29837A8309952981622FC5010E94EF
:100A1000F602FFB6F894D501ED91FC9104A0F5A182
:100A2000E02DC5010995E82ED501ED91FC9100A4BA
:100A3000F1A5E02D41E068E0C5010995D501ED91F2
:100A4000FC9100A4F1A5E02D40E068E0C501099506
:100A5000D501ED91FC9100A0F1A1E02DC501099512
:100A60008FEF8EBD7A810DB407FEFDCFED2DF72FF0
:100A7000912F915030F081918EBD0DB407FEFDCFC6
:100A8000F8CFD501ED91FC9102A0F3A1E02DC501B5
:100A90000995EE2041F0D501ED91FC9106A0F7A15A
:100AA000E02DC5010995FFBED501ED91FC9104A093
:100AB000F5A1E02DC5010995F82ED501ED91FC9128
:100AC00002A4F3A5E02D60E3C501099583FF0AC0E8
:100AD000D501ED91FC9100A4F1A5E02D412F6EE32D
:100AE000C5010995FF2041F0D501ED91FC9106A0CB
:100AF000F7A1E02DC5010995C5010E942202182F1A
:100B0000043048F080E00E946C0DC5010E94220272
:100B1000811101C010E0D501ED91FC910280F381BB
:100B2000E02DC5010995812F0F900F90DF91CF9196
:100B30001F910F91FF90EF90DF90BF90AF900895BD
:100B4000CF93CFB7F8942A9A8CB58F7B8CBDE4E60F
:100B5000F0E080818460808361E08AE00E943E0B47
:100B600061E08DE00E943E0B61E08BE00E943E0B55
:100B700062E08CE00E943E0BCFBFCF9108950C94B1
:100B8000A005CF93CFB7F8948091640082FD03C095
:100B9000CFBF80E00FC02A9A61E08AE00E943E0B3E
:100BA000809164008B7F8093640080E58CBD81E040
:100BB0008DBDCFBFCF910895CF93DF93CFB7F8947A
:100BC0000E94C105D82F60E087E00E94C80363E05F
:100BD00088E00E94C80360E088E00E94C8030E9489
:100BE000C10385E80E94C30380E00E94C30380E044
:100BF0000E94C3030E94BF030E94E503D11104C0F9
:100C0000CFBFDF91CF9108950E94A005F9CF0C943A
:100C1000C1050F931F93CF93DF93EC018EE40E94E5
:100C2000CD0E8C018C819D810817190721F061E0A0
:100C3000802F0E9401028C819D818017910738F0DE
:100C4000801B910B079718F48E819F8121C080EC47
:100C50009FEFB8010E94041287E3869F9001879F4F
:100C6000300D112485E0369527958A95E1F71D838F
:100C70000C833F832E8381E0233D310508F080E023
:100C80008B8381E0263F310508F080E08A83C9012B
:100C9000DF91CF911F910F910895EF92FF920F93E3
:100CA0001F93CF93DF93EC015F9A61E087E00E948E
:100CB0003E0B81E00E946C0D80E40E94CD0E7C0111
:100CC00060E087E00E943E0B870116950795169518
:100CD00007958A81801721F060E08E2D0E94010225
:100CE0000A839A8111E08985891730F010E09A8192
:100CF0008A85891728F411C01B831E821D820DC0AE
:100D00001B828C81811109C08D819E818F3F2FEFC5
:100D1000920719F001969E838D838B899C89892B7C
:100D200099F06A81CE010B960E941C01823020F05E
:100D3000EB89FC8981E007C0112331F0882321F081
:100D4000EB89FC8980E009958A818A81DF91CF91C6
:100D50001F910F91FF90EF9008958091640087FF9D
:100D600035C0809164008F77809364008091BC00CF
:100D700084608093BC001092C0021092BF02109257
:100D80007502109297021092BE0281E08093BD021C
:100D90001092B80261E082E10E94F20A61E083E110
:100DA0000E94F20A8091B9008E7F8093B9008091F1
:100DB000B9008D7F8093B9008DEF8093B80085E4F2
:100DC0008093BC001092B80081E0089580E00895FF
:100DD000CF92DF92EF92FF920F931F93CF93DF9307
:100DE0008C010E94AD06C82E80912202811102C0A2
:100DF0000E94A50481E08093740280E480939602AF
:100E0000109275021092970265EE8FE793E00E94B0
:100E1000690A86E0E82EF12C81E0E81AF10841F039
:100E2000DFB6F89486E090E00E94170DDFBEF4CFA5
:100E30000E94860F83E00E943D0F4091BF0250E068
:100E40008091C002481B51094330510534F4809110
:100E5000B2008D3FC8F38FEF30C08FE793E00E9460
:100E60001D0AD82E8FE793E00E941D0A7C01C11055
:100E70000E94C501DD2DF0E0CF2F97012C7F332795
:100E80002C2B3D2BADE7B0E00E944012CAEFC80FFB
:100E9000F80182818C1729F060E08D2D8E250E944B
:100EA0000102F801C283CC3418F081E0838304C0CE
:100EB000C13410F4F80113828C2FDF91CF911F9170
:100EC0000F91FF90EF90DF90CF900895EF92FF92F7
:100ED0000F931F93CF93DF938C010E94AD06F82EE2
:100EE00080912202811102C00E94A50481E08093BA
:100EF000740280E480939602109275021092970219
:100F000063EE8FE793E00E94690A81E00E946C0D16
:100F10000E94860F83E00E943D0F2091BF0230E0C7
:100F20008091C002281B3109233031053CF48091A7
:100F3000B2008D3FC8F380E098EF33C08FE793E0B5
:100F40000E941D0AD82F20E0C22F8FE793E00E9455
:100F50001D0A8C7F9927C82BD92BF1100E94C5013F
:100F60009E01A7EFB5E10E944012DC01CB0121E117
:100F7000B595A795979587952A95D1F77C01EEEEC3
:100F8000EE1AE2E0FE0AF80182819381E816F90682
:100F900021F061E08C2F0E940102F801F382E282CD
:100FA000C701DF91CF911F910F91FF90EF900895AE
:100FB0001F920F920FB60F9211242F938F939F932E
:100FC000809121028E5F8C33C8F080911F02909136
:100FD00020020196803A25E0920758F080911D0288
:100FE00090911E02019690931E0280931D0280E054
:100FF00090E09093200280931F0280E08093210272
:1010000080911C02882399F080911B02882361F053
:10101000F89498E288E10FB6F894A8958093600060
:101020000FBE90936000FFCF81E080931B029F91E1
:101030008F912F910F900FBE0F901F901895CF9307
:10104000DF930FB6F894A895809160008861809333
:101050006000109260000FBE60E087E00E943E0BCF
:1010600010927A0080E880BF8FE380937E0083E057
:1010700080937F00C4E6D0E08881816088830E94ED
:10108000A0050E94C501888188608883DF91CF9187
:1010900008958091640081FD28C082EE92E00E9454
:1010A000AF0982EE92E00E94AF09E091F402F09164
:1010B000F50280818F7E8083E091F402F091F50249
:1010C0008081877F8083E091F402F091F502808136
:1010D0008F778083E091F402F091F50280818F7D1B
:1010E00080838091FC028093FB0262E080E00E949A
:1010F0003E0B62E081E00E943E0B809164008260C2
:101100008093640008958091C00085FD07C066B596
:101110008091B2004AE20E94AA01F5CF82EE92E0ED
:101120000E94AF098091640081FD08958091C00004
:1011300085FD06C08091C00080648093C000F6CF1A
:101140008091C00086FFFCCF08950F931F93CF932B
:101150008C010E94950DC82FC8010E946B0E83E17F
:1011600092E00E94590E0E948308CC2329F0CF916F
:101170001F910F910C944908CF911F910F910895E1
:101180001F920F920FB60F9211248F9381E08093DC
:10119000E1028F910F900FBE0F901F901895CF9383
:1011A0000E94C105C82F60E887E00E94C80360E084
:1011B00087E00E94C803CC2319F0CF910C94A005BE
:1011C000CF9108950C94CF08CF92DF92EF92FF92C7
:1011D0000F931F93CF93DF936C017A018B01C0E0D3
:1011E000D0E0CE15DF0589F0D8016D918D01D601D3
:1011F000ED91FC910190F081E02DC6010995892BBC
:1012000011F47E0102C02196ECCFC701DF91CF918E
:101210001F910F91FF90EF90DF90CF900895FC0108
:10122000918D828D981761F0828DDF01A80FB11D1D
:101230005D968C91928D9F5F9F73928F90E0089541
:101240008FEF9FEF0895FC01918D828D981731F0FB
:10125000828DE80FF11D858D90E008958FEF9FEF4F
:101260000895FC01918D228D892F90E0805C9F4F25
:10127000821B91098F739927089582EE92E00E9454
:10128000310921E0892B09F420E0822F0895FC0127
:10129000848DDF01A80FB11DA35ABF4F2C91848DFF
:1012A00090E001968F739927848FA689B7892C9334
:1012B000A089B1898C9180648C93938D848D9813CF
:1012C00006C00288F389E02D80818F7D8083089598
:1012D000EF92FF920F931F93CF93DF93EC0181E086
:1012E000888F9B8D8C8D981305C0E889F989808142
:1012F00085FD24C0F62E0B8D10E00F5F1F4F0F737E
:101300001127E02E8C8DE8120CC00FB607FCFACF27
:10131000E889F989808185FFF5CFCE010E944709D0
:10132000F1CF8B8DFE01E80FF11DE35AFF4FF082E4
:101330000B8FEA89FB898081806207C0EE89FF8973
:101340006083E889F98980818064808381E090E00E
:10135000DF91CF911F910F91FF90EF900895CF9360
:10136000DF93EC01888D8823C9F0EA89FB898081AD
:1013700085FD05C0A889B9898C9186FD0FC00FB67F
:1013800007FCF5CF808185FFF2CFA889B9898C91C0
:1013900085FFEDCFCE010E944709E7CFDF91CF91C6
:1013A000089580E090E0892B29F00E943D09811189
:1013B0000C940000089585ED8093BC008091BC00E2
:1013C00084FDFCCF1092BE02089540914602262F64
:1013D00030E0240F311D21323105DCF42091BE02B2
:1013E0002430C9F4FC0180E090E0861758F4309175
:1013F00046022191DC01AC5DBD4FA30FB11D2C93C2
:101400000196F3CF80914602680F6093460280E018
:10141000089581E0089582E008950895E091C00262
:101420008091BF02E81730F4F0E0EF53FD4F808168
:1014300090E008958FEF9FEF08959091C002809102
:10144000BF02981750F4E92FF0E0EF53FD4F2081D1
:1014500030E09F5F9093C00202C02FEF3FEFC901C1
:1014600008958091BF0290E02091C002821B9109F3
:101470000895CF92DF92EF92FF920F931F93CF9335
:10148000DF937C01262F972F8A0180917402882395
:1014900091F0C62FD72F6E01C40ED51ECC15DD05D9
:1014A00071F06991D701ED91FC910190F081E02DEF
:1014B000C7010995F3CF642F822F0E94E509C80167
:1014C000DF91CF911F910F91FF90EF90DF90CF9020
:1014D0000895CF93DF931F92CDB7DEB76983209134
:1014E00074022223D1F020919702203240F021E0B3
:1014F00030E0FC013383228380E090E015C08091CE
:101500007502E82FF0E0EA58FD4F998190838F5FD4
:10151000809375028093970205C061E0CE01019629
:101520000E94E50981E090E00F90DF91CF9108954E
:101530000E944F121F920F920FB60F9211242F93F9
:101540003F934F935F936F937F938F939F93AF934B
:10155000BF93EF93FF9382EE92E00E944709FF91C1
:10156000EF91BF91AF919F918F917F916F915F911B
:101570004F913F912F910F900FBE0F901F90189594
:101580001F920F920FB60F9211242F938F939F9358
:10159000EF93FF93E091F202F091F3028081E091EA
:1015A000F802F091F90282FD12C090818091FB0255
:1015B0008F5F8F732091FC02821751F0E091FB0244
:1015C000F0E0EE51FD4F958F8093FB0201C08081CA
:1015D000FF91EF919F918F912F910F900FBE0F90E0
:1015E0001F90189590E0FC01ED52FF4F3491FC01E3
:1015F000E154FF4F2491FC01E555FF4FE491EE23A8
:1016000009F43BC0332339F1333091F038F43130F1
:10161000A9F0323001F584B58F7D12C0373091F0DA
:101620003830A1F03430B9F4809180008F7D03C050
:10163000809180008F77809380000DC084B58F7774
:1016400084BD09C08091B0008F7703C08091B00045
:101650008F7D8093B000F0E0EE0FFF1FEF55FF4F3E
:10166000A591B4918FB7F894EC91611103C02095C6
:101670002E2301C02E2B2C938FBF0895CF93DF9381
:1016800090E0FC01E154FF4F2491FC01E555FF4F30
:101690008491882361F190E0880F991FFC01E9563D
:1016A000FF4FC591D491FC01EF55FF4FA591B49127
:1016B000611109C09FB7F89488812095822388839F
:1016C000EC912E230BC0623061F49FB7F8943881FF
:1016D000822F809583238883EC912E2B2C939FBFA0
:1016E00006C08FB7F894E8812E2B28838FBFDF9137
:1016F000CF9108953FB7F894809170029091710254
:10170000A0917202B091730226B5A89B05C02F3F2D
:1017100019F00196A11DB11D3FBFBA2FA92F982F17
:101720008827820F911DA11DB11DBC01CD0146E08E
:10173000660F771F881F991F4A95D1F708951F924A
:101740000F920FB60F9211242F933F938F939F9375
:10175000AF93BF9380916C0290916D02A0916E0245
:10176000B0916F0230916B0220E3230F2D3720F4EC
:101770004096A11DB11D05C023EB230F4196A11D6D
:10178000B11D20936B0280936C0290936D02A09325
:101790006E02B0936F028091700290917102A091DD
:1017A0007202B09173020196A11DB11D8093700267
:1017B00090937102A0937202B0937302BF91AF91A4
:1017C0009F918F913F912F910F900FBE0F901F907F
:1017D00018951F920F920FB60F9211242F933F93DB
:1017E0004F935F936F937F938F939F93AF93BF9329
:1017F000EF93FF938091B900887F803609F49CC0F5
:1018000068F5883209F45BC090F4803109F454C063
:1018100038F4882309F4F6C0883009F44DC0F6C0C6
:10182000883109F44CC0803209F45DC0EFC08034C7
:1018300009F468C048F4803309F455C0883309F0CE
:10184000E5C08093BC02D8C0803509F44FC088350C
:1018500009F45DC0883409F0D9C0D6C0883909F4CC
:10186000C7C0A8F4883709F467C038F4883609F48B
:1018700063C0803709F460C0C9C0883809F4B8C0B3
:10188000803909F45FC0803809F0C0C05BC0803B7C
:1018900009F486C038F4803A09F466C0883A09F43D
:1018A0007FC0B4C0803C09F4A7C0883C09F4A4C040
:1018B000883B09F48AC0AAC08091B90210C09091F7
:1018C000BB028091BA02981770F5E091BB0281E0EB
:1018D0008E0F8093BB02F0E0E856FD4F808180932D
:1018E000BB0085EC86C08093BC028EC0E091BB0239
:1018F00081E08E0F8093BB028091BB00F0E0E85640
:10190000FD4F80839091BB028091BA026EC0E0913E
:10191000BB0281E08E0F8093BB028091BB00F0E0A0
:10192000E856FD4F80838091BD0281116DC081E03A
:101930008093B80284EA61C083E08093BE02109273
:101940006A02CFCF80916A02803208F051C0E091E4
:101950006A0281E08E0F80936A028091BB00F0E002
:10196000E65BFD4F8083BDCF85EC8093BC00109279
:10197000BE0280916A02803230F4E0916A02F0E0A7
:10198000E65BFD4F108260916A0270E0E0914802D0
:10199000F09149028AE492E0099510926A0236C0F9
:1019A00084E08093BE021092470210924602E091BA
:1019B0004402F0914502099580914602811105C0CB
:1019C00081E08093460210922402E091470281E078
:1019D0008E0F80934702F0E0EC5DFD4F8081809395
:1019E000BB009091470280914602981708F479CF86
:1019F00085E88093BC000AC085EC8093BC001092FF
:101A0000BE0204C01092BC020E94DB09FF91EF915C
:101A1000BF91AF919F918F917F916F915F914F9106
:101A20003F912F910F900FBE0F901F901895FC01C2
:101A30009091610028E030E080E80FB6F894809340
:101A40006100209361000FBE3197F1F7892F8F70ED
:101A500090E020E80FB6F894209361008093610035
:101A60000FBE08951F920F920FB60F9211248F93FD
:101A70009F93CF93DF931F92CDB7DEB70FB6F89445
:101A8000A89580916000886180936000109260004A
:101A90000FBECE0101968068809323020F90DF91E4
:101AA000CF919F918F910F900FBE0F901F9018951F
:101AB00083B7817F866083BFF89483B7816083BFDB
:101AC00085B7806685BF8F7D85BF7894889583B7FD
:101AD0008E7F83BF789408951092230283FD02C005
:101AE00098E001C098E28770892B98E10FB6F894CE
:101AF000A895909360000FBE809360008091600075
:101B00008064809360000E94580D80912302882396
:101B1000D1F30FB6F894A895809160008861809306
:101B20006000109260000FBE08958091640081FFF4
:101B30003CC0809164008D7F80936400E091F2024C
:101B4000F091F30282E08083E091EE02F091EF02E7
:101B50001082E091F002F091F10289E1808310920D
:101B6000FA02E091F602F091F70286E08083E091BC
:101B7000F402F091F502808180618083E091F402AB
:101B8000F091F502808188608083E091F402F09109
:101B9000F502808180688083E091F402F091F50283
:101BA00080818F7D808381E0089580E00895CF93C8
:101BB0000E94950DC82F83E192E00E94590E0E9469
:101BC0008308CC2319F0CF910C944908CF91089544
:101BD000CF92DF92EF92FF921F93CF93DF931F92EA
:101BE000CDB7DEB76C0169830E94950D182F49812E
:101BF000242F30E02115310561F4E091E202F091EB
:101C0000E3020190F081E02D6C2D82EE92E00995C7
:101C100022C00D2C000CEE08FF082A303105B9F463
:101C2000F7FE14C0E091E202F091E3020190F0812E
:101C3000E02D6DE282EE92E0099566277727CB01D1
:101C40006C197D098E099F094AE003C04AE0C7016B
:101C5000B6010E948C0E0E948308112351F00F9050
:101C6000DF91CF911F91FF90EF90DF90CF900C9478
:101C700049080F90DF91CF911F91FF90EF90DF9077
:101C8000CF9008950F931F93CF938C010E94950DD1
:101C9000C82FC8010E946B0E0E948308CC2329F034
:101CA000CF911F910F910C944908CF911F910F91E3
:101CB0000895009769F0FC0101900020E9F7319741
:101CC000AF01481B590BBC0182EE92E00C94E40872
:101CD00080E090E008950F931F93CF93DF938C01E2
:101CE000C0E0D0E0F801EC0FFD1F6491662371F0B5
:101CF000E091E202F091E3020190F081E02D82EEAA
:101D000092E00995892B11F02196ECCFCE01DF915D
:101D1000CF911F910F9108958F929F92AF92BF9292
:101D20000F931F93CF93DF93CDB7DEB7A1970FB675
:101D3000F894DEBF0FBECDBF19A2423008F44AE0CE
:101D40008E010F5D1F4F842E912CA12CB12CA5016B
:101D500094010E941812E62FB901CA01015011091D
:101D6000EA3014F4E05D01C0E95CD801EC93232B68
:101D7000242B252B61F7C8010E94590EA1960FB69E
:101D8000F894DEBF0FBECDBFDF91CF911F910F91B1
:101D9000BF90AF909F908F9008959091640090FFB6
:101DA0000CC0909164009E7F9093640090917A00A3
:101DB000906890937A0051E001C050E090B790682D
:101DC00090BF80937C0083B7817F826083BF109235
:101DD0007B0080917A00806280937A0080917A0003
:101DE000886080937A0080917A00806480937A0082
:101DF00024E09FEF6FEF2150B1F01092E10280914B
:101E0000E102811108C083B7816083BF889583B7E1
:101E10008E7F83BFF4CF30917800409179004913D1
:101E20001DC036131BC080917A00877F80937A0093
:101E300080917A008F7D80937A0080917800209144
:101E400079005523B9F090917A009F7790937A00AA
:101E5000909164009160909364000CC080918C0319
:101E6000942F93279A5F8695890F80938C03942FE4
:101E7000632FC1CF90E0922B08959091BE029111F3
:101E8000FCCF813208F080E291E09093BE02909303
:101E9000BD022FEF2093BC021092BB02280F2093AB
:101EA000BA029093B9029091B90290689093B902E6
:101EB0009091B802913061F41092B8029091B902F9
:101EC0009093BB009091BC0093FDF8CF95EC01C0BE
:101ED00095EE9093BC009091BE029130E1F3909109
:101EE000BB02981710F48091BB02A8E9B2E021EC84
:101EF00032E0F9019E2F921B981718F49D9191934F
:101F0000F9CF1092C0028093BF02089520919702EA
:101F100090919602213208F04AC08091BE02811150
:101F2000FCCF32E03093BE0231E03093BD023FEF90
:101F30003093BC021092BB022093BA02A6E7B2E033
:101F400048E952E0FA013E2F341B321718F43D9154
:101F50003193F9CF1092B9022091B902990F922BC7
:101F60009093B9029091B802913061F41092B80246
:101F70009091B9029093BB009091BC0093FDF8CF73
:101F800095EC01C095EE9093BC009091BE0292300A
:101F9000E1F39091BC029F3F79F08091BC028032C6
:101FA00041F08091BC02803331F084E005C081E0D3
:101FB00003C082E001C083E0109275021092970284
:101FC000109274020895E2EEF2E01382128288EE1B
:101FD00093E0A0E0B0E084839583A683B78321EDEE
:101FE00031E03183208325EC30E03587248724ECF1
:101FF00030E03787268720EC30E0318B208B21ECD6
:1020000030E0338B228B22EC30E0358B248B26ECB6
:1020100030E0378B268B118E128E138E148EEFE7E5
:10202000F3E01382128284839583A683B78381EEC3
:1020300091E091838083EDE8F3E081EF91E091837B
:1020400080831282138287E491E0909396038093B9
:102050009503E7E9F3E080818760877E8F7D808349
:10206000E1E9F3E08FEF8283138285E092E09183D0
:1020700080830895CF93DF93CDB7DEB72C970FB64B
:10208000F894DEBF0FBECDBF789484B5826084BD66
:1020900084B5816084BD85B5826085BD85B581606C
:1020A00085BD80916E00816080936E0010928100EA
:1020B00080918100826080938100809180008160A6
:1020C000809380008091B10084608093B100809102
:1020D000B00081608093B00080917A008B7F809304
:1020E0007A0080917A00826080937A0080917A00F1
:1020F000816080937A0080917A00806880937A0072
:102100001092C1000E941F08809164008F6E80931E
:102110006400809164008F7D8093640080916400EE
:102120008F7B809364001092B00086E08093B100B2
:1021300080E28093B60081E0809370000EE010E0B2
:1021400001501109F8F00D30110528F4F801EC5C8C
:10215000FF4F0C943A1260E0802F0E94F20A61E077
:102160000DC061E084E00E943E0B60E084E00E94CC
:10217000F20AE6CF60E089E002C062E0802F0E94B0
:102180003E0BDECF88E191E00E94420E86E091E0B6
:102190000E94420E8CE0E5E3F1E0DE011196019031
:1021A0000D928A95E1F70E94950D182FCE010196A8
:1021B0000E94590E0E94830811110E9449088CEF59
:1021C00090E00E94A5085C980E947A0B4B015C018C
:1021D00088EEC82E83E0D82EE12CF12C0E947A0BD9
:1021E000DC01CB0188199909AA09BB09883E9340F3
:1021F000A105B10558F081E0C81AD108E108F1083D
:1022000028EE820E23E0921EA11CB11CC114D10441
:10221000E104F10419F70E94CF0881E080930E01D8
:1022200085E993E09093100180930F018BE091E09A
:102230000E94B20281112CC00E94D70D0E94950D00
:10224000182FE091E202F091E3020190F081E02D7D
:1022500061E282EE92E009950E94830811110E94CA
:10226000490889EF90E00E94A5088BE091E00E9468
:1022700073040E941F0861E084E00E943E0B5C989A
:1022800080E00E946C0D5C9A83E00E946C0DF7CF99
:1022900083E091E00E9409068C0185EF90E00E94A6
:1022A000420E6AE0C8010E94E80D0E94D70D81E34A
:1022B00091E00E9466078C0181EF90E00E94420E3F
:1022C0006AE0C8010E94E80D0E94D70D81E993E001
:1022D0000E94E806182F8BEE90E00E94420E6AE002
:1022E000812F90E00E94E80D0E94D70D8CE191E0D3
:1022F0000E944D06182F87EE90E00E94420E6AE081
:10230000812F90E00E94E80D0E94D70D5C9A909179
:102310000D0180910E01181614F0815001C080E06B
:1023200080930D018F3F11F0981751F0E0910B0150
:10233000F0910C010280F381E02D8BE091E0099592
:1023400001E080918B03882311F05C9801C05C9AB6
:1023500081E391E00E9466077C0183E491E00E94A2
:10236000420E6AE0C7010E94E80D0E94D70D81E984
:1023700093E00E94E806182F8DE391E00E94420E40
:102380006AE0812F90E00E94E80D0E94D70D8CE159
:1023900091E00E944D06182F89E391E00E94420EC1
:1023A0006AE0812F90E00E94E80D0E94D70D8BE03B
:1023B00091E00E944A0410911B0182E391E00E9487
:1023C000420E6AE0812F90E00E94E80D0E94D70D36
:1023D000112361F084E291E00E94420E809100009E
:1023E00060E190E00E94E80D0E94D70D0E9449082C
:1023F0000E941F080E94580D80918B0380278093B4
:102400008B030E94D1099DCFAA1BBB1B51E107C0C2
:10241000AA1FBB1FA617B70710F0A61BB70B881F74
:10242000991F5A95A9F780959095BC01CD01089503
:10243000A1E21A2EAA1BBB1BFD010DC0AA1FBB1FC8
:10244000EE1FFF1FA217B307E407F50720F0A21B3A
:10245000B30BE40BF50B661F771F881F991F1A94A7
:1024600069F760957095809590959B01AC01BD01D1
:10247000CF010895EE0FFF1F0590F491E02D099410
:10248000A29FB001B39FC001A39F700D811D1124B5
:10249000911DB29F700D811D1124911D089581E041
:0C24A00090E0F8940C945412F894FFCFD4
:1024AC00FF084245010101FFFF00006701FF00002A
:1024BC00000000000000003C00570100A9010000D2
:1024CC00000000FFFF100CA101FE00FFFFFF000049
:1024DC0000BB0100F8323031372F4A616E2F313298
:1024EC000000000000D3010504D0010906F603F436
:1024FC0003F203000000005F045D04560455045A07
:10250C00045904000000007C041803E2087304B2B0
:10251C0002710423044704440443044E04EC046491
:10252C00044A04210419021F041D040706BF0519DF
:10253C00042B04DC05150411040D040B040000002D
:10254C00001C019D0400000000A20403049A044D29
:10255C0006FE03A8010704000000008C04FC03899C
:10256C00046607FA039004F8039404920400000034
:10257C00006809E40831090F092309AF09000000BC
:10258C0000690A390A310A1D0A0E0A0D0A000000F8
:10259C0000FB01E201FE01E901E001F901DE010CA1
:1025AC000200000000A20403047E04E80681040972
:0625BC000407040D0A00F3
:107E0000112484B714BE81FFE6D085E08093810001
:107E100082E08093C00088E18093C10086E0809377
:107E2000C20089E18093C4008EE0BFD0259A86E02D
:107E300023EC3FEF91E0309385002093840096BBC4
:107E4000B09BFECF1D9AA8958150A9F7EE24FF2480
:107E5000AA24A394B5E0CB2EA1E1BA2EF3E0DF2E45
:107E600098D0813461F495D0082FA5D0023829F13B
:107E7000013811F485E001C083E083D07FC08234F3
:107E800011F484E103C0853419F485E09CD076C0F8
:107E9000853579F47ED0E82EFF247BD0082F10E0C2
:107EA000102F00270E291F29000F111F84D07801E1
:107EB00065C0863521F484E086D080E0DECF84364C
:107EC00009F040C066D065D0082F63D080E0E81686
:107ED00080E7F80618F4F701D7BEE895C0E0D1E0D6
:107EE00058D089930C17E1F7F0E0EF16F0E7FF06A2
:107EF00018F0F701D7BEE8955ED007B600FCFDCFBD
:107F0000A701A0E0B1E02C9130E011968C9111977F
:107F100090E0982F8827822B932B1296FA010C0160
:107F2000A7BEE89511244E5F5F4FF1E0A038BF0770
:107F300051F7F701C7BEE89507B600FCFDCFB7BE05
:107F4000E8951CC0843761F424D023D0082F21D0B9
:107F500032D0F70185917F0114D00150D1F70EC0C6
:107F6000853739F428D08EE10CD085E90AD08FE02E
:107F700084CF813511F488E018D01DD080E101D084
:107F80006FCF982F8091C00085FFFCCF9093C600E3
:107F900008958091C00087FFFCCF8091C00084FDD0
:107FA00001C0A8958091C6000895E0E6F0E098E150
:107FB000908380830895EDDF803219F088E0F5DF4B
:107FC000FFCF84E1DECF1F93182FE3DF1150E9F7D5
:107FD000F2DF1F910895282E80E0E7DFEE27FF27CC
:027FE000099402
:027FFE0000057C
:0400000300007E007B
:00000001FF
