:100000000C94FC000C9424010C9424010C94FF0229
:100010000C9424010C94D1010C9410120C94240122
:100020000C9424010C941B110C9424010C942401B5
:100030000C9424010C9424010C9424010C942401AC
:100040000C9474120C9424010C94E9140C941B1558
:100050000C9424010C94D70F0C9424010C942401CB
:100060000C947D0B0C942401A505A505A505A505FB
:100070009205A5058C058C05A505A205A5058C0591
:10008000A505990548495420454E442D53544F50D9
:10009000202F205354414C4C4544006261747465D8
:1000A0007279206D563A20006469616C3A200052E2
:1000B00048253A200074656D703A20006C696768C5
:1000C000743A20006D616E75616C2076616C7665A6
:1000D000206F70656E3A2000736F616B20746573DA
:1000E00074206D6F64653A2000627574746F6E28B9
:1000F00073293A200050414E49432100414C544558
:10010000524E415445204D41494E204C4F4F502EA8
:100110002E2E005265736574733A20004445425593
:1001200047000D0A4F70656E5452563A2000203237
:10013000303A34353A3436002000626F6172642000
:1001400056302E3220524556006D0B060008003006
:100150000033063408351036AA37CC38CC39CC6E8B
:10016000286FF5702071217220730074007573760A
:1001700064770079237A011CC11D401E0A1F0320E9
:1001800096210022DA2374240025DC2A242C282D31
:10019000FA2E296960FFFF0000000800020100003C
:1001A0000304070000000000000000010204081022
:1001B00020408001020408102001020408102004DD
:1001C00004040404040404020202020202030303FE
:1001D00003030300000000250028002B000000009E
:1001E00000240027002A000032033905E105350705
:1001F000DA079B0AD6104B1511241FBECFEFD8E0AB
:10020000DEBFCDBF12E0A0E0B1E0E2E9FEE202C055
:1002100005900D92A432B107D9F724E0A4E2B2E030
:1002200001C01D92A03FB207E1F711E0C8EFD1E095
:1002300004C02297FE010E940317C83ED107C9F7E8
:100240000E948F150C9447170C94000021E0FC01CC
:1002500022830895089508959F92AF92BF92CF92FE
:10026000DF92EF92FF920F931F93CF93DF93EC01F6
:10027000A62E942EB52E69011A81E42EF52E81E06A
:10028000E816F10429F082E0E816F10489F02BC0A9
:10029000429A61E080E10E941F13113019F083E05F
:1002A0000E94331261E081E10E941F1343980FC046
:1002B000439A61E081E10E941F13123019F083E03C
:1002C0000E94331261E080E10E941F1342986A2D60
:1002D000643008F464E08601292D3B2D44E0CE0112
:1002E0000E94E10C25C0439A62E081E10E941F1345
:1002F000A12EB12C111103C040E061E002C042E028
:1003000064E086019501CE010E94E10C429A62E010
:1003100080E10E941F1320E030E040E061E0CE0168
:100320000E94E10CAE14BF0419F082E00E94331267
:100330009A82DF91CF911F910F91FF90EF90DF9004
:10034000CF90BF90AF909F900895CF93DF93EB0134
:1003500063E086E00E945110219719F4C8E5D2E0CD
:1003600002C0C4EFD1E0C817D90710F080E011C077
:1003700063E086E00E945110C817D907B8F763E020
:1003800086E00E94511021E0C817D90708F020E04C
:10039000822FDF91CF9108958EBD0DB407FEFDCF62
:1003A00008951F920F920FB60F9211248F939F936F
:1003B00089B190913C0280933C029F918F910F9064
:1003C0000FBE0F901F901895CF93CFB7F8948091E0
:1003D000640082FD03C0CFBF80E00FC02A9A61E0B5
:1003E0008AE00E941F13809164008B7F80936400D9
:1003F00080E58CBD81E08DBDCFBFCF910895CF93B7
:10040000CFB7F8942A9A8CB58F7B8CBDE4E6F0E0E8
:1004100080818460808361E08AE00E941F1361E034
:100420008DE00E941F1361E08BE00E941F1362E0C9
:100430008CE00E941F13CFBFCF910895CF930E94ED
:10044000E401C82F2A9887E80E94CC0180E80E9426
:10045000CC012A9A2A9887E80E94CC0180E00E9469
:10046000CC012A9AC1110E94FF0181E080934E02C3
:100470008EE392E09093500280934F02E0914B0202
:10048000F0914C020190F081E02D8BE492E009950F
:100490008823D1F0E0914B02F0914C020084F18569
:1004A000E02D8BE492E00995882371F08FB7F894E2
:1004B00095E09093680092E090936B0091E09093A8
:1004C0006D008FBFCF91089585EF90E00E94600589
:1004D000EDCFCF92DF92EF92FF920F931F93CF93C6
:1004E000DF931F92CDB7DEB78C01DC0112968C91A1
:1004F0008F3F09F47AC00E94E4012A9893E09EBDE0
:100500000DB407FEFDCF9EB51EBC0DB407FEFDCF9A
:10051000EEB4F12CFE2CEE241EBC0DB407FEFDCF74
:100520009EB5E92A2A9A81110E94FF01F7FE07C0B1
:1005300082E0F80182870190F081E02D44C0F4FE52
:1005400054C07801FCE0EF0EF11CD8011C96ED912F
:10055000FC911D970084F185E02DC70109956C0180
:10056000009709F140E4BC01C8010E944C0F80E4EF
:100570008983D8011896ED91FC911997309749F12C
:10058000BE016F5F7F4FC6010995811122C0F8013E
:1005900087818F5F87830484F585E02D0284F3854E
:1005A000E02D60E01FC041E0BE016F5F7F4FC801DA
:1005B0000E944C0FF80186818F5F868384E08287DA
:1005C000D801ED91FC910280F381E02DC8010995DD
:1005D0000CC0D8011C96ED91FC911D970284F38507
:1005E000E02D6981C7010995EBCF0F90DF91CF9185
:1005F0001F910F91FF90EF90DF90CF9008951F9281
:100600000F920FB60F9211242F933F934F935F9346
:100610006F937F938F939F93AF93BF93EF93FF93CA
:1006200083B190913D0280933D02982791FF09C0CC
:1006300081FD07C0199905C061E08BE492E00E943A
:100640006902FF91EF91BF91AF919F918F917F913F
:100650006F915F914F913F912F910F900FBE0F902F
:100660001F90189589E491E090933F0280933E0299
:10067000E0E4F2E080818760877F8F7E8083089549
:100680000F931F93CF93DF930E94A1100E94F00459
:100690008091480490912B02981303C00E94FC1192
:1006A000F7CF80932B025C982D9819B181E015FB50
:1006B000112710F91827C3B1C170C827D9B1D3FBCE
:1006C000DD27D0F9D827111103C0C11101C081F174
:1006D00089EE90E00E947A11112311F08DE601C09D
:1006E00080E20E94AC11CC2311F08CE601C080E2C4
:1006F0000E94AC11DD2311F082E301C080E20E9470
:10070000AC110E94EB11112399F080912A0291E023
:10071000892780932A0288ED90E00E947A118091C7
:100720002A026AE070E090E00E94CA110E94EB1178
:1007300080912A02811118C0CC2329F0D11114C054
:1007400001E010E004C000E0DD2379F011E084EC6A
:1007500090E00E947A116AE070E0802F90E00E94A1
:10076000CA110E94EB1102C000E010E080912A0241
:10077000811102C00E9433122D9A80912B0290E0C9
:10078000959587958330910529F16CF48130910519
:10079000B9F00297F1F586E693E00E946309EC0157
:1007A00085EB90E02DC084309105E1F0059789F547
:1007B00081E492E00E949604EC018BE990E020C075
:1007C0005C9A2D9A8FE693E00E941908C82F8CEB53
:1007D00090E00FC08AE693E00E94E008C82F8FEAFD
:1007E00090E007C081E693E00E94A507C82F88EA41
:1007F00090E00E947A116AE070E08C2F90E005C0D2
:100800000E947A116AE070E0CE010E94CA110E9433
:10081000EB1180913402811109C086E091E0909340
:1008200028028093270281E08093340280912C0279
:1008300081110BC080E191E0909325028093240206
:100840001092260281E080932C0227E232E040E001
:1008500050E060E084E292E00E942C0110922902B4
:1008600001110CC080912A02882309F447C08091AD
:100870000001909101018230910529F427E232E0D4
:1008800042E050E008C0111102C0019749F427E28C
:1008900032E041E050E06FEF84E292E00E942C01F0
:1008A00080912902882399F08091000190910101A3
:1008B000029719F481E090E002C082E090E090930A
:1008C00001018093000184E890E00E94611127E219
:1008D00032E040E050E060E084E292E00E942C01CF
:1008E00080912A02882321F08091B20087FFFCCFFB
:1008F0005C9ADF91CF911F910F910895112381F29E
:10090000C6CFFC0184819581089584E191E008952A
:1009100081E0089580E0089580E0089580E00895E2
:1009200080E0089581E0089580E00895CF93DF93FB
:10093000EC0163E08EE40E94E60F9C0180EC9FEFE7
:10094000B9010E94CB1641E1469FC001479F900D1F
:1009500011243B832A839D838C8321E0873938E0EF
:10096000930708F020E02E83DF91CF910895CF9375
:10097000C82F5F9A61E087E00E941F13CC2339F0F3
:10098000CFB7F89486E090E00E945A12CFBFCF9183
:10099000089560E087E00C941F138091640087FF46
:1009A00012C0809164008F77809364008091BC00B6
:1009B00084608093BC008DE793E00E945F0A1092F0
:1009C000B80081E0089580E00895ECEBF0E08081CC
:1009D0008B7F8083E4E6F0E08081806880830895E7
:1009E000CF93DF9388E10FB6F89480936000109264
:1009F00060000FBE0E94C90410927A0080E880BF98
:100A00008FE380937E0083E080937F00C4E6D0E094
:100A10008881816088830E94FF010E94E5048881AB
:100A200088608883DF91CF910895809161008F70F5
:100A3000833011F00E9416170E94F0048091640028
:100A40008F6E80936400809164008F7D809364003A
:100A5000809164008F7B809364001092B00086E0E8
:100A60008093B10080E28093B60081E080937000B3
:100A700008958DE191E0909342028093410210929B
:100A800046021092450281E0809347020895E0916A
:100A90004B02F0914C020680F781E02D8BE492E04E
:100AA00009950E94F00461E084E00E941F135C98A5
:100AB00080E00E9433125C9A83E00E943312F7CFE9
:100AC0000E9461110E9447058AE391E00E947A1119
:100AD0006AE070E087E090E00E94CA1188E391E04C
:100AE0000E947A1181E391E00E9493118EE291E0DD
:100AF0000E947A110C94EB11CF93DF930E9415059D
:100B0000CEE0D0E0219730F1CE30D10528F4FE01BF
:100B1000EC5CFF4F0C94011760E08C2F0E9458137F
:100B200061E014C061E084E00E941F1361E084E092
:100B300006C061E08DE00E941F1361E08DE00E941D
:100B40005813E0CF60E089E002C062E08C2F0E9481
:100B50001F13D8CF62E080E10E941F1362E081E1A1
:100B60000E941F130E94DB1082E291E00E947A1122
:100B70000E94640586E090E00E941B17C82F61E088
:100B8000680F86E090E00E9429178CE191E00E94B6
:100B9000611183E191E00E947A116AE070E08C2F8C
:100BA00090E00E94CA110E94EB118CEF90E00E942D
:100BB00061110E941E025C9ADF91CF9108950C94FE
:100BC000400389E491E09093490280934802EAE46B
:100BD000F2E080818760877F8F7E8083089581E047
:100BE0000895DC01ED91FC910480F581E02D60E039
:100BF00070E0099481E00895EF920F931F93DC0158
:100C0000ED91FC910688F789E02DE12C09951F9163
:100C10000F91EF900895FC0181859085981750F011
:100C2000891304C0828181110EC004C0981B858184
:100C3000891748F4218530E02F5F3F4F83819481ED
:100C4000820F931F089580E090E00895FC01828157
:100C5000882359F080850380F481E02DE80FF11D91
:100C60008191DB018C93CF01089580E090E008959D
:100C7000FC019FB7F894828512869FBF089583E098
:100C8000FB01808380E4FA018083F9018083089569
:100C9000FC0186850895DC011C96ED91FC911D9761
:100CA0000480F581E02D0C960994DC011C96ED91F1
:100CB000FC911D970680F781E02D0C96099483E046
:100CC000FB01808380E4FA0180830895FC016623A0
:100CD000A1F0818590E0A381B481A80FB91F6C9326
:100CE0000196860F911D278130E02817390708F4F7
:100CF00080E0818782818F5F828308958EBD0DB4ED
:100D000007FEFDCF8EB508958EBD0DB407FEFDCF55
:100D100008952A9808950C9489062A9A08950C94A7
:100D20008D06CF93DF9300D0CDB7DEB76A8389837A
:100D30000E948906898180680E9484066A81862FC4
:100D40000E9484060F900F90DF91CF910C948D0636
:100D5000862F642F0C94910669E087E00C9491062D
:100D600065E087E00C949106CF93DF931F92CDB797
:100D7000DEB769830E9489066981862F8F770E947A
:100D80007E0680E00E947E0689830E948D0689810E
:100D90000F90DF91CF9108950E94890683E00E9411
:100DA0007E0680E00E947E0680E00E947E060C9413
:100DB0008D060C94CC0660E087E00C9491060C94B0
:100DC000E4010C94FF01CF930E94E401C82F60E876
:100DD00087E00E94910660E087E00E949106CC23A4
:100DE00019F0CF910C94FF01CF910895CF93DF9329
:100DF000CFB7F8940E94E401D82F60E087E00E940A
:100E0000910663E088E00E94910660E088E00E941D
:100E100091060E94890685E80E94840680E00E946F
:100E2000840680E00E9484060E948D060E94CC0603
:100E3000D11104C0CFBFDF91CF9108950E94FF016F
:100E4000F9CFCF93199906C0CFB7F89460E00E940C
:100E50006902CFBFCF910895199905C061E00E9442
:100E6000690281E0089580E008952FEF20934D02FC
:100E700010924E021092500210924F0210925102A4
:100E80001092520210925402109253021092550284
:100E90008CE38093560281E591E090934C0280931D
:100EA0004B021092590281E692E090935B0280938C
:100EB0005A0280E480935C0220935D028FEB809362
:100EC0005E0210925F021092600281E491E09093C2
:100ED0005802809357020895FC01828108958CE3A3
:100EE000089587E891E00895FC01848508958CE3D6
:100EF0000895FC0182819381089589E891E0089525
:100F000081E0653608F080E008958FE891E008956B
:100F100081E0089580E0089580E0089580E090E009
:100F2000089580E0089580E0089581E0089580E0CC
:100F3000089581E0089580E0089580E0089580E0BC
:100F4000089581E0089580E008950F931F93CF9353
:100F5000DF93EC0180E00E94B70461E081E00E9431
:100F600051108C010E94C9042FEF33E0201B310B7C
:100F70003C832B836A81C9019695879596958795C1
:100F8000282F681738F4AC015527461B5109483003
:100F900051054CF4261740F4262F30E0281B310968
:100FA000283031050CF08A838A81DF91CF911F911F
:100FB0000F9108951092710387E991E09093700367
:100FC00080936F0310927403109275038FEF8093D8
:100FD00076038093770310927B0310927C039DE24B
:100FE000909379039EE390937A0391E19093780331
:100FF00080936C038FEA91E090936B0380936A0374
:1010000010926D0387EC91E09093670380936603E1
:101010001092690310926803109263038FED91E0C0
:1010200090936203809361031092650310926403AE
:1010300008950F931F93CF93DF93EC0180E00E94FC
:10104000B70463E080E00E9451108C01803843E0D7
:10105000940760F161E080E00E9451108C0181E40E
:1010600092E00E949604C801F5E0880F991FFA9556
:10107000E1F76091430270914402605F7F4FA5E009
:1010800076956795AA95E1F70E94CB16CB0180581B
:10109000934069E070E00E94CB168B0100581C4F12
:1010A0000F3F53E0150710F00FEF13E00E94C90443
:1010B0008B81801721F060E080270E945A109801F0
:1010C0003695279536952795822F9A85921750F059
:1010D0001D829C8591110CC09E819F3F49F09F5FAE
:1010E0009E8306C09B85921718F491E09D831E8213
:1010F0001C830B839A818917C9F08A8144E0849FFD
:10110000C00111240817190728F4AC01401B510B2A
:101110008A0102C0081B190B0330110538F08A81BF
:101120002A838D85811102C081E08D878A81DF91BC
:10113000CF911F910F910895CF9360E470E08DE7F8
:1011400093E00E94830A67EE8DE793E00E94200AF5
:101150008DE793E00E94980A41E050E060E470E07F
:101160008DE793E00E94760A8DE793E00E94C8091C
:10117000181619062CF08091B2008D3FA8F31EC0FE
:101180008DE793E00E94D009C82F60E470E08DE7FE
:1011900093E00E94830A67EE8DE793E00E94200AA5
:1011A0006C2F687363608DE793E00E94200A8DE7DF
:1011B00093E00E94980A81E080936E03CF91089596
:1011C000AF92BF92CF92DF92EF92FF920F931F9355
:1011D000CF93DF931F92CDB7DEB75C010E94CD04A1
:1011E000C82E80916E03811102C00E949C0860E4A9
:1011F00070E08DE793E00E94830A65EE8DE793E04F
:101200000E94200A06E010E00150110941F0DFB60B
:10121000F89486E090E00E945A12DFBEF5CF8DE789
:1012200093E00E94980A43E050E060E470E08DE7AC
:1012300093E00E94760A8DE793E00E94C809039725
:101240002CF48091B2008F3FB1F731C08DE793E06D
:101250000E94D009D82E8DE793E00E94D0098C011E
:10126000C1100E94E50498012C7F3327FD2CE12C4E
:101270002E293F29ADE7B0E00E9407179AEF980F9B
:10128000F5018281891739F061E0802F8D259983DE
:101290000E945A109981F50192839C3418F081E0E4
:1012A000838304C0913410F4F5011382892F0F90C9
:1012B000DF91CF911F910F91FF90EF90DF90CF9032
:1012C000BF90AF900895DF92EF92FF920F931F931C
:1012D000CF93DF937C010E94CD04D82E80916E03C2
:1012E000811102C00E949C0860E470E08DE793E0E9
:1012F0000E94830A63EE8DE793E00E94200A81E05A
:101300000E9433128DE793E00E94980A43E050E078
:1013100060E470E08DE793E00E94760A8DE793E049
:101320000E94C80903973CF48091B2008D3FB0F34E
:1013300080E090E022C08DE793E00E94D009D82F92
:1013400080E0C82F8DE793E00E94D0098C010C7FCC
:1013500011270C2B1D2BD1100E94E5049801A7EF3B
:10136000B5E10E940717B1E1959587957795679547
:10137000BA95D1F7CB018E5E9240F70193838283B9
:10138000DF91CF911F910F91FF90EF90DF90089523
:101390008091AD0390E02091AE03821B91090895E6
:1013A0002091AE038091AD03281750F4E22FF0E0B6
:1013B000E155FC4F808190E02F5F2093AE030895AC
:1013C0008FEF9FEF0895E091AE038091AD03E81792
:1013D00030F4F0E0E155FC4F808190E008958FEF0C
:1013E0009FEF08950895CF92DF92EF92FF920F93AF
:1013F0001F93CF93DF937C01CB018A012091890356
:10140000222389F0EB016B01C40ED51ECC15DD053E
:1014100069F06991D701ED91FC910190F081E02D87
:10142000C7010995F3CF642F0E94540BC801DF91C7
:10143000CF911F910F91FF90EF90DF90CF90089583
:10144000CF93DF931F92CDB7DEB7698320918903D5
:101450002223D1F020918A03203240F021E030E0B5
:10146000FC013383228380E090E015C080918B03E0
:10147000E82FF0E0E457FC4F998190838F5F8093D1
:101480008B0380938A0305C061E0CE0101960E9420
:10149000540B81E090E00F90DF91CF910895FC0113
:1014A0001382128248EE53E060E070E0448355837B
:1014B0006683778387EF91E091838083089510920C
:1014C000AE031092AD0310928B0310928A030C941A
:1014D0009F0A862F413208F040E26FEA73E00E94D3
:1014E000BD0A1092AE038093AD03089521E00C94E1
:1014F000690A81E0809389036093AC0310928B03A7
:1015000010928A0308950C94790A0F93062F21E014
:1015100040918A036CE873E08091AC030E94010B58
:1015200010928B0310928A03109289030F910895F1
:1015300061E00C94850A8DE793E00C944F0A1092B9
:101540003C0481E080933A041092390461E082E126
:101550000E94581361E083E10E945813E9EBF0E028
:1015600080818E7F808380818D7F80838DEF8093CB
:10157000B80085E48093BC000895413208F03FC074
:1015800090913C049111FCCF91E090933C04209306
:101590003A042FEF2093CF0310921404240F2093CA
:1015A000130490933B0490913B04880F892B809304
:1015B0003B0480913904813041F4109239048091C8
:1015C0003B048093BB0085EC01C085EE8093BC009A
:1015D00080913C048130E1F380911404841710F46D
:1015E0004091140425E134E0FB01D9018A2F821BCC
:1015F000841718F48D918193F9CF842F089580E09A
:1016000008950F93413208F046C090913C04911127
:10161000FCCF92E090933C0400933A049FEF9093A8
:10162000CF031092140440931304FB0165E174E0AE
:10163000DB019A2F961B941718F491919D93F9CF83
:1016400010923B0490913B04880F892B80933B04BC
:1016500080913904813041F41092390480913B0427
:101660008093BB0085EC01C085EE8093BC002223F3
:1016700021F080913C048230E1F38091CF038F3FD1
:1016800061F08091CF03803251F08091CF0380339D
:1016900041F483E007C081E005C080E003C082E040
:1016A00001C084E00F910895613298F420913C04C8
:1016B000243089F46093F103FC0183EF93E0DC01B3
:1016C0002A2F281B261718F421912D93F9CF80E09B
:1016D000089581E0089582E0089585ED8093BC002F
:1016E0008091BC0084FDFCCF10923C04089585ECF1
:1016F0008093BC0010923C0408951F920F920FB685
:101700000F9211242F933F934F935F936F937F9387
:101710008F939F93AF93BF93EF93FF938091B90003
:10172000887F803609F49CC068F5883209F45BC074
:1017300090F4803109F454C038F4882309F4F5C0DA
:10174000883009F44DC0F5C0883109F44CC08032AE
:1017500009F45DC0EEC0803409F468C048F48033F9
:1017600009F455C0883309F0E4C08093CF03A8C0C2
:10177000803509F44FC0883509F45DC0883409F01C
:10178000D8C0D5C0883909F4C6C0A8F4883709F490
:1017900067C038F4883609F463C0803709F460C044
:1017A000C8C0883809F4B7C0803909F45FC08038F0
:1017B00009F0BFC05BC0803B09F485C038F4803AB3
:1017C00009F466C0883A09F47EC0B3C0803C09F4CD
:1017D000A6C0883C09F4A3C0883B09F489C0A9C00D
:1017E00080913B0410C090911404809113049817C9
:1017F00070F5E091140481E08E0F80931404F0E002
:10180000EB5EFB4F80818093BB0085EC85C08093AD
:10181000CF038DC0E091140481E08E0F80931404F7
:101820008091BB00F0E0EB5EFB4F8083909114044D
:10183000809113046DC0E091140481E08E0F8093B9
:1018400014048091BB00F0E0EB5EFB4F808380913D
:101850003A0481116CC081E08093390484EA60C04D
:1018600083E080933C041092D003CFCF8091D003CB
:10187000803208F050C0E091D00381E08E0F809359
:10188000D0038091BB00F0E0EF52FC4F8083BDCFCE
:101890008091D003803230F4E091D003F0E0EF5239
:1018A000FC4F10820E946D0B6091D00370E0E091BC
:1018B0003504F091360481ED93E009951092D00340
:1018C0000E94770B36C084E080933C041092F203B0
:1018D0001092F103E0913704F0913804099580915A
:1018E000F103811105C081E08093F1031092F303AD
:1018F000E091F20381E08E0F8093F203F0E0ED506F
:10190000FC4F80818093BB009091F2038091F103A2
:10191000981708F47ACF85E88093BC000AC085EC5C
:101920008093BC0010923C0404C01092CF030E942C
:101930006D0BFF91EF91BF91AF919F918F917F912F
:101940006F915F914F913F912F910F900FBE0F902C
:101950001F901895FC0182818823B9F04FB7F89445
:10196000808590E0A381B481A80FB91F2C910196C6
:10197000820F911D278130E02817390708F480E095
:1019800080878281815082834FBF0895FC018185C9
:101990009085981760F0891305C0928181E09111BC
:1019A00007C005C0981B81E02581291708F480E055
:1019B0000895CF93CFB7F8940E94C60CCFBFCF91B4
:1019C00008959F92AF92BF92CF92DF92EF92FF92D3
:1019D0000F931F93CF93DF936C017901E8018091FE
:1019E000B2008A3B08F050C099EB981B941708F49A
:1019F0004BC001E02115310509F000E011E022E0C3
:101A0000E216F10409F010E0942E980EB62E961707
:101A100008F4B92EB80EA090B200A816E1F3011197
:101A200008C0E881F9810480F581E02D612FCE01A5
:101A30000995A91410F48A2DEECF9B1438F5D60120
:101A4000ED91FC910190F081E02DB701C60109955F
:101A5000811112C09090B2009A1489F3011108C04C
:101A6000E881F9810480F581E02D612FCE0109958F
:101A70009B1460F4A92CE3CFE881F9810190F081F7
:101A8000E02D612FCE01099581E001C080E0DF915A
:101A9000CF911F910F91FF90EF90DF90CF90BF906B
:101AA000AF909F9008950F931F93CF93DF93EC0116
:101AB000E881F98104A4F5A5E02D09958A818F3F7D
:101AC00009F451C01FB7F894E881F98104A0F5A189
:101AD000E02DCE010995082FE881F98100A4F1A538
:101AE000E02D43E068E0CE010995E881F98100A48A
:101AF000F1A5E02D40E068E0CE0109954B85E88135
:101B0000F98100A4F1A5E02D6EE7CE010995E881E9
:101B1000F98100A4F1A5E02D40E165E0CE01099531
:101B2000E881F98100A4F1A5E02D40E066E0CE0156
:101B30000995E881F98104A8F5A9E02DCE01099560
:101B4000E881F98102A8F3A9E02DCE0109950111E0
:101B500002C01FBF08C0E881F98106A0F7A1E02DEF
:101B6000CE010995F6CFDF91CF911F910F91089586
:101B7000DC01ED91FC9104A4F5A5E02D099581E02F
:101B800008950F931F93CF93DF93EC01E881F981C0
:101B900004A0F5A1E02D0995082FE881F98102A4A0
:101BA000F3A5E02D60E0CE010995883059F4E88175
:101BB000F98102A4F3A5E02D61E0CE01099511E0C1
:101BC000863009F010E0002339F0E881F98106A0A1
:101BD000F7A1E02DCE010995812FDF91CF911F91C3
:101BE0000F910895EF92FF920F931F93CF93DF937E
:101BF000EC018B01FFB6F894E881F98104A0F5A10E
:101C0000E02D0995E82EF8016491319644916F3FDB
:101C100059F0A881B9819896ED91FC919997CE01E0
:101C200009950E5F1F4FEFCFEE2039F0E881F98163
:101C300006A0F7A1E02DCE010995FFBEDF91CF915F
:101C40001F910F91FF90EF9008951F93CF93DF9313
:101C5000EC018B81813011F010E014C0CE010E94A4
:101C6000C10D182F8823C1F3EC81FD816081718142
:101C7000CE010E94F20DE881F98104A4F5A5E02DC2
:101C8000CE010995812FDF91CF911F910895CF93B8
:101C9000DF93EC01E881F98100A4F1A5E02D41E09A
:101CA00068E00995E881F98100A4F1A5E02D40E004
:101CB00068E0CE01DF91CF910994EF92FF920F93EC
:101CC0001F93CF93DF9300D01F92CDB7DEB77C0177
:101CD0001FB7F894DC01ED91FC9104A0F5A1E02D73
:101CE00049836A837B830995082FC7010E94470EA9
:101CF000D701ED91FC9100A0F1A1E02DC70109955C
:101D00008FEF8EBD7B816A8149810DB407FEFDCFC7
:101D1000FB01415030F081918EBD0DB407FEFDCF27
:101D2000F8CFD701ED91FC9102A0F3A1E02DC701FE
:101D30000995002341F0D701ED91FC9106A0F7A190
:101D4000E02DC70109951FBF0F900F900F90DF91F5
:101D5000CF911F910F91FF90EF900895EF92FF9216
:101D60000F931F93CF93DF93EC01E881F98104A0D7
:101D7000F5A1E02D0995F82E1FB7F894E881F981B7
:101D800000A4F1A5E02D40E065E0CE010995E881D1
:101D9000F98100A4F1A5E02D40E066E0CE010995AF
:101DA000E881F98104A8F5A9E02DCE010995E88123
:101DB000F98100A8F1A9E02DCE0109951FBF8AEF96
:101DC0008A9501F0E9F709EE13E08AEFE82E015059
:101DD000110981F08E2D8A9501F0E9F7E881F981EA
:101DE00002A4F3A5E02D63E0CE01099582FFEFCFB9
:101DF00011E001C010E0FF2039F0E881F98106A070
:101E0000F7A1E02DCE010995812FDF91CF911F9190
:101E10000F91FF90EF900895CF92DF92FF920F9372
:101E20001F93CF93DF9300D01F92CDB7DEB76C0125
:101E3000DC01ED91FC9104A4F5A5E02D4B836983B1
:101E40007A8309954B8169817A81C6010E945D0E72
:101E5000C6010E94AE0EF82E043011054CF080E051
:101E60000E943312C6010E94AE0E811101C0F12CF6
:101E7000D601ED91FC910280F381E02DC601099518
:101E80008F2D0F900F900F90DF91CF911F910F9199
:101E9000FF90DF90CF900895CF92DF92EF92FF9264
:101EA0000F931F93CF93DF931F92CDB7DEB76C01D3
:101EB0008B01FFB6F894DC01ED91FC9104A0F5A133
:101EC000E02D49830995E82ED601ED91FC9106A4F9
:101ED000F7A5E02DC6010995D601ED91FC9100A072
:101EE000F1A1E02DC60109958FE78EBD49810DB4A2
:101EF00007FEFDCF8EB5F80150E0CF01801B910B9E
:101F0000841795073CF41EBC0DB407FEFDCF8EB5BB
:101F10008193F3CFD601ED91FC9102A0F3A1E02DC6
:101F2000C6010995D601ED91FC9100A4F1A5E02D23
:101F300043E068E0C6010995D601ED91FC9100A44B
:101F4000F1A5E02D40E068E0C6010995D601ED91CC
:101F5000FC9100A4F1A5E02D40E065E0C6010995E3
:101F6000D601ED91FC9100A4F1A5E02D40E066E0E2
:101F7000C6010995D601ED91FC9104A8F5A9E02DC3
:101F8000C6010995EE2041F0D601ED91FC9106A025
:101F9000F7A1E02DC6010995FFBE0F90DF91CF910B
:101FA0001F910F91FF90EF90DF90CF9008951F92B7
:101FB0000F920FB60F9211248F9381E080933E040D
:101FC0008F910F900FBE0F901F9018951F93CF9376
:101FD000DF93D82FC62F0E946510182F90B79068F6
:101FE00090BFD0937C00C2301CF480E00E9433127A
:101FF00093B7917F926093BF10927B0090917A008B
:10200000C23014F0906201C09F7D90937A0090914D
:102010007A00986090937A0090917A0090649093FF
:102020007A005FEF4FEFC150C7FD16C010923E041B
:1020300080913E04811108C093B7916093BF889549
:1020400093B79E7F93BFF4CF2091780030917900B1
:10205000351315C0241313C090917A00977F909385
:102060007A0090917A009F7D90937A00D0917800C9
:10207000C0917900112371F00E9477100BC09091EC
:102080003D04432F42274C5F9695940F90933D0457
:10209000A901C9CF8D2F90E09C2BDF91CF911F918B
:1020A000089590E4699F90011124877063E0822B6A
:1020B0000C94E60F4091B20066B590913F049F5F8B
:1020C00090933F0489270C94BB108091640080FF9B
:1020D0000CC0809164008E7F8093640080917A00B0
:1020E000806880937A0081E0089580E00895EAE7AF
:1020F000F0E080818F778083E4E6F0E0808181608A
:10210000808308958091640081FD08958091C000CE
:1021100085FD06C08091C00080648093C000F6CF2A
:102120008091C00086FFFCCF08958091C00085FF9C
:10213000FCCF83E594E00E94EA130C9482100C9487
:1021400095108091640081FD08C083E594E00E94B1
:10215000EA1383E594E00E94CD1462E080E00E94DF
:102160001F1362E081E00E941F138091640082606F
:102170008093640008959091430420914204622763
:10218000209141044227209140042F5F2093400476
:1021900092279427982790934304690F60934204F1
:1021A0006695640F692760934104089581E894E07F
:1021B000809340040895CF93CFB7F89488E090E0DF
:1021C0000E9423178F3F2FEF920721F09093450431
:1021D000809344048AE090E00E941B17482FCFBFF1
:1021E000803C30F5282F30E083E0359527958A959F
:1021F000E1F75CE3529FC001539F900D1124242FFF
:102200002770213049F030F0233041F0273081F43D
:10221000089605C0C59603C0869601C047962FB79D
:10222000F89490934704809346042FBF81E001C047
:1022300080E0CF9108951F920F920FB60F92112454
:102240002F938F939F93809148048E5F8C33C8F0B7
:1022500080914604909147040196803A25E09207C8
:1022600058F0809144049091450401969093450460
:102270008093440480E090E0909347048093460468
:1022800080E0809348049F918F912F910F900FBE13
:102290000F901F9018958091640081FF10C080916D
:1022A00064008D7F8093640026E040EC52E160E0A2
:1022B00070E083E594E00E94711481E0089580E06D
:1022C00008951F93CF93DF93EC010E944B11182FB9
:1022D000BE0183E594E00E940E160E949F10112318
:1022E00029F0DF91CF911F910C94A110DF91CF9134
:1022F0001F9108951F93CF93DF93EC010E944B1120
:10230000182FBE0183E594E00E94DC150E949F1007
:10231000112329F0DF91CF911F910C94A110DF912F
:10232000CF911F9108951F93CF93DF93EC010E94EB
:102330004B11182FBE0183E594E00E9401160E9404
:102340009F10112329F0DF91CF911F910C94A110C0
:10235000DF91CF911F9108951F93CF93DF931F9229
:10236000CDB7DEB789830E944B11182F698183E5B1
:1023700094E00E9403160E949F10112331F00F90E9
:10238000DF91CF911F910C94A1100F90DF91CF910D
:102390001F910895FF920F931F93CF93DF93EC014A
:1023A0008B010E944B11F82EA801BE0183E594E039
:1023B0000E94C3160E949F10FF2039F0DF91CF9139
:1023C0001F910F91FF900C94A110DF91CF911F915D
:1023D0000F91FF900895CF930E944B11C82F83E572
:1023E00094E00E940A160E949F10CC2319F0CF910E
:1023F0000C94A110CF91089583B7817F866083BF2D
:10240000F89483B7816083BF85B7806685BF8F7D71
:1024100085BF7894889583B78E7F83BF789408951D
:102420001F920F920FB60F9211248F939F93CF9309
:10243000DF931F92CDB7DEB788E10FB6F894809393
:102440006000109260000FBECE01019680688093FC
:1024500049040F90DF91CF919F918F910F900FBE04
:102460000F901F9018951092490483FF02C098E2C4
:1024700001C098E08770892B28E130E00FB6F8940E
:10248000A895209360000FBE80936000809160004B
:102490008064809360000E94FC118091490488232D
:1024A000D1F388E10FB6F894809360001092600039
:1024B0000FBE08954091610028E030E050E80FB66B
:1024C000F89450936100209361000FBE0197F1F7DB
:1024D0004F70842F90E020E80FB6F89420936100AD
:1024E000809361000FBE08951F920F920FB60F9256
:1024F00011242F933F938F939F93AF93BF9380911A
:102500004B0490914C04A0914D04B0914E04309135
:102510004A0420E3230F2D3720F44096A11DB11D5E
:1025200005C023EB230F4196A11DB11D20934A0442
:1025300080934B0490934C04A0934D04B0934E04AD
:1025400080914F0490915004A0915104B091520495
:102550000196A11DB11D80934F0490935004A09348
:102560005104B0935204BF91AF919F918F913F91CD
:102570002F910F900FBE0F901F901895789484B5EF
:10258000826084BD84B5816084BD85B5826085BD6F
:1025900085B5816085BDEEE6F0E080818160808355
:1025A000E1E8F0E01082808182608083E0E8F0E082
:1025B000808181608083E1EBF0E0808184608083B2
:1025C000E0EBF0E0808181608083EAE7F0E08081E9
:1025D0008B7F808380818260808380818160808323
:1025E0008081806880831092C1000895833081F0DB
:1025F00028F4813099F08230A1F008958730A9F055
:102600008830B9F08430D1F4809180008F7D03C090
:10261000809180008F7780938000089584B58F77B4
:1026200002C084B58F7D84BD08958091B0008F77FE
:1026300003C08091B0008F7D8093B0000895CF9348
:10264000DF9390E0FC01E555FE4F2491FC01E1543D
:10265000FE4F8491882349F190E0880F991FFC0177
:10266000E352FE4FA591B4918D529E4FFC01C5914E
:10267000D4919FB7611108C0F8948C912095822362
:102680008C93888182230AC0623051F4F8948C9133
:10269000322F309583238C938881822B888304C0CA
:1026A000F8948C91822B8C939FBFDF91CF910895EA
:1026B0000F931F93CF93DF931F92CDB7DEB7282FD1
:1026C00030E0F901E956FE4F8491F901E555FE4FDE
:1026D0001491F901E154FE4F04910023C9F08823BD
:1026E00021F069830E94F6126981E02FF0E0EE0F7D
:1026F000FF1FED52FE4FA591B4919FB7F8948C91B6
:10270000611103C01095812301C0812B8C939FBF61
:102710000F90DF91CF911F910F910895FC01818D52
:10272000228D90E0805C9F4F821B91098F739927C7
:102730000895FC01918D828D981731F0828DE80FFC
:10274000F11D858D90E008958FEF9FEF0895FC01B6
:10275000918D828D981761F0828DDF01A80FB11DD8
:102760005D968C91928D9F5F9F73928F90E00895FC
:102770008FEF9FEF089581E495E1892B49F080E088
:1027800090E0892B29F00E94411581110C940000E2
:102790000895FC01848DDF01A80FB11DA35ABF4F1E
:1027A0002C91848D90E001968F739927848FA68950
:1027B000B7892C93A089B1898C9180648C93938D77
:1027C000848D981306C00288F389E02D80818F7D67
:1027D00080830895CF93DF93EC01888D8823C9F01F
:1027E000EA89FB89808185FD05C0A889B9898C911A
:1027F00086FD0FC00FB607FCF5CF808185FFF2CFB5
:10280000A889B9898C9185FFEDCFCE010E94C913AB
:10281000E7CFDF91CF910895CF92DF92FF920F9390
:102820001F93CF93DF931F92CDB7DEB76C0181E08A
:10283000D60158968C9358975B969C915B975C96C3
:102840008C915C97981307C05096ED91FC9151972D
:10285000808185FD2EC0F601038D10E00F5F1F4FB4
:102860000F731127F02EF601848DF81211C00FB6E8
:1028700007FCF9CFD6015096ED91FC9151978081DC
:1028800085FFF1CFC60169830E94C9136981EBCF2F
:10289000838DE80FF11DE35AFF4F6083D6015B96ED
:1028A0000C935B975296ED91FC91539780818062D7
:1028B0000CC0D6015696ED91FC91579760835096C7
:1028C000ED91FC91519780818064808381E090E05C
:1028D0000F90DF91CF911F910F91FF90DF90CF90DC
:1028E0000895BF92CF92DF92EF92FF92CF93DF9342
:1028F000EC016A017B01B22E60E970ED83E090E0AB
:10290000A70196010E94DF162150310941095109A2
:102910005695479537952795E889F98982E0808310
:10292000211580E1380798F0E889F989108268E478
:1029300078EE81E090E0A70196010E94DF16215019
:102940003109410951095695479537952795EC85E9
:10295000FD853083EE85FF852083188EEC89FD8907
:10296000B082EA89FB89808180618083EA89FB8962
:10297000808188608083EA89FB8980818068808388
:10298000EA89FB8980818F7D8083DF91CF91FF90E1
:10299000EF90DF90CF90BF900895FC01938D848DD0
:1029A0009813FCCFA289B3898C918F7E8C93A289D6
:1029B000B3898C91877F8C93A289B3898C918F770F
:1029C0008C93A289B3898C918F7D8C93828D818F1A
:1029D00008951F920F920FB60F9211242F938F9389
:1029E0009F93EF93FF93E0916304F09164048081DF
:1029F000E0916904F0916A0482FD12C09081809197
:102A00006C048F5F8F7320916D04821751F0E091F9
:102A10006C04F0E0ED5AFB4F958F80936C0401C07D
:102A20008081FF91EF919F918F912F910F900FBE19
:102A30000F901F9018951F920F920FB60F921124AE
:102A40002F933F934F935F936F937F938F939F93B6
:102A5000AF93BF93EF93FF9383E594E00E94C91374
:102A6000FF91EF91BF91AF919F918F917F916F9166
:102A70005F914F913F912F910F900FBE0F901F903C
:102A8000189583E594E00E948E1321E0892B09F4C8
:102A900020E0822F0895109256041092550488EE7B
:102AA00093E0A0E0B0E08093570490935804A09383
:102AB0005904B0935A0487E092E0909354048093B1
:102AC000530485EC90E09093600480935F0484EC61
:102AD00090E0909362048093610480EC90E0909386
:102AE00064048093630481EC90E090936604809387
:102AF000650482EC90E0909368048093670486EC10
:102B000090E090936A048093690410926C04109290
:102B10006D0410926E0410926F04089508950E943F
:102B2000BE120E948E150E947C05CBEBD3E10E9461
:102B3000DF052097E1F30E94BB13F9CFCF92DF921C
:102B4000EF92FF920F931F93CF93DF936C017A0163
:102B5000EB01E60EF71E00E010E0CE15DF0561F098
:102B60006991D601ED91FC910190F081E02DC601B3
:102B70000995080F191FF1CFC801DF91CF911F915F
:102B80000F91FF90EF90DF90CF9008956115710540
:102B900081F0DB010D900020E9F7AD0141505109B2
:102BA000461B570BDC01ED91FC910280F381E02D77
:102BB000099480E090E00895EF92FF920F931F93A5
:102BC000CF93DF938C01FB01C0E0D0E064917F01E3
:102BD0008FEFE81AF80A662361F0D801ED91FC91B5
:102BE0000190F081E02DC8010995C80FD91FF701A8
:102BF000EDCFCE01DF91CF911F910F91FF90EF901C
:102C000008950C94C615DC01ED91FC910190F081C2
:102C1000E02D099463E172E00C94C6150F931F93A5
:102C2000CF93DF93EC010E94DC158C01CE010E9452
:102C30000A16800F911FDF91CF911F910F91089578
:102C40008F929F92AF92BF92CF92DF92EF92FF92BC
:102C50000F931F93CF93DF93CDB7DEB7A1970FB636
:102C6000F894DEBF0FBECDBF7C01C42EE52FCB0193
:102C7000D22E19A221E02D1510F02AE0D22E8E01BD
:102C80000F5D1F4F8D2C912CA12CB12C6C2D7E2F04
:102C9000A50194010E94DF168C2DD29E801911246B
:102CA000015011098A3014F4805D01C0895CF8017B
:102CB0008083211531054105510521F0C22EE32FF6
:102CC000CA01E4CFB801C7010E94C615A1960FB68C
:102CD000F894DEBF0FBECDBFDF91CF911F910F9152
:102CE000FF90EF90DF90CF90BF90AF909F908F902C
:102CF0000895CF92DF92EF92FF920F931F93CF939D
:102D0000DF93EC016A017B012115310579F4E8813B
:102D1000F9810190F081E02D642FDF91CF911F9117
:102D20000F91FF90EF90DF90CF9009942A303105FA
:102D3000E9F477FF1AC06DE20E9403168C01442764
:102D40005527BA014C195D096E097F092AE0CE01A9
:102D50000E942016800F911FDF91CF911F910F913C
:102D6000FF90EF90DF90CF9008952AE0B701A60181
:102D7000CE01DF91CF911F910F91FF90EF90DF90E7
:102D8000CF900C9420169A01AB01662757FD6095F1
:102D9000762F0C947916AA1BBB1B51E107C0AA1F02
:102DA000BB1FA617B70710F0A61BB70B881F991FEC
:102DB0005A95A9F780959095BC01CD010895A1E29F
:102DC0001A2EAA1BBB1BFD010DC0AA1FBB1FEE1FA5
:102DD000FF1FA217B307E407F50720F0A21BB30BF0
:102DE000E40BF50B661F771F881F991F1A9469F76C
:102DF00060957095809590959B01AC01BD01CF01C8
:102E00000895EE0FFF1F0590F491E02D0994A29F05
:102E1000B001B39FC001A39F700D811D1124911DAE
:102E2000B29F700D811D1124911D089581E090E0E5
:102E3000F8940C944717F999FECF92BD81BDF89A8A
:102E4000992780B50895A8E1B0E042E050E00C94E5
:102E50003917262FF999FECF1FBA92BD81BD20BD2B
:102E60000FB6F894FA9AF99A0FBE01960895DC010C
:102E7000CB01FC01F999FECF06C0F2BDE1BDF89A85
:102E8000319600B40D9241505040B8F70895F8942F
:022E9000FFCF72
:102E920002000000000026012A012B0100000000B0
:102EA200A5012C01427C6D560000000000960481B1
:102EB2000488048A048C0485048E04900492049489
:102EC20004323031352F4465632F31300000000069
:102ED200005F06D90C2606AA0C0B06660600000047
:102EE20000EF05530DE306F105250EFA053F0648EE
:102EF200064B06550638060C0FFC0521072C07B8B1
:102F02000D8B068F06DF06E106A806B406F606DB81
:102F120006AC06B006D9064C00547C433136004854
:102F22007C25000000000019086C07880774076FF1
:102F3200077107910793079507970700000000E0C4
:102F4200086C0780078A078C078507910793079506
:102F5200079707000000006309790799079B077725
:102F6200077D079D079F07A107A30700000000A593
:102F7200076C0788078A078C078E079107930795C6
:102F820007970700000000200AF309C809D009E3E7
:102F920009F209000000000C149E158E13A7139964
:102FA20013EA130D0A006E616E00696E66006F7699
:042FB20066002E0087
:00000001FF
