:100000000C94FC000C9424010C9424010C94EF0239
:100010000C9424010C94C1010C9400120C94240142
:100020000C9424010C940B110C9424010C942401C5
:100030000C9424010C9424010C9424010C942401AC
:100040000C9464120C9424010C94D9140C940B1588
:100050000C9424010C94C70F0C9424010C942401DB
:100060000C946D0B0C94240195059505950595054B
:10007000820595057C057C059505920595057C0511
:100080009505890548495420454E442D53544F50F9
:10009000202F205354414C4C4544006261747465D8
:1000A0007279206D563A20006469616C3A200052E2
:1000B00048253A200074656D703A20006C696768C5
:1000C000743A20006D616E75616C2076616C7665A6
:1000D000206F70656E3A2000736F616B20746573DA
:1000E00074206D6F64653A2000627574746F6E28B9
:1000F00073293A200050414E49432100414C544558
:10010000524E415445204D41494E204C4F4F502EA8
:100110002E2E005265736574733A20004445425593
:1001200047000D0A4F70656E5452563A2000203237
:10013000313A32343A3435002000626F6172642003
:1001400056302E3220524556006D0B060008003006
:100150000033063408351036AA37CC38CC39CC6E8B
:10016000286FF5702071217220730074007573760A
:1001700064770079237A011CC11D401E0A1F0320E9
:1001800096210022DA2374240025DC2A242C282D31
:10019000FA2E296960FFFF0000000800020100003C
:1001A0000304070000000000000000010204081022
:1001B00020408001020408102001020408102004DD
:1001C00004040404040404020202020202030303FE
:1001D00003030300000000250028002B000000009E
:1001E00000240027002A000022032905D105250745
:1001F000CA078B0AC6103B1511241FBECFEFD8E0EB
:10020000DEBFCDBF12E0A0E0B1E0E2E7FEE202C057
:1002100005900D92A432B107D9F724E0A4E2B2E030
:1002200001C01D92A03FB207E1F711E0C8EFD1E095
:1002300004C02297FE010E94F316C83ED107C9F7F9
:100240000E947F150C9437170C94000021E0FC01EC
:1002500022830895089508959F92AF92BF92CF92FE
:10026000DF92EF92FF920F931F93CF93DF93EC01F6
:10027000A62E942EB52E69011A81E42EF52E81E06A
:10028000E816F10429F082E0E816F10489F02BC0A9
:10029000429A61E080E10E940F13113019F083E06F
:1002A0000E94231261E081E10E940F1343980FC066
:1002B000439A61E081E10E940F13123019F083E04C
:1002C0000E94231261E080E10E940F1342986A2D80
:1002D000643008F464E08601292D3B2D44E0CE0112
:1002E0000E94D10C25C0439A62E081E10E940F1365
:1002F000A12EB12C111103C040E061E002C042E028
:1003000064E086019501CE010E94D10C429A62E020
:1003100080E10E940F1320E030E040E061E0CE0178
:100320000E94D10CAE14BF0419F082E00E94231287
:100330009A82DF91CF911F910F91FF90EF90DF9004
:10034000CF90BF90AF909F900895CF93DF93EB0134
:1003500063E086E00E944110219719F428E532E01D
:1003600002C024EF31E041E02817390708F040E0EF
:10037000842FDF91CF9108958EBD0DB407FEFDCF80
:1003800008951F920F920FB60F9211248F939F938F
:1003900089B190913C0280933C029F918F910F9084
:1003A0000FBE0F901F901895CF93CFB7F894809100
:1003B000640082FD03C0CFBF80E00FC02A9A61E0D5
:1003C0008AE00E940F13809164008B7F8093640009
:1003D00080E58CBD81E08DBDCFBFCF910895CF93D7
:1003E000CFB7F8942A9A8CB58F7B8CBDE4E6F0E009
:1003F00080818460808361E08AE00E940F1361E065
:100400008DE00E940F1361E08BE00E940F1362E009
:100410008CE00E940F13CFBFCF910895CF930E941D
:10042000D401C82F2A9887E80E94BC0180E80E9466
:10043000BC012A9A2A9887E80E94BC0180E00E94A9
:10044000BC012A9AC1110E94EF0181E080934E0203
:100450008EE392E09093500280934F02E0914B0222
:10046000F0914C020190F081E02D8BE492E009952F
:100470008823D1F0E0914B02F0914C020084F18589
:10048000E02D8BE492E00995882371F08FB7F89402
:1004900095E09093680092E090936B0091E09093C8
:1004A0006D008FBFCF91089585EF90E00E945005B9
:1004B000EDCFCF92DF92EF92FF920F931F93CF93E6
:1004C000DF931F92CDB7DEB78C01DC0112968C91C1
:1004D0008F3F09F47AC00E94D4012A9893E09EBD10
:1004E0000DB407FEFDCF9EB51EBC0DB407FEFDCFBB
:1004F000EEB4F12CFE2CEE241EBC0DB407FEFDCF95
:100500009EB5E92A2A9A81110E94EF01F7FE07C0E1
:1005100082E0F80182870190F081E02D44C0F4FE72
:1005200054C07801FCE0EF0EF11CD8011C96ED914F
:10053000FC911D970084F185E02DC70109956C01A0
:10054000009709F140E4BC01C8010E943C0F80E41F
:100550008983D8011896ED91FC911997309749F14C
:10056000BE016F5F7F4FC6010995811122C0F8015E
:1005700087818F5F87830484F585E02D0284F3856E
:10058000E02D60E01FC041E0BE016F5F7F4FC801FA
:100590000E943C0FF80186818F5F868384E082870A
:1005A000D801ED91FC910280F381E02DC8010995FD
:1005B0000CC0D8011C96ED91FC911D970284F38527
:1005C000E02D6981C7010995EBCF0F90DF91CF91A5
:1005D0001F910F91FF90EF90DF90CF9008951F92A1
:1005E0000F920FB60F9211242F933F934F935F9367
:1005F0006F937F938F939F93AF93BF93EF93FF93EB
:1006000083B190913D0280933D02982791FF09C0EC
:1006100081FD07C0199905C061E08BE492E00E945A
:100620005902FF91EF91BF91AF919F918F917F916F
:100630006F915F914F913F912F910F900FBE0F904F
:100640001F90189589E491E090933F0280933E02B9
:10065000E0E4F2E080818760877F8F7E8083089569
:100660000F931F93CF93DF930E9491100E94E00499
:100670008091480490912B02981303C00E94EC11C2
:10068000F7CF80932B025C982D9819B181E015FB70
:10069000112710F91827C3B1C170C827D9B1D3FBEE
:1006A000DD27D0F9D827111103C0C11101C081F194
:1006B00089EE90E00E946A11112311F08DE601C0CD
:1006C00080E20E949C11CC2311F08CE601C080E2F4
:1006D0000E949C11DD2311F082E301C080E20E94A0
:1006E0009C110E94DB11112399F080912A0291E064
:1006F000892780932A0288ED90E00E946A118091F8
:100700002A026AE070E090E00E94BA110E94DB11B8
:1007100080912A02811118C0CC2329F0D11114C074
:1007200001E010E004C000E0DD2379F011E084EC8A
:1007300090E00E946A116AE070E0802F90E00E94D1
:10074000BA110E94DB1102C000E010E080912A0281
:10075000811102C00E9423122D9A80912B0290E0F9
:10076000959587958330910529F16CF48130910539
:10077000B9F00297F1F586E693E00E945309EC0187
:1007800085EB90E02DC084309105E1F0059789F567
:1007900081E492E00E948604EC018BE990E020C0A5
:1007A0005C9A2D9A8FE693E00E940908C82F8CEB83
:1007B00090E00FC08AE693E00E94D008C82F8FEA2D
:1007C00090E007C081E693E00E949507C82F88EA71
:1007D00090E00E946A116AE070E08C2F90E005C002
:1007E0000E946A116AE070E0CE010E94BA110E9474
:1007F000DB1180913402811109C086E091E0909371
:1008000028028093270281E08093340280912C0299
:1008100081110BC080E191E0909325028093240226
:100820001092260281E080932C0227E232E040E021
:1008300050E060E084E292E00E942C0110922902D4
:1008400001110CC080912A02882309F447C08091CD
:100850000001909101018230910529F427E232E0F4
:1008600042E050E008C0111102C0019749F427E2AC
:1008700032E041E050E06FEF84E292E00E942C0110
:1008800080912902882399F08091000190910101C3
:10089000029719F481E090E002C082E090E090932A
:1008A00001018093000184E890E00E94511127E249
:1008B00032E040E050E060E084E292E00E942C01EF
:1008C00080912A02882321F08091B20087FFFCCF1B
:1008D0005C9ADF91CF911F910F910895112381F2BE
:1008E000C6CFFC0184819581089584E191E008954B
:1008F00081E0089580E0089580E0089580E0089503
:1009000080E0089581E0089580E00895CF93DF931B
:10091000EC0163E08EE40E94D60F9C0180EC9FEF17
:10092000B9010E94BB1641E1469FC001479F900D4F
:1009300011243B832A839D838C8321E0873938E00F
:10094000930708F020E02E83DF91CF910895CF9395
:10095000C82F5F9A61E087E00E940F13CC2339F023
:10096000CFB7F89486E090E00E944A12CFBFCF91B3
:10097000089560E087E00C940F138091640087FF76
:1009800012C0809164008F77809364008091BC00D6
:1009900084608093BC008DE793E00E944F0A109220
:1009A000B80081E0089580E00895ECEBF0E08081EC
:1009B0008B7F8083E4E6F0E0808180688083089507
:1009C000CF93DF9388E10FB6F89480936000109284
:1009D00060000FBE0E94B90410927A0080E880BFC8
:1009E0008FE380937E0083E080937F00C4E6D0E0B5
:1009F0008881816088830E94EF010E94D5048881EC
:100A000088608883DF91CF910895809161008F7015
:100A1000833011F00E9406170E94E0048091640068
:100A20008F6E80936400809164008F7D809364005A
:100A3000809164008F7B809364001092B00086E008
:100A40008093B10080E28093B60081E080937000D3
:100A500008958DE191E090934202809341021092BB
:100A600046021092450281E0809347020895E0918A
:100A70004B02F0914C020680F781E02D8BE492E06E
:100A800009950E94E00461E084E00E940F135C98E5
:100A900080E00E9423125C9A83E00E942312F7CF29
:100AA0000E9451110E9437058AE391E00E946A1169
:100AB0006AE070E087E090E00E94BA1188E391E07C
:100AC0000E946A1181E391E00E9483118EE291E01D
:100AD0000E946A110C94DB11CF93DF930E940505ED
:100AE000CEE0D0E0219730F1CE30D10528F4FE01E0
:100AF000EC5CFF4F0C94F11660E08C2F0E944813C1
:100B000061E014C061E084E00E940F1361E084E0C2
:100B100006C061E08DE00E940F1361E08DE00E944D
:100B20004813E0CF60E089E002C062E08C2F0E94B1
:100B30000F13D8CF62E080E10E940F1362E081E1E1
:100B40000E940F130E94CB1082E291E00E946A1172
:100B50000E94540586E090E00E940B17C82F61E0C8
:100B6000680F86E090E00E9419178CE191E00E94E6
:100B7000511183E191E00E946A116AE070E08C2FCC
:100B800090E00E94BA110E94DB118CEF90E00E946D
:100B900051110E940E025C9ADF91CF9108950C943E
:100BA000300389E491E09093490280934802EAE49B
:100BB000F2E080818760877F8F7E8083089581E067
:100BC0000895DC01ED91FC910480F581E02D60E059
:100BD00070E0099481E00895EF920F931F93DC0178
:100BE000ED91FC910688F789E02DE12C09951F9184
:100BF0000F91EF900895FC0181859085981750F032
:100C0000891304C0828181110EC004C0981B8581A4
:100C1000891748F4218530E02F5F3F4F838194810D
:100C2000820F931F089580E090E00895FC01828177
:100C3000882359F080850380F481E02DE80FF11DB1
:100C40008191DB018C93CF01089580E090E00895BD
:100C5000FC019FB7F894828512869FBF089583E0B8
:100C6000FB01808380E4FA018083F9018083089589
:100C7000FC0186850895DC011C96ED91FC911D9781
:100C80000480F581E02D0C960994DC011C96ED9111
:100C9000FC911D970680F781E02D0C96099483E066
:100CA000FB01808380E4FA0180830895FC016623C0
:100CB000A1F0818590E0A381B481A80FB91F6C9346
:100CC0000196860F911D278130E02817390708F417
:100CD00080E0818782818F5F828308958EBD0DB40D
:100CE00007FEFDCF8EB508958EBD0DB407FEFDCF76
:100CF00008952A9808950C9479062A9A08950C94D8
:100D00007D06CF93DF9300D0CDB7DEB76A838983AA
:100D10000E947906898180680E9474066A81862F04
:100D20000E9474060F900F90DF91CF910C947D0676
:100D3000862F642F0C94810669E087E00C9481066D
:100D400065E087E00C948106CF93DF931F92CDB7C7
:100D5000DEB769830E9479066981862F8F770E94AA
:100D60006E0680E00E946E0689830E947D0689815E
:100D70000F90DF91CF9108950E94790683E00E9441
:100D80006E0680E00E946E0680E00E946E060C9463
:100D90007D060C94BC0660E087E00C9481060C9400
:100DA000D4010C94EF01CF930E94D401C82F60E8C6
:100DB00087E00E94810660E087E00E948106CC23E4
:100DC00019F0CF910C94EF01CF910895CF93DF9359
:100DD000CFB7F8940E94D401D82F60E087E00E943A
:100DE000810663E088E00E94810660E088E00E945E
:100DF00081060E94790685E80E94740680E00E94C0
:100E0000740680E00E9474060E947D060E94BC0663
:100E1000D11104C0CFBFDF91CF9108950E94EF019F
:100E2000F9CFCF93199906C0CFB7F89460E00E942C
:100E30005902CFBFCF910895199905C061E00E9472
:100E4000590281E0089580E008952FEF20934D022C
:100E500010924E021092500210924F0210925102C4
:100E600010925202109254021092530210925502A4
:100E70008CE38093560281E591E090934C0280933D
:100E80004B021092590281E692E090935B028093AC
:100E90005A0280E480935C0220935D028FEB809382
:100EA0005E0210925F021092600281E491E09093E2
:100EB0005802809357020895FC01828108958CE3C3
:100EC000089587E891E00895FC01848508958CE3F6
:100ED0000895FC0182819381089589E891E0089545
:100EE00081E0653608F080E008958FE891E008958C
:100EF00081E0089580E0089580E0089580E090E02A
:100F0000089580E0089580E0089581E0089580E0EC
:100F1000089581E0089580E0089580E0089580E0DC
:100F2000089581E0089580E008950F931F93CF9373
:100F3000DF93EC0180E00E94A70461E081E00E9461
:100F400041108C010E94B9042FEF33E0201B310BBC
:100F50003C832B836A81C9019695879596958795E1
:100F6000282F681738F4AC015527461B5109483023
:100F700051054CF4261740F4262F30E0281B310988
:100F8000283031050CF08A838A81DF91CF911F913F
:100F90000F9108951092710387E991E09093700387
:100FA00080936F0310927403109275038FEF8093F8
:100FB00076038093770310927B0310927C039DE26B
:100FC000909379039EE390937A0391E19093780351
:100FD00080936C038FEA91E090936B0380936A0394
:100FE00010926D0387EC91E0909367038093660302
:100FF0001092690310926803109263038FED91E0E1
:1010000090936203809361031092650310926403CE
:1010100008950F931F93CF93DF93EC0180E00E941C
:10102000A70463E080E00E9441108C01803843E017
:10103000940760F161E080E00E9441108C0181E43E
:1010400092E00E948604C801F5E0880F991FFA9586
:10105000E1F76091430270914402605F7F4FA5E029
:1010600076956795AA95E1F70E94BB16CB0180584B
:10107000934069E070E00E94BB168B0100581C4F42
:101080000F3F53E0150710F00FEF13E00E94B90473
:101090008B81801721F060E080270E944A10980120
:1010A0003695279536952795822F9A85921750F079
:1010B0001D829C8591110CC09E819F3F49F09F5FCE
:1010C0009E8306C09B85921718F491E09D831E8233
:1010D0001C830B839A818917C9F08A8144E0849F1D
:1010E000C00111240817190728F4AC01401B510B4B
:1010F0008A0102C0081B190B0330110538F08A81E0
:101100002A838D85811102C081E08D878A81DF91DC
:10111000CF911F910F910895CF9360E470E08DE718
:1011200093E00E94730A67EE8DE793E00E94100A35
:101130008DE793E00E94880A41E050E060E470E0AF
:101140008DE793E00E94660A8DE793E00E94B8095C
:10115000181619062CF08091B2008D3FA8F31EC01E
:101160008DE793E00E94C009C82F60E470E08DE72E
:1011700093E00E94730A67EE8DE793E00E94100AE5
:101180006C2F687363608DE793E00E94100A8DE70F
:1011900093E00E94880A81E080936E03CF910895C6
:1011A000AF92BF92CF92DF92EF92FF920F931F9375
:1011B000CF93DF931F92CDB7DEB75C010E94BD04D1
:1011C000C82E80916E03811102C00E948C0860E4D9
:1011D00070E08DE793E00E94730A65EE8DE793E07F
:1011E0000E94100A06E010E00150110941F0DFB63C
:1011F000F89486E090E00E944A12DFBEF5CF8DE7BA
:1012000093E00E94880A43E050E060E470E08DE7DC
:1012100093E00E94660A8DE793E00E94B809039765
:101220002CF48091B2008F3FB1F731C08DE793E08D
:101230000E94C009D82E8DE793E00E94C0098C015E
:10124000C1100E94D50498012C7F3327FD2CE12C7E
:101250002E293F29ADE7B0E00E94F7169AEF980FCC
:10126000F5018281891739F061E0802F8D259983FE
:101270000E944A109981F50192839C3418F081E014
:10128000838304C0913410F4F5011382892F0F90E9
:10129000DF91CF911F910F91FF90EF90DF90CF9052
:1012A000BF90AF900895DF92EF92FF920F931F933C
:1012B000CF93DF937C010E94BD04D82E80916E03F2
:1012C000811102C00E948C0860E470E08DE793E019
:1012D0000E94730A63EE8DE793E00E94100A81E09A
:1012E0000E9423128DE793E00E94880A43E050E0B9
:1012F00060E470E08DE793E00E94660A8DE793E07A
:101300000E94B80903973CF48091B2008D3FB0F37E
:1013100080E090E022C08DE793E00E94C009D82FC2
:1013200080E0C82F8DE793E00E94C0098C010C7FFC
:1013300011270C2B1D2BD1100E94D5049801A7EF6B
:10134000B5E10E94F716B1E1959587957795679578
:10135000BA95D1F7CB018E5E9240F70193838283D9
:10136000DF91CF911F910F91FF90EF90DF90089543
:101370008091AD0390E02091AE03821B9109089506
:101380002091AE038091AD03281750F4E22FF0E0D6
:10139000E155FC4F808190E02F5F2093AE030895CC
:1013A0008FEF9FEF0895E091AE038091AD03E817B2
:1013B00030F4F0E0E155FC4F808190E008958FEF2C
:1013C0009FEF08950895CF92DF92EF92FF920F93CF
:1013D0001F93CF93DF937C01CB018A012091890376
:1013E000222389F0EB016B01C40ED51ECC15DD055F
:1013F00069F06991D701ED91FC910190F081E02DA8
:10140000C7010995F3CF642F0E94440BC801DF91F7
:10141000CF911F910F91FF90EF90DF90CF900895A3
:10142000CF93DF931F92CDB7DEB7698320918903F5
:101430002223D1F020918A03203240F021E030E0D5
:10144000FC013383228380E090E015C080918B0300
:10145000E82FF0E0E457FC4F998190838F5F8093F1
:101460008B0380938A0305C061E0CE0101960E9440
:10147000440B81E090E00F90DF91CF910895FC0143
:101480001382128248EE53E060E070E0448355839B
:101490006683778387EF91E091838083089510922C
:1014A000AE031092AD0310928B0310928A030C943A
:1014B0008F0A862F413208F040E26FEA73E00E9403
:1014C000AD0A1092AE038093AD03089521E00C9411
:1014D000590A81E0809389036093AC0310928B03D7
:1014E00010928A0308950C94690A0F93062F21E045
:1014F00040918A036CE873E08091AC030E94F10A8A
:1015000010928B0310928A03109289030F91089511
:1015100061E00C94750A8DE793E00C943F0A1092F9
:101520003C0481E080933A041092390461E082E146
:101530000E94481361E083E10E944813E9EBF0E068
:1015400080818E7F808380818D7F80838DEF8093EB
:10155000B80085E48093BC000895413208F03FC094
:1015600090913C049111FCCF91E090933C04209326
:101570003A042FEF2093CF0310921404240F2093EA
:10158000130490933B0490913B04880F892B809324
:101590003B0480913904813041F4109239048091E8
:1015A0003B048093BB0085EC01C085EE8093BC00BA
:1015B00080913C048130E1F380911404841710F48D
:1015C0004091140425E134E0FB01D9018A2F821BEC
:1015D000841718F48D918193F9CF842F089580E0BA
:1015E00008950F93413208F046C090913C04911148
:1015F000FCCF92E090933C0400933A049FEF9093C9
:10160000CF031092140440931304FB0165E174E0CE
:10161000DB019A2F961B941718F491919D93F9CFA3
:1016200010923B0490913B04880F892B80933B04DC
:1016300080913904813041F41092390480913B0447
:101640008093BB0085EC01C085EE8093BC00222313
:1016500021F080913C048230E1F38091CF038F3FF1
:1016600061F08091CF03803251F08091CF038033BD
:1016700041F483E007C081E005C080E003C082E060
:1016800001C084E00F910895613298F420913C04E8
:10169000243089F46093F103FC0183EF93E0DC01D3
:1016A0002A2F281B261718F421912D93F9CF80E0BB
:1016B000089581E0089582E0089585ED8093BC004F
:1016C0008091BC0084FDFCCF10923C04089585EC11
:1016D0008093BC0010923C0408951F920F920FB6A5
:1016E0000F9211242F933F934F935F936F937F93A8
:1016F0008F939F93AF93BF93EF93FF938091B90024
:10170000887F803609F49CC068F5883209F45BC094
:1017100090F4803109F454C038F4882309F4F5C0FA
:10172000883009F44DC0F5C0883109F44CC08032CE
:1017300009F45DC0EEC0803409F468C048F4803319
:1017400009F455C0883309F0E4C08093CF03A8C0E2
:10175000803509F44FC0883509F45DC0883409F03C
:10176000D8C0D5C0883909F4C6C0A8F4883709F4B0
:1017700067C038F4883609F463C0803709F460C064
:10178000C8C0883809F4B7C0803909F45FC0803810
:1017900009F0BFC05BC0803B09F485C038F4803AD3
:1017A00009F466C0883A09F47EC0B3C0803C09F4ED
:1017B000A6C0883C09F4A3C0883B09F489C0A9C02D
:1017C00080913B0410C090911404809113049817E9
:1017D00070F5E091140481E08E0F80931404F0E022
:1017E000EB5EFB4F80818093BB0085EC85C08093CE
:1017F000CF038DC0E091140481E08E0F8093140418
:101800008091BB00F0E0EB5EFB4F8083909114046D
:10181000809113046DC0E091140481E08E0F8093D9
:1018200014048091BB00F0E0EB5EFB4F808380915D
:101830003A0481116CC081E08093390484EA60C06D
:1018400083E080933C041092D003CFCF8091D003EB
:10185000803208F050C0E091D00381E08E0F809379
:10186000D0038091BB00F0E0EF52FC4F8083BDCFEE
:101870008091D003803230F4E091D003F0E0EF5259
:10188000FC4F10820E945D0B6091D00370E0E091EC
:101890003504F091360481ED93E009951092D00360
:1018A0000E94670B36C084E080933C041092F203E0
:1018B0001092F103E0913704F0913804099580917A
:1018C000F103811105C081E08093F1031092F303CD
:1018D000E091F20381E08E0F8093F203F0E0ED508F
:1018E000FC4F80818093BB009091F2038091F103C3
:1018F000981708F47ACF85E88093BC000AC085EC7D
:101900008093BC0010923C0404C01092CF030E944C
:101910005D0BFF91EF91BF91AF919F918F917F915F
:101920006F915F914F913F912F910F900FBE0F904C
:101930001F901895FC0182818823B9F04FB7F89465
:10194000808590E0A381B481A80FB91F2C910196E6
:10195000820F911D278130E02817390708F480E0B5
:1019600080878281815082834FBF0895FC018185E9
:101970009085981760F0891305C0928181E09111DC
:1019800007C005C0981B81E02581291708F480E075
:101990000895CF93CFB7F8940E94B60CCFBFCF91E4
:1019A00008959F92AF92BF92CF92DF92EF92FF92F3
:1019B0000F931F93CF93DF936C017901E80180911E
:1019C000B2008A3B08F050C099EB981B941708F4BA
:1019D0004BC001E02115310509F000E011E022E0E3
:1019E000E216F10409F010E0942E980EB62E961728
:1019F00008F4B92EB80EA090B200A816E1F30111B8
:101A000008C0E881F9810480F581E02D612FCE01C5
:101A10000995A91410F48A2DEECF9B1438F5D60140
:101A2000ED91FC910190F081E02DB701C60109957F
:101A3000811112C09090B2009A1489F3011108C06C
:101A4000E881F9810480F581E02D612FCE010995AF
:101A50009B1460F4A92CE3CFE881F9810190F08117
:101A6000E02D612FCE01099581E001C080E0DF917A
:101A7000CF911F910F91FF90EF90DF90CF90BF908B
:101A8000AF909F9008950F931F93CF93DF93EC0136
:101A9000E881F98104A4F5A5E02D09958A818F3F9D
:101AA00009F451C01FB7F894E881F98104A0F5A1A9
:101AB000E02DCE010995082FE881F98100A4F1A558
:101AC000E02D43E068E0CE010995E881F98100A4AA
:101AD000F1A5E02D40E068E0CE0109954B85E88155
:101AE000F98100A4F1A5E02D6EE7CE010995E8810A
:101AF000F98100A4F1A5E02D40E165E0CE01099552
:101B0000E881F98100A4F1A5E02D40E066E0CE0176
:101B10000995E881F98104A8F5A9E02DCE01099580
:101B2000E881F98102A8F3A9E02DCE010995011100
:101B300002C01FBF08C0E881F98106A0F7A1E02D0F
:101B4000CE010995F6CFDF91CF911F910F910895A6
:101B5000DC01ED91FC9104A4F5A5E02D099581E04F
:101B600008950F931F93CF93DF93EC01E881F981E0
:101B700004A0F5A1E02D0995082FE881F98102A4C0
:101B8000F3A5E02D60E0CE010995883059F4E88195
:101B9000F98102A4F3A5E02D61E0CE01099511E0E1
:101BA000863009F010E0002339F0E881F98106A0C1
:101BB000F7A1E02DCE010995812FDF91CF911F91E3
:101BC0000F910895EF92FF920F931F93CF93DF939E
:101BD000EC018B01FFB6F894E881F98104A0F5A12E
:101BE000E02D0995E82EF8016491319644916F3FFC
:101BF00059F0A881B9819896ED91FC919997CE0101
:101C000009950E5F1F4FEFCFEE2039F0E881F98183
:101C100006A0F7A1E02DCE010995FFBEDF91CF917F
:101C20001F910F91FF90EF9008951F93CF93DF9333
:101C3000EC018B81813011F010E014C0CE010E94C4
:101C4000B10D182F8823C1F3EC81FD816081718172
:101C5000CE010E94E20DE881F98104A4F5A5E02DF2
:101C6000CE010995812FDF91CF911F910895CF93D8
:101C7000DF93EC01E881F98100A4F1A5E02D41E0BA
:101C800068E00995E881F98100A4F1A5E02D40E024
:101C900068E0CE01DF91CF910994EF92FF920F930C
:101CA0001F93CF93DF9300D01F92CDB7DEB77C0197
:101CB0001FB7F894DC01ED91FC9104A0F5A1E02D93
:101CC00049836A837B830995082FC7010E94370ED9
:101CD000D701ED91FC9100A0F1A1E02DC70109957C
:101CE0008FEF8EBD7B816A8149810DB407FEFDCFE8
:101CF000FB01415030F081918EBD0DB407FEFDCF48
:101D0000F8CFD701ED91FC9102A0F3A1E02DC7011E
:101D10000995002341F0D701ED91FC9106A0F7A1B0
:101D2000E02DC70109951FBF0F900F900F90DF9115
:101D3000CF911F910F91FF90EF900895EF92FF9236
:101D40000F931F93CF93DF93EC01E881F98104A0F7
:101D5000F5A1E02D0995F82E1FB7F894E881F981D7
:101D600000A4F1A5E02D40E065E0CE010995E881F1
:101D7000F98100A4F1A5E02D40E066E0CE010995CF
:101D8000E881F98104A8F5A9E02DCE010995E88143
:101D9000F98100A8F1A9E02DCE0109951FBF8AEFB6
:101DA0008A9501F0E9F709EE13E08AEFE82E015079
:101DB000110981F08E2D8A9501F0E9F7E881F9810A
:101DC00002A4F3A5E02D63E0CE01099582FFEFCFD9
:101DD00011E001C010E0FF2039F0E881F98106A090
:101DE000F7A1E02DCE010995812FDF91CF911F91B1
:101DF0000F91FF90EF900895CF92DF92FF920F9393
:101E00001F93CF93DF9300D01F92CDB7DEB76C0145
:101E1000DC01ED91FC9104A4F5A5E02D4B836983D1
:101E20007A8309954B8169817A81C6010E944D0EA2
:101E3000C6010E949E0EF82E043011054CF080E081
:101E40000E942312C6010E949E0E811101C0F12C36
:101E5000D601ED91FC910280F381E02DC601099538
:101E60008F2D0F900F900F90DF91CF911F910F91B9
:101E7000FF90DF90CF900895CF92DF92EF92FF9284
:101E80000F931F93CF93DF931F92CDB7DEB76C01F3
:101E90008B01FFB6F894DC01ED91FC9104A0F5A153
:101EA000E02D49830995E82ED601ED91FC9106A419
:101EB000F7A5E02DC6010995D601ED91FC9100A092
:101EC000F1A1E02DC60109958FE78EBD49810DB4C2
:101ED00007FEFDCF8EB5F80150E0CF01801B910BBE
:101EE000841795073CF41EBC0DB407FEFDCF8EB5DC
:101EF0008193F3CFD601ED91FC9102A0F3A1E02DE7
:101F0000C6010995D601ED91FC9100A4F1A5E02D43
:101F100043E068E0C6010995D601ED91FC9100A46B
:101F2000F1A5E02D40E068E0C6010995D601ED91EC
:101F3000FC9100A4F1A5E02D40E065E0C601099503
:101F4000D601ED91FC9100A4F1A5E02D40E066E002
:101F5000C6010995D601ED91FC9104A8F5A9E02DE3
:101F6000C6010995EE2041F0D601ED91FC9106A045
:101F7000F7A1E02DC6010995FFBE0F90DF91CF912B
:101F80001F910F91FF90EF90DF90CF9008951F92D7
:101F90000F920FB60F9211248F9381E080933E042D
:101FA0008F910F900FBE0F901F9018951F93CF9396
:101FB000DF93D82FC62F0E945510182F90B7906826
:101FC00090BFD0937C00C2301CF480E00E942312AA
:101FD00093B7917F926093BF10927B0090917A00AB
:101FE000C23014F0906201C09F7D90937A0090916E
:101FF0007A00986090937A0090917A009064909320
:102000007A005FEF4FEFC150C7FD16C010923E043B
:1020100080913E04811108C093B7916093BF889569
:1020200093B79E7F93BFF4CF2091780030917900D1
:10203000351315C0241313C090917A00977F9093A5
:102040007A0090917A009F7D90937A00D0917800E9
:10205000C0917900112371F00E9467100BC090911C
:102060003D04432F4227475F9695940F90933D047C
:10207000A901C9CF8D2F90E09C2BDF91CF911F91AB
:10208000089590E4699F90011124877063E0822B8A
:102090000C94D60F4091B20066B590913F049F5FBB
:1020A00090933F0489270C94AB108091640080FFCB
:1020B0000CC0809164008E7F8093640080917A00D0
:1020C000806880937A0081E0089580E00895EAE7CF
:1020D000F0E080818F778083E4E6F0E080818160AA
:1020E000808308958091640081FD08958091C000EF
:1020F00085FD06C08091C00080648093C000F6CF4B
:102100008091C00086FFFCCF08958091C00085FFBC
:10211000FCCF83E594E00E94DA130C9472100C94C7
:1021200085108091640081FD08C083E594E00E94E1
:10213000DA1383E594E00E94BD1462E080E00E941F
:102140000F1362E081E00E940F13809164008260AF
:102150008093640008959091430420914204622783
:10216000209141044227209140042F5F2093400496
:1021700092279427982790934304690F6093420411
:102180006695640F69276093410408958DE395E097
:10219000809340040895CF93CFB7F89488E090E0FF
:1021A0000E9413178F3F2FEF920721F09093450461
:1021B000809344048AE090E00E940B17482FCFBF21
:1021C000803C30F5282F30E083E0359527958A95BF
:1021D000E1F75CE3529FC001539F900D1124242F1F
:1021E0002770213049F030F0233041F0273081F45E
:1021F000089605C0C59603C0869601C047962FB7BE
:10220000F89490934704809346042FBF81E001C067
:1022100080E0CF9108951F920F920FB60F92112474
:102220002F938F939F93809148048E5F8C33C8F0D7
:1022300080914604909147040196803A25E09207E8
:1022400058F0809144049091450401969093450480
:102250008093440480E090E0909347048093460488
:1022600080E0809348049F918F912F910F900FBE33
:102270000F901F9018958091640081FF10C080918D
:1022800064008D7F8093640026E040EC52E160E0C2
:1022900070E083E594E00E94611481E0089580E09D
:1022A00008951F93CF93DF93EC010E943B11182FE9
:1022B000BE0183E594E00E94FE150E948F10112359
:1022C00029F0DF91CF911F910C949110DF91CF9164
:1022D0001F9108951F93CF93DF93EC010E943B1150
:1022E000182FBE0183E594E00E94CC150E948F1048
:1022F000112329F0DF91CF911F910C949110DF9160
:10230000CF911F9108951F93CF93DF93EC010E940B
:102310003B11182FBE0183E594E00E94F1150E9445
:102320008F10112329F0DF91CF911F910C94911000
:10233000DF91CF911F9108951F93CF93DF931F9249
:10234000CDB7DEB789830E943B11182F698183E5E1
:1023500094E00E94F3150E948F10112331F00F902A
:10236000DF91CF911F910C9491100F90DF91CF913D
:102370001F910895FF920F931F93CF93DF93EC016A
:102380008B010E943B11F82EA801BE0183E594E069
:102390000E94B3160E948F10FF2039F0DF91CF9179
:1023A0001F910F91FF900C949110DF91CF911F918D
:1023B0000F91FF900895CF930E943B11C82F83E5A2
:1023C00094E00E94FA150E948F10CC2319F0CF914F
:1023D0000C949110CF91089583B7817F866083BF5D
:1023E000F89483B7816083BF85B7806685BF8F7D92
:1023F00085BF7894889583B78E7F83BF789408953E
:102400001F920F920FB60F9211248F939F93CF9329
:10241000DF931F92CDB7DEB788E10FB6F8948093B3
:102420006000109260000FBECE010196806880931C
:1024300049040F90DF91CF919F918F910F900FBE24
:102440000F901F9018951092490483FF02C098E2E4
:1024500001C098E08770892B28E130E00FB6F8942E
:10246000A895209360000FBE80936000809160006B
:102470008064809360000E94EC118091490488235D
:10248000D1F388E10FB6F894809360001092600059
:102490000FBE08954091610028E030E050E80FB68B
:1024A000F89450936100209361000FBE0197F1F7FB
:1024B0004F70842F90E020E80FB6F89420936100CD
:1024C000809361000FBE08951F920F920FB60F9276
:1024D00011242F933F938F939F93AF93BF9380913A
:1024E0004B0490914C04A0914D04B0914E04309156
:1024F0004A0420E3230F2D3720F44096A11DB11D7F
:1025000005C023EB230F4196A11DB11D20934A0462
:1025100080934B0490934C04A0934D04B0934E04CD
:1025200080914F0490915004A0915104B0915204B5
:102530000196A11DB11D80934F0490935004A09368
:102540005104B0935204BF91AF919F918F913F91ED
:102550002F910F900FBE0F901F901895789484B50F
:10256000826084BD84B5816084BD85B5826085BD8F
:1025700085B5816085BDEEE6F0E080818160808375
:10258000E1E8F0E01082808182608083E0E8F0E0A2
:10259000808181608083E1EBF0E0808184608083D2
:1025A000E0EBF0E0808181608083EAE7F0E0808109
:1025B0008B7F808380818260808380818160808343
:1025C0008081806880831092C1000895833081F0FB
:1025D00028F4813099F08230A1F008958730A9F075
:1025E0008830B9F08430D1F4809180008F7D03C0B1
:1025F000809180008F7780938000089584B58F77D5
:1026000002C084B58F7D84BD08958091B0008F771E
:1026100003C08091B0008F7D8093B0000895CF9368
:10262000DF9390E0FC01E555FE4F2491FC01E1545D
:10263000FE4F8491882349F190E0880F991FFC0197
:10264000E352FE4FA591B4918D529E4FFC01C5916E
:10265000D4919FB7611108C0F8948C912095822382
:102660008C93888182230AC0623051F4F8948C9153
:10267000322F309583238C938881822B888304C0EA
:10268000F8948C91822B8C939FBFDF91CF9108950A
:102690000F931F93CF93DF931F92CDB7DEB7282FF1
:1026A00030E0F901E956FE4F8491F901E555FE4FFE
:1026B0001491F901E154FE4F04910023C9F08823DD
:1026C00021F069830E94E6126981E02FF0E0EE0FAD
:1026D000FF1FED52FE4FA591B4919FB7F8948C91D6
:1026E000611103C01095812301C0812B8C939FBF82
:1026F0000F90DF91CF911F910F910895FC01818D73
:10270000228D90E0805C9F4F821B91098F739927E7
:102710000895FC01918D828D981731F0828DE80F1C
:10272000F11D858D90E008958FEF9FEF0895FC01D6
:10273000918D828D981761F0828DDF01A80FB11DF8
:102740005D968C91928D9F5F9F73928F90E008951C
:102750008FEF9FEF089581E395E1892B49F080E0A9
:1027600090E0892B29F00E94311581110C94000012
:102770000895FC01848DDF01A80FB11DA35ABF4F3E
:102780002C91848D90E001968F739927848FA68970
:10279000B7892C93A089B1898C9180648C93938D97
:1027A000848D981306C00288F389E02D80818F7D87
:1027B00080830895CF93DF93EC01888D8823C9F03F
:1027C000EA89FB89808185FD05C0A889B9898C913A
:1027D00086FD0FC00FB607FCF5CF808185FFF2CFD5
:1027E000A889B9898C9185FFEDCFCE010E94B913DC
:1027F000E7CFDF91CF910895CF92DF92FF920F93B1
:102800001F93CF93DF931F92CDB7DEB76C0181E0AA
:10281000D60158968C9358975B969C915B975C96E3
:102820008C915C97981307C05096ED91FC9151974D
:10283000808185FD2EC0F601038D10E00F5F1F4FD4
:102840000F731127F02EF601848DF81211C00FB608
:1028500007FCF9CFD6015096ED91FC9151978081FC
:1028600085FFF1CFC60169830E94B9136981EBCF5F
:10287000838DE80FF11DE35AFF4F6083D6015B960D
:102880000C935B975296ED91FC91539780818062F7
:102890000CC0D6015696ED91FC91579760835096E7
:1028A000ED91FC91519780818064808381E090E07C
:1028B0000F90DF91CF911F910F91FF90DF90CF90FC
:1028C0000895BF92CF92DF92EF92FF92CF93DF9362
:1028D000EC016A017B01B22E60E970ED83E090E0CB
:1028E000A70196010E94CF162150310941095109D3
:1028F0005695479537952795E889F98982E0808331
:10290000211580E1380798F0E889F989108268E498
:1029100078EE81E090E0A70196010E94CF16215049
:102920003109410951095695479537952795EC8509
:10293000FD853083EE85FF852083188EEC89FD8927
:10294000B082EA89FB89808180618083EA89FB8982
:10295000808188608083EA89FB89808180688083A8
:10296000EA89FB8980818F7D8083DF91CF91FF9001
:10297000EF90DF90CF90BF900895FC01938D848DF0
:102980009813FCCFA289B3898C918F7E8C93A289F6
:10299000B3898C91877F8C93A289B3898C918F772F
:1029A0008C93A289B3898C918F7D8C93828D818F3A
:1029B00008951F920F920FB60F9211242F938F93A9
:1029C0009F93EF93FF93E0916304F09164048081FF
:1029D000E0916904F0916A0482FD12C090818091B7
:1029E0006C048F5F8F7320916D04821751F0E0911A
:1029F0006C04F0E0ED5AFB4F958F80936C0401C09E
:102A00008081FF91EF919F918F912F910F900FBE39
:102A10000F901F9018951F920F920FB60F921124CE
:102A20002F933F934F935F936F937F938F939F93D6
:102A3000AF93BF93EF93FF9383E594E00E94B913A4
:102A4000FF91EF91BF91AF919F918F917F916F9186
:102A50005F914F913F912F910F900FBE0F901F905C
:102A6000189583E594E00E947E1321E0892B09F4F8
:102A700020E0822F0895109256041092550488EE9B
:102A800093E0A0E0B0E08093570490935804A093A3
:102A90005904B0935A0487E092E0909354048093D1
:102AA000530485EC90E09093600480935F0484EC81
:102AB00090E0909362048093610480EC90E09093A6
:102AC00064048093630481EC90E0909366048093A7
:102AD000650482EC90E0909368048093670486EC30
:102AE00090E090936A048093690410926C041092B1
:102AF0006D0410926E0410926F04089508950E9460
:102B0000AE120E947E150E946C05CBEAD3E10E94B2
:102B1000CF052097E1F30E94AB13F9CFCF92DF925C
:102B2000EF92FF920F931F93CF93DF936C017A0183
:102B3000EB01E60EF71E00E010E0CE15DF0561F0B8
:102B40006991D601ED91FC910190F081E02DC601D3
:102B50000995080F191FF1CFC801DF91CF911F917F
:102B60000F91FF90EF90DF90CF9008956115710560
:102B700081F0DB010D900020E9F7AD0141505109D2
:102B8000461B570BDC01ED91FC910280F381E02D97
:102B9000099480E090E00895EF92FF920F931F93C5
:102BA000CF93DF938C01FB01C0E0D0E064917F0103
:102BB0008FEFE81AF80A662361F0D801ED91FC91D5
:102BC0000190F081E02DC8010995C80FD91FF701C8
:102BD000EDCFCE01DF91CF911F910F91FF90EF903C
:102BE00008950C94B615DC01ED91FC910190F081F3
:102BF000E02D099463E172E00C94B6150F931F93D6
:102C0000CF93DF93EC010E94CC158C01CE010E9482
:102C1000FA15800F911FDF91CF911F910F910895A9
:102C20008F929F92AF92BF92CF92DF92EF92FF92DC
:102C30000F931F93CF93DF93CDB7DEB7A1970FB656
:102C4000F894DEBF0FBECDBF7C01C42EE52FCB01B3
:102C5000D22E19A221E02D1510F02AE0D22E8E01DD
:102C60000F5D1F4F8D2C912CA12CB12C6C2D7E2F24
:102C7000A50194010E94CF168C2DD29E801911249B
:102C8000015011098A3014F4805D01C0895CF8019B
:102C90008083211531054105510521F0C22EE32F16
:102CA000CA01E4CFB801C7010E94B615A1960FB6BC
:102CB000F894DEBF0FBECDBFDF91CF911F910F9172
:102CC000FF90EF90DF90CF90BF90AF909F908F904C
:102CD0000895CF92DF92EF92FF920F931F93CF93BD
:102CE000DF93EC016A017B012115310579F4E8815C
:102CF000F9810190F081E02D642FDF91CF911F9138
:102D00000F91FF90EF90DF90CF9009942A3031051A
:102D1000E9F477FF1AC06DE20E94F3158C01442795
:102D20005527BA014C195D096E097F092AE0CE01C9
:102D30000E941016800F911FDF91CF911F910F916C
:102D4000FF90EF90DF90CF9008952AE0B701A601A1
:102D5000CE01DF91CF911F910F91FF90EF90DF9007
:102D6000CF900C9410169A01AB01662757FD609521
:102D7000762F0C946916AA1BBB1B51E107C0AA1F32
:102D8000BB1FA617B70710F0A61BB70B881F991F0C
:102D90005A95A9F780959095BC01CD010895A1E2BF
:102DA0001A2EAA1BBB1BFD010DC0AA1FBB1FEE1FC5
:102DB000FF1FA217B307E407F50720F0A21BB30B10
:102DC000E40BF50B661F771F881F991F1A9469F78C
:102DD00060957095809590959B01AC01BD01CF01E8
:102DE0000895EE0FFF1F0590F491E02D0994A29F26
:102DF000B001B39FC001A39F700D811D1124911DCF
:102E0000B29F700D811D1124911D089581E090E005
:102E1000F8940C943717F999FECF92BD81BDF89ABA
:102E2000992780B50895A8E1B0E042E050E00C9405
:102E30002917262FF999FECF1FBA92BD81BD20BD5B
:102E40000FB6F894FA9AF99A0FBE01960895DC012C
:102E5000CB01FC01F999FECF06C0F2BDE1BDF89AA5
:102E6000319600B40D9241505040B8F70895F8944F
:022E7000FFCF92
:102E720002000000000026012A012B0100000000D0
:102E8200A5012C01427C6D560000000000860471F1
:102E92000478047A047C0475047E04800482048429
:102EA20004323031352F4465632F31300000000089
:102EB200004F06C90C16069A0CFB055606000000C8
:102EC20000DF05430DD306E105150EEA052F06388E
:102ED200063B0645062806FC0EEC0511071C07A852
:102EE2000D7B067F06CF06D1069806A406E606CB22
:102EF200069C06A006C9064C00547C4331360048A5
:102F02007C25000000000009085C07780764075F61
:102F1200076107810783078507870700000000D044
:102F2200085C0770077A077C0775078107830785A6
:102F3200078707000000005309690789078B0767A5
:102F4200076D078D078F0791079307000000009513
:102F5200075C0778077A077C077E07810783078566
:102F620007870700000000100AE309B809C009D367
:102F720009E20900000000FC138E157E13971389E5
:102F820013DA130D0A006E616E00696E66006F76C9
:042F920066002E00A7
:00000001FF
