:100000000C94D7000C94FF000C94FF000C94340265
:100010000C94FF000C9406010C9417100C94FF0034
:100020000C94FF000C94220F0C94FF000C94FF0022
:100030000C94FF000C94FF000C94FF000C94FF0044
:100040000C947B100C94FF000C94F0120C9422136F
:100050000C94FF000C94DF0D0C94FF000C94FF0037
:100060000C94F7090C94FF001F041F041F041F04C5
:100070000C041F04060406041F041C041F040604C9
:100080001F0413046469616C3A20005248253A2029
:100090000074656D703A20006C696768743A2000DE
:1000A000627574746F6E2873293A200050414E496E
:1000B000432100414C5445524E415445204D414945
:1000C0004E204C4F4F502E2E2E0052657365747388
:1000D0003A20004445425547000D0A4F70656E5462
:1000E00052563A20002031343A32363A323100202A
:1000F00000626F6172642056302E322052455600E5
:100100006D0B06000800300033063408351036AA9F
:1001100037CC38CC39CC6E286FF570207121722025
:100120007300740075737664770079237A011CC1BB
:100130001D401E0A1F032096210022DA237424008A
:1001400025DC2A242C282DFA2E296960FFFF0000C7
:100150000008000201000003040700000000000086
:100160000000010204081020408001020408102051
:10017000010204081020040404040404040402021C
:100180000202020203030303030300000000250030
:1001900028002B0000000000240027002A0067022E
:1001A000B3035B04AF0554061509DD0E5213112489
:1001B0001FBECFEFD8E0DEBFCDBF12E0A0E0B1E0C0
:1001C000E0EAFAE202C005900D92A031B107D9F73A
:1001D00024E0A0E1B2E001C01D92A53CB207E1F726
:1001E00011E0CEEAD1E004C02297FE010E940A1578
:1001F000CE39D107C9F70E9496130C944E150C9472
:1002000000008EBD0DB407FEFDCF08951F920F9222
:100210000FB60F9211248F939F9389B19091110281
:10022000809311029F918F910F900FBE0F901F909E
:100230001895CF93CFB7F8948091640082FD03C0E6
:10024000CFBF80E00FC02A9A61E08AE00E942611A9
:10025000809164008B7F8093640080E58CBD81E099
:100260008DBDCFBFCF910895CF93CFB7F8942A9A81
:100270008CB58F7B8CBDE4E6F0E080818460808368
:1002800061E08AE00E94261161E08DE00E94261163
:1002900061E08BE00E94261162E08CE00E94261152
:1002A000CFBFCF910895CF930E941901C82F2A98EC
:1002B00087E80E94010180E80E9401012A9A2A9899
:1002C00087E80E94010180E00E9401012A9AC11181
:1002D0000E94340181E08093230283E192E09093B5
:1002E000250280932402E0912002F09121020190E6
:1002F000F081E02D80E292E009958823D1F0E09131
:100300002002F09121020084F185E02D80E292E04C
:100310000995882371F08FB7F89495E09093680061
:1003200092E090936B0091E090936D008FBFCF911E
:1003300008958CEA90E00E94DA03EDCFCF92DF922D
:10034000EF92FF920F931F93CF93DF931F92CDB73E
:10035000DEB78C01DC0112968C918F3F09F47AC0D4
:100360000E9419012A9893E09EBD0DB407FEFDCFAF
:100370009EB51EBC0DB407FEFDCFEEB4F12CFE2CD5
:10038000EE241EBC0DB407FEFDCF9EB5E92A2A9AC5
:1003900081110E943401F7FE07C082E0F8018287D4
:1003A0000190F081E02D44C0F4FE54C07801FCE0DF
:1003B000EF0EF11CD8011C96ED91FC911D97008465
:1003C000F185E02DC70109956C01009709F140E422
:1003D000BC01C8010E94540D80E48983D80118969D
:1003E000ED91FC911997309749F1BE016F5F7F4FF6
:1003F000C6010995811122C0F80187818F5F87832B
:100400000484F585E02D0284F385E02D60E01FC0B3
:1004100041E0BE016F5F7F4FC8010E94540DF8019B
:1004200086818F5F868384E08287D801ED91FC917D
:100430000280F381E02DC80109950CC0D8011C96FB
:10044000ED91FC911D970284F385E02D6981C70130
:100450000995EBCF0F90DF91CF911F910F91FF90F6
:10046000EF90DF90CF9008951F920F920FB60F92EA
:1004700011242F933F934F935F936F937F938F93A9
:100480009F93AF93BF93EF93FF9383B19091120229
:1004900080931202982791FF09C081FD07C0199926
:1004A00005C061E080E292E00E949E01FF91EF9121
:1004B000BF91AF919F918F917F916F915F914F917C
:1004C0003F912F910F900FBE0F901F90189580E0D5
:1004D00091E09093140280931302E5E1F2E08081B1
:1004E0008760877F8F7E808308951F93CF93DF93EC
:1004F0000E94A80E0E946A0380911D049091100230
:10050000981303C00E940310F7CF809310025C98E9
:100510002D9819B181E015FB112710F91827C3B1E7
:10052000C170C827D9B1D3FBDD27D0F9D827111165
:1005300003C0C11101C0D9F080EA90E00E94810F90
:10054000112311F08DE601C080E20E94B30FCC238D
:1005500011F08CE601C080E20E94B30FDD2311F0A0
:1005600082E301C080E20E94B30F0E94F20F2D9A35
:100570008091100290E09595879582309105C1F0A9
:1005800054F4019799F584E493E00E949306C82FF0
:1005900088E990E021C083309105B9F0049731F5E6
:1005A00086E393E00E941F06C82F84E890E014C001
:1005B0008BE393E00E94DD07EC0181E990E00E946B
:1005C000810F6AE070E0CE010DC08FE393E00E94DE
:1005D0005A07C82F8BE890E00E94810F6AE070E014
:1005E0008C2F90E00E94D10F0E94F20F5C9ADF9155
:1005F000CF911F910895FC0184819581089580E039
:1006000091E0089581E0089580E0089580E00895E4
:1006100080E0089580E0089581E0089580E00895E5
:10062000CF93DF93EC0163E08EE40E94EE0D9C011A
:1006300080EC9FEFB9010E94D21441E1469FC001B6
:10064000479F900D11243B832A839D838C8321E057
:10065000873938E0930708F020E02E83DF91CF91AF
:100660000895CF93C82F5F9A61E087E00E9426111A
:10067000CC2339F0CFB7F89486E090E00E94611067
:10068000CFBFCF91089560E087E00C942611809150
:10069000640087FF12C0809164008F7780936400AC
:1006A0008091BC0084608093BC0082E593E00E944E
:1006B000D9081092B80081E0089580E00895ECEB2D
:1006C000F0E080818B7F8083E4E6F0E080818068C9
:1006D00080830895CF93DF9388E10FB6F8948093D9
:1006E0006000109260000FBE0E94430310927A00D7
:1006F00080E880BF8FE380937E0083E080937F005B
:10070000C4E6D0E08881816088830E9434010E9421
:100710005F03888188608883DF91CF9108958091FD
:1007200061008F70833011F00E941D150E946A03D2
:10073000809164008F6E80936400809164008F7D4F
:1007400080936400809164008F7B8093640010929A
:10075000B00086E08093B10080E28093B60081E033
:1007600080937000089589E091E090931702809340
:10077000160210921B0210921A0281E080931C0252
:100780000895E0912002F09121020680F781E02D8A
:1007900080E292E009950E946A0361E084E00E9491
:1007A00026115C9880E00E943A105C9A83E00E94D7
:1007B0003A10F7CF0E94680F0E94C10381EF90E0CA
:1007C0000E94810F6AE070E087E090E00E94D10F04
:1007D0008FEE90E00E94810F8DE191E00E949A0FD0
:1007E00085EE90E00E94810F0C94F20FCF93DF937F
:1007F0000E948F03CEE0D0E0219730F1CE30D105BA
:1008000028F4FE01EC5CFF4F0C94081560E08C2F7F
:100810000E945F1161E014C061E084E00E94261133
:1008200061E084E006C061E08DE00E94261161E095
:100830008DE00E945F11E0CF60E089E002C062E0DD
:100840008C2F0E942611D8CF62E080E10E942611F1
:1008500062E081E10E9426110E94E20E89ED90E0A3
:100860000E94810F0E94DE0386E090E00E94221524
:10087000C82F61E0680F86E090E00E94301583ED9C
:1008800090E00E94680F8AEC90E00E94810F6AE07D
:1008900070E08C2F90E00E94D10F0E94F20F83EB4A
:1008A00090E00E94680F0E9453015C9ADF91CF9103
:1008B00008950C94750280E091E090931E0280935D
:1008C0001D02EFE1F2E080818760877F8F7E808369
:1008D000089581E00895DC01ED91FC910480F5819B
:1008E000E02D60E070E0099481E00895EF920F93AD
:1008F0001F93DC01ED91FC910688F789E02DE12C36
:1009000009951F910F91EF900895FC0181859085C5
:10091000981750F0891304C0828181110EC004C061
:10092000981B8581891748F4218530E02F5F3F4F60
:1009300083819481820F931F089580E090E0089551
:10094000FC018281882359F080850380F481E02DA9
:10095000E80FF11D8191DB018C93CF01089580E0B8
:1009600090E00895FC019FB7F894828512869FBF9E
:10097000089583E0FB01808380E4FA018083F9011C
:1009800080830895FC0186850895DC011C96ED9115
:10099000FC911D970480F581E02D0C960994DC01F3
:1009A0001C96ED91FC911D970680F781E02D0C9629
:1009B000099483E0FB01808380E4FA018083089539
:1009C000FC016623A1F0818590E0A381B481A80F8A
:1009D000B91F6C930196860F911D278130E028176F
:1009E000390708F480E0818782818F5F82830895D0
:1009F0008EBD0DB407FEFDCF8EB508958EBD0DB42E
:100A000007FEFDCF08952A9808950C9403052A9AAD
:100A100008950C940705CF93DF9300D0CDB7DEB7D0
:100A20006A8389830E940305898180680E94FE048D
:100A30006A81862F0E94FE040F900F90DF91CF9164
:100A40000C940705862F642F0C940B0569E087E052
:100A50000C940B0565E087E00C940B05CF93DF93B6
:100A60001F92CDB7DEB769830E9403056981862F87
:100A70008F770E94F80480E00E94F80489830E9426
:100A8000070589810F90DF91CF9108950E9403059A
:100A900083E00E94F80480E00E94F80480E00E9455
:100AA000F8040C9407050C94460560E087E00C946C
:100AB0000B050C9419010C943401CF930E94190179
:100AC000C82F60E887E00E940B0560E087E00E9485
:100AD0000B05CC2319F0CF910C943401CF910895DC
:100AE000CF93DF93CFB7F8940E941901D82F60E01D
:100AF00087E00E940B0563E088E00E940B0560E040
:100B000088E00E940B050E94030585E80E94FE0410
:100B100080E00E94FE0480E00E94FE040E9407051F
:100B20000E944605D11104C0CFBFDF91CF91089537
:100B30000E943401F9CFCF93199906C0CFB7F8942A
:100B400060E00E949E01CFBFCF910895199905C022
:100B500061E00E949E0181E0089580E008952FEFFA
:100B60002093220210922302109225021092240256
:100B70001092260210922702109229021092280247
:100B800010922A028CE380932B028DE391E09093E4
:100B900021028093200210922E0286E392E090932D
:100BA000300280932F0280E480933102209332023E
:100BB0008FEB8093330210923402109235028DE253
:100BC00091E090932D0280932C020895FC01828184
:100BD00008958CE3089583E791E00895FC018485EE
:100BE00008958CE30895FC0182819381089585E73F
:100BF00091E0089581E0653608F080E008958BE784
:100C000091E0089581E0089580E0089580E00895DE
:100C100080E090E0089580E0089580E0089581E00C
:100C2000089580E0089581E0089580E0089580E0CF
:100C3000089580E0089581E0089580E008950F937D
:100C40001F93CF93DF93EC0180E00E94310361E0BA
:100C500081E00E94580E8C010E9443032FEF33E085
:100C6000201B310B3C832B836A81C90196958795A4
:100C700096958795282F681738F4AC015527461BA1
:100C80005109483051054CF4261740F4262F30E026
:100C9000281B3109283031050CF08A838A81DF91C5
:100CA000CF911F910F9108951092460383E891E030
:100CB00090934503809344031092490310924A0392
:100CC0008FEF80934B0380934C031092500310924C
:100CD00051039DE290934E039EE390934F0391E165
:100CE00090934D03809341038BE991E090934003EF
:100CF00080933F031092420383EB91E090933C0377
:100D000080933B0310923E0310923D0310923803F0
:100D10008BEC91E0909337038093360310923A0363
:100D20001092390308950F931F93CF93DF93EC0133
:100D300080E00E94310363E080E00E94580E8C0145
:100D4000803843E0940760F161E080E00E94580E33
:100D50008C0186E192E00E941003C801F5E0880F43
:100D6000991FFA95E1F76091180270911902605F7E
:100D70007F4FA5E076956795AA95E1F70E94D2147A
:100D8000CB018058934069E070E00E94D2148B013F
:100D900000581C4F0F3F53E0150710F00FEF13E002
:100DA0000E9443038B81801721F060E080270E941E
:100DB000610E98013695279536952795822F9A854D
:100DC000921750F01D829C8591110CC09E819F3F0F
:100DD00049F09F5F9E8306C09B85921718F491E0AF
:100DE0009D831E821C830B839A818917C9F08A8197
:100DF00044E0849FC00111240817190728F4AC01AE
:100E0000401B510B8A0102C0081B190B033011054E
:100E100038F08A812A838D85811102C081E08D8717
:100E20008A81DF91CF911F910F910895CF9360E454
:100E300070E082E593E00E94FD0867EE82E593E0B2
:100E40000E949A0882E593E00E94120941E050E076
:100E500060E470E082E593E00E94F00882E593E0B0
:100E60000E944208181619062CF08091B2008D3F9E
:100E7000A8F31EC082E593E00E944A08C82F60E4F0
:100E800070E082E593E00E94FD0867EE82E593E062
:100E90000E949A086C2F6873636082E593E00E9459
:100EA0009A0882E593E00E94120981E0809343034F
:100EB000CF910895AF92BF92CF92DF92EF92FF92BF
:100EC0000F931F93CF93DF931F92CDB7DEB75C01D3
:100ED0000E944703C82E80914303811102C00E94E3
:100EE000160760E470E082E593E00E94FD0865EE7D
:100EF00082E593E00E949A0806E010E00150110993
:100F000041F0DFB6F89486E090E00E946110DFBE09
:100F1000F5CF82E593E00E94120943E050E060E4DF
:100F200070E082E593E00E94F00882E593E00E9481
:100F3000420803972CF48091B2008F3FB1F731C083
:100F400082E593E00E944A08D82E82E593E00E9451
:100F50004A088C01C1100E945F0398012C7F33273F
:100F6000FD2CE12C2E293F29ADE7B0E00E940E15A3
:100F70009AEF980FF5018281891739F061E0802F8F
:100F80008D2599830E94610E9981F50192839C348D
:100F900018F081E0838304C0913410F4F5011382CA
:100FA000892F0F90DF91CF911F910F91FF90EF90BC
:100FB000DF90CF90BF90AF900895DF92EF92FF92B5
:100FC0000F931F93CF93DF937C010E944703D82E8A
:100FD00080914303811102C00E94160760E470E013
:100FE00082E593E00E94FD0863EE82E593E00E94B3
:100FF0009A0881E00E943A1082E593E00E9412096B
:1010000043E050E060E470E082E593E00E94F00885
:1010100082E593E00E94420803973CF48091B2007D
:101020008D3FB0F380E090E022C082E593E00E9423
:101030004A08D82F80E0C82F82E593E00E944A0832
:101040008C010C7F11270C2B1D2BD1100E945F03EC
:101050009801A7EFB5E10E940E15B1E1959587952E
:1010600077956795BA95D1F7CB018E5E9240F701DF
:1010700093838283DF91CF911F910F91FF90EF9027
:10108000DF9008958091820390E020918303821B7A
:10109000910908952091830380918203281750F4C9
:1010A000E22FF0E0EC57FC4F808190E02F5F20931F
:1010B000830308958FEF9FEF0895E091830380915C
:1010C0008203E81730F4F0E0EC57FC4F808190E0A9
:1010D00008958FEF9FEF08950895CF92DF92EF92DA
:1010E000FF920F931F93CF93DF937C01CB018A0173
:1010F00020915E03222389F0EB016B01C40ED51E03
:10110000CC15DD0569F06991D701ED91FC91019055
:10111000F081E02DC7010995F3CF642F0E94CE091D
:10112000C801DF91CF911F910F91FF90EF90DF9059
:10113000CF900895CF93DF931F92CDB7DEB7698329
:1011400020915E032223D1F020915F03203240F0F2
:1011500021E030E0FC013383228380E090E015C081
:1011600080916003E82FF0E0EF59FC4F9981908364
:101170008F5F8093600380935F0305C061E0CE01C1
:1011800001960E94CE0981E090E00F90DF91CF910F
:101190000895FC011382128248EE53E060E070E093
:1011A000448355836683778383EE91E091838083C4
:1011B000089510928303109282031092600310929C
:1011C0005F030C941909862F413208F040E264E86D
:1011D00073E00E943709109283038093820308957D
:1011E00021E00C94E30881E080935E036093810327
:1011F0001092600310925F0308950C94F3080F930C
:10120000062F21E040915F0361E673E08091810346
:101210000E947B091092600310925F0310925E039C
:101220000F91089561E00C94FF0882E593E00C941F
:10123000C9081092110481E080930F0410920E04EB
:1012400061E082E10E945F1161E083E10E945F1131
:10125000E9EBF0E080818E7F808380818D7F8083C9
:101260008DEF8093B80085E48093BC0008954132EF
:1012700008F03FC0909111049111FCCF91E0909340
:10128000110420930F042FEF2093A4031092E9037D
:10129000240F2093E8039093100490911004880F7A
:1012A000892B8093100480910E04813041F41092B8
:1012B0000E04809110048093BB0085EC01C085EE84
:1012C0008093BC00809111048130E1F38091E903A7
:1012D000841710F44091E9032AEE33E0FB01D901B1
:1012E0008A2F821B841718F48D918193F9CF842F54
:1012F000089580E008950F93413208F046C0909120
:1013000011049111FCCF92E09093110400930F040B
:101310009FEF9093A4031092E9034093E803FB012D
:101320006AEE73E0DB019A2F961B941718F49191E3
:101330009D93F9CF1092100490911004880F892B7F
:101340008093100480910E04813041F410920E04B9
:10135000809110048093BB0085EC01C085EE8093E2
:10136000BC00222321F0809111048230E1F38091AE
:10137000A4038F3F61F08091A403803251F08091EB
:10138000A403803341F483E007C081E005C080E01E
:1013900003C082E001C084E00F910895613298F4A7
:1013A00020911104243089F46093C603FC0188EC79
:1013B00093E0DC012A2F281B261718F421912D9386
:1013C000F9CF80E0089581E0089582E0089585EDE9
:1013D0008093BC008091BC0084FDFCCF109211046E
:1013E000089585EC8093BC001092110408951F921B
:1013F0000F920FB60F9211242F933F934F935F9349
:101400006F937F938F939F93AF93BF93EF93FF93CC
:101410008091B900887F803609F49CC068F58832D5
:1014200009F45BC090F4803109F454C038F4882387
:1014300009F4F5C0883009F44DC0F5C0883109F4CD
:101440004CC0803209F45DC0EEC0803409F468C03D
:1014500048F4803309F455C0883309F0E4C0809320
:10146000A403A8C0803509F44FC0883509F45DC0D5
:10147000883409F0D8C0D5C0883909F4C6C0A8F4AA
:10148000883709F467C038F4883609F463C08037B8
:1014900009F460C0C8C0883809F4B7C0803909F4BD
:1014A0005FC0803809F0BFC05BC0803B09F485C0D5
:1014B00038F4803A09F466C0883A09F47EC0B3C0B3
:1014C000803C09F4A6C0883C09F4A3C0883B09F419
:1014D00089C0A9C08091100410C09091E903809147
:1014E000E803981770F5E091E90381E08E0F80938F
:1014F000E903F0E0E651FC4F80818093BB0085EC6E
:1015000085C08093A4038DC0E091E90381E08E0F34
:101510008093E9038091BB00F0E0E651FC4F8083AB
:101520009091E9038091E8036DC0E091E90381E0C7
:101530008E0F8093E9038091BB00F0E0E651FC4FF1
:10154000808380910F0481116CC081E080930E0430
:1015500084EA60C083E0809311041092A503CFCF8A
:101560008091A503803208F050C0E091A50381E08E
:101570008E0F8093A5038091BB00F0E0EA55FC4FED
:101580008083BDCF8091A503803230F4E091A50324
:10159000F0E0EA55FC4F10820E94E7096091A50334
:1015A00070E0E0910A04F0910B0486EA93E009955B
:1015B0001092A5030E94F10936C084E080931104C3
:1015C0001092C7031092C603E0910C04F0910D0431
:1015D00009958091C603811105C081E08093C603FF
:1015E0001092C803E091C70381E08E0F8093C70378
:1015F000F0E0E853FC4F80818093BB009091C703DB
:101600008091C603981708F47ACF85E88093BC00D0
:101610000AC085EC8093BC001092110404C01092A3
:10162000A4030E94E709FF91EF91BF91AF919F91B1
:101630008F917F916F915F914F913F912F910F907B
:101640000FBE0F901F901895FC0182818823B9F07E
:101650004FB7F894808590E0A381B481A80FB91F9B
:101660002C910196820F911D278130E028173907B0
:1016700008F480E080878281815082834FBF089583
:10168000FC0181859085981760F0891305C09281CF
:1016900081E0911107C005C0981B81E025812917C1
:1016A00008F480E00895CF93CFB7F8940E94400BE0
:1016B000CFBFCF9108950F931F93CF93DF93EC018A
:1016C000E881F98104A4F5A5E02D09958A818F3F71
:1016D00009F451C01FB7F894E881F98104A0F5A17D
:1016E000E02DCE010995082FE881F98100A4F1A52C
:1016F000E02D43E068E0CE010995E881F98100A47E
:10170000F1A5E02D40E068E0CE0109954B85E88128
:10171000F98100A4F1A5E02D6EE7CE010995E881DD
:10172000F98100A4F1A5E02D40E165E0CE01099525
:10173000E881F98100A4F1A5E02D40E066E0CE014A
:101740000995E881F98104A8F5A9E02DCE01099554
:10175000E881F98102A8F3A9E02DCE0109950111D4
:1017600002C01FBF08C0E881F98106A0F7A1E02DE3
:10177000CE010995F6CFDF91CF911F910F9108957A
:10178000DC01ED91FC9104A4F5A5E02D099581E023
:1017900008950F931F93CF93DF93EC01E881F981B4
:1017A00004A0F5A1E02D0995082FE881F98102A494
:1017B000F3A5E02D60E0CE010995883059F4E88169
:1017C000F98102A4F3A5E02D61E0CE01099511E0B5
:1017D000863009F010E0002339F0E881F98106A095
:1017E000F7A1E02DCE010995812FDF91CF911F91B7
:1017F0000F910895EF92FF920F931F93CF93DF9372
:10180000EC018B01FFB6F894E881F98104A0F5A101
:10181000E02D0995E82EF8016491319644916F3FCF
:1018200059F0A881B9819896ED91FC919997CE01D4
:1018300009950E5F1F4FEFCFEE2039F0E881F98157
:1018400006A0F7A1E02DCE010995FFBEDF91CF9153
:101850001F910F91FF90EF9008951F93CF93DF9307
:10186000EC018B81813011F010E014C0CE010E9498
:10187000C90B182F8823C1F3EC81FD816081718130
:10188000CE010E94FA0BE881F98104A4F5A5E02DB0
:10189000CE010995812FDF91CF911F910895CF93AC
:1018A000DF93EC01E881F98100A4F1A5E02D41E08E
:1018B00068E00995E881F98100A4F1A5E02D40E0F8
:1018C00068E0CE01DF91CF910994EF92FF920F93E0
:1018D0001F93CF93DF9300D01F92CDB7DEB77C016B
:1018E0001FB7F894DC01ED91FC9104A0F5A1E02D67
:1018F00049836A837B830995082FC7010E944F0C97
:10190000D701ED91FC9100A0F1A1E02DC70109954F
:101910008FEF8EBD7B816A8149810DB407FEFDCFBB
:10192000FB01415030F081918EBD0DB407FEFDCF1B
:10193000F8CFD701ED91FC9102A0F3A1E02DC701F2
:101940000995002341F0D701ED91FC9106A0F7A184
:10195000E02DC70109951FBF0F900F900F90DF91E9
:10196000CF911F910F91FF90EF900895EF92FF920A
:101970000F931F93CF93DF93EC01E881F98104A0CB
:10198000F5A1E02D0995F82E1FB7F894E881F981AB
:1019900000A4F1A5E02D40E065E0CE010995E881C5
:1019A000F98100A4F1A5E02D40E066E0CE010995A3
:1019B000E881F98104A8F5A9E02DCE010995E88117
:1019C000F98100A8F1A9E02DCE0109951FBF8AEF8A
:1019D0008A9501F0E9F709EE13E08AEFE82E01504D
:1019E000110981F08E2D8A9501F0E9F7E881F981DE
:1019F00002A4F3A5E02D63E0CE01099582FFEFCFAD
:101A000011E001C010E0FF2039F0E881F98106A063
:101A1000F7A1E02DCE010995812FDF91CF911F9184
:101A20000F91FF90EF900895CF92DF92FF920F9366
:101A30001F93CF93DF9300D01F92CDB7DEB76C0119
:101A4000DC01ED91FC9104A4F5A5E02D4B836983A5
:101A50007A8309954B8169817A81C6010E94650C60
:101A6000C6010E94B60CF82E043011054CF080E03F
:101A70000E943A10C6010E94B60C811101C0F12CDF
:101A8000D601ED91FC910280F381E02DC60109950C
:101A90008F2D0F900F900F90DF91CF911F910F918D
:101AA000FF90DF90CF900895CF92DF92EF92FF9258
:101AB0000F931F93CF93DF931F92CDB7DEB76C01C7
:101AC0008B01FFB6F894DC01ED91FC9104A0F5A127
:101AD000E02D49830995E82ED601ED91FC9106A4ED
:101AE000F7A5E02DC6010995D601ED91FC9100A066
:101AF000F1A1E02DC60109958FE78EBD49810DB496
:101B000007FEFDCF8EB5F80150E0CF01801B910B91
:101B1000841795073CF41EBC0DB407FEFDCF8EB5AF
:101B20008193F3CFD601ED91FC9102A0F3A1E02DBA
:101B3000C6010995D601ED91FC9100A4F1A5E02D17
:101B400043E068E0C6010995D601ED91FC9100A43F
:101B5000F1A5E02D40E068E0C6010995D601ED91C0
:101B6000FC9100A4F1A5E02D40E065E0C6010995D7
:101B7000D601ED91FC9100A4F1A5E02D40E066E0D6
:101B8000C6010995D601ED91FC9104A8F5A9E02DB7
:101B9000C6010995EE2041F0D601ED91FC9106A019
:101BA000F7A1E02DC6010995FFBE0F90DF91CF91FF
:101BB0001F910F91FF90EF90DF90CF9008951F92AB
:101BC0000F920FB60F9211248F9381E0809313042C
:101BD0008F910F900FBE0F901F9018951F93CF936A
:101BE000DF93D82FC62F0E946C0E182F90B79068E5
:101BF00090BFD0937C00C2301CF480E00E943A1069
:101C000093B7917F926093BF10927B0090917A007E
:101C1000C23014F0906201C09F7D90937A00909141
:101C20007A00986090937A0090917A0090649093F3
:101C30007A005FEF4FEFC150C7FD16C0109213043A
:101C400080911304811108C093B7916093BF889568
:101C500093B79E7F93BFF4CF2091780030917900A5
:101C6000351315C0241313C090917A00977F909379
:101C70007A0090917A009F7D90937A00D0917800BD
:101C8000C0917900112369F00E947E0E0AC09091E4
:101C900012049695832F8227980F90931204A9011E
:101CA000CACF8D2F90E09C2BDF91CF911F9108958B
:101CB00090E4699F90011124877063E0822B0C945B
:101CC000EE0D4091B20066B5909114049F5F909321
:101CD000140489270C94C20E8091640080FF0CC00C
:101CE000809164008E7F8093640080917A00806888
:101CF00080937A0081E0089580E00895EAE7F0E0BB
:101D000080818F778083E4E6F0E08081816080834A
:101D100008958091640081FD08958091C00085FD43
:101D200006C08091C00080648093C000F6CF80918F
:101D3000C00086FFFCCF08958091C00085FFFCCFD6
:101D400088E294E00E94F1110C94890E0C949C0E90
:101D50008091640081FD08C088E294E00E94F11146
:101D600088E294E00E94D41262E080E00E94261192
:101D700062E081E00E94261180916400826080937D
:101D8000640008959091180420911704622720910F
:101D900016044227209115042F5F209315049227E3
:101DA0009427982790931804690F609317046695F9
:101DB000640F69276093160408958BE894E080937C
:101DC00015040895CF93CFB7F89488E090E00E946F
:101DD0002A158F3F2FEF920721F090931A048093DA
:101DE00019048AE090E00E942215482FCFBF803C62
:101DF00030F5282F30E083E0359527958A95E1F777
:101E00005CE3529FC001539F900D1124242F277033
:101E1000213049F030F0233041F0273081F408962A
:101E200005C0C59603C0869601C047962FB7F894A3
:101E300090931C0480931B042FBF81E001C080E0BD
:101E4000CF9108951F920F920FB60F9211242F93E6
:101E50008F939F9380911D048E5F8C33C8F0809187
:101E60001B0490911C040196803A25E0920758F0DB
:101E70008091190490911A04019690931A0480930A
:101E8000190480E090E090931C0480931B0480E090
:101E900080931D049F918F912F910F900FBE0F90F3
:101EA0001F9018958091640081FF10C0809164009C
:101EB0008D7F8093640026E040EC52E160E070E0AA
:101EC00088E294E00E94781281E0089580E008950D
:101ED0001F93CF93DF93EC010E94520F182FBE0186
:101EE00088E294E00E9415140E94A60E112329F0A6
:101EF000DF91CF911F910C94A80EDF91CF911F918C
:101F000008951F93CF93DF93EC010E94520F182F77
:101F1000BE0188E294E00E94E3130E94A60E112302
:101F200029F0DF91CF911F910C94A80EDF91CF91F2
:101F30001F9108951F93CF93DF93EC010E94520FDE
:101F4000182FBE0188E294E00E9408140E94A60E99
:101F5000112329F0DF91CF911F910C94A80EDF91EE
:101F6000CF911F9108951F93CF93DF931F92CDB709
:101F7000DEB789830E94520F182F698188E294E0AE
:101F80000E940A140E94A60E112331F00F90DF91D7
:101F9000CF911F910C94A80E0F90DF91CF911F91BC
:101FA0000895FF920F931F93CF93DF93EC018B0162
:101FB0000E94520FF82EA801BE0188E294E00E9410
:101FC000CA140E94A60EFF2039F0DF91CF911F9115
:101FD0000F91FF900C94A80EDF91CF911F910F915C
:101FE000FF900895CF930E94520FC82F88E294E08B
:101FF0000E9411140E94A60ECC2319F0CF910C94CC
:10200000A80ECF91089583B7817F866083BFF8942F
:1020100083B7816083BF85B7806685BF8F7D85BFAD
:102020007894889583B78E7F83BF789408951F92A4
:102030000F920FB60F9211248F939F93CF93DF933C
:102040001F92CDB7DEB788E10FB6F8948093600099
:10205000109260000FBECE010196806880931E042E
:102060000F90DF91CF919F918F910F900FBE0F90A6
:102070001F90189510921E0483FF02C098E201C0C1
:1020800098E08770892B28E130E00FB6F894A89586
:10209000209360000FBE8093600080916000806498
:1020A000809360000E94031080911E048823D1F366
:1020B00088E10FB6F89480936000109260000FBE24
:1020C00008954091610028E030E050E80FB6F894A0
:1020D00050936100209361000FBE0197F1F74F709C
:1020E000842F90E020E80FB6F8942093610080934D
:1020F00061000FBE08951F920F920FB60F92112428
:102100002F933F938F939F93AF93BF93809120041E
:1021100090912104A0912204B091230430911F04D6
:1021200020E3230F2D3720F44096A11DB11D05C0DB
:1021300023EB230F4196A11DB11D20931F04809313
:10214000200490932104A0932204B093230480914F
:10215000240490912504A0912604B09127040196AF
:10216000A11DB11D8093240490932504A0932604FF
:10217000B0932704BF91AF919F918F913F912F9181
:102180000F900FBE0F901F901895789484B58260C1
:1021900084BD84B5816084BD85B5826085BD85B50B
:1021A000816085BDEEE6F0E0808181608083E1E8BA
:1021B000F0E01082808182608083E0E8F0E080813E
:1021C00081608083E1EBF0E0808184608083E0EBDC
:1021D000F0E0808181608083EAE7F0E080818B7F9E
:1021E0008083808182608083808181608083808120
:1021F000806880831092C1000895833081F028F4B4
:10220000813099F08230A1F008958730A9F08830AC
:10221000B9F08430D1F4809180008F7D03C080912B
:1022200080008F7780938000089584B58F7702C0F7
:1022300084B58F7D84BD08958091B0008F7703C0F1
:102240008091B0008F7D8093B0000895CF93DF938D
:1022500090E0FC01EE59FE4F2491FC01EA58FE4F3C
:102260008491882349F190E0880F991FFC01EC5676
:10227000FE4FA591B49186579E4FFC01C591D49114
:102280009FB7611108C0F8948C91209582238C939C
:10229000888182230AC0623051F4F8948C91322FE5
:1022A000309583238C938881822B888304C0F89493
:1022B0008C91822B8C939FBFDF91CF9108950F93C8
:1022C0001F93CF93DF931F92CDB7DEB7282F30E057
:1022D000F901E25BFE4F8491F901EE59FE4F149132
:1022E000F901EA58FE4F04910023C9F0882321F038
:1022F00069830E94FD106981E02FF0E0EE0FFF1F5F
:10230000E657FE4FA591B4919FB7F8948C91611157
:1023100003C01095812301C0812B8C939FBF0F9028
:10232000DF91CF911F910F910895FC01818D228D36
:1023300090E0805C9F4F821B91098F7399270895CD
:10234000FC01918D828D981731F0828DE80FF11D7F
:10235000858D90E008958FEF9FEF0895FC01918D9A
:10236000828D981761F0828DDF01A80FB11D5D96F7
:102370008C91928D9F5F9F73928F90E008958FEF65
:102380009FEF089588E493E1892B49F080E090E085
:10239000892B29F00E94481381110C9400000895A4
:1023A000FC01848DDF01A80FB11DA35ABF4F2C91F2
:1023B000848D90E001968F739927848FA689B789C1
:1023C0002C93A089B1898C9180648C93938D848D9A
:1023D000981306C00288F389E02D80818F7D808369
:1023E0000895CF93DF93EC01888D8823C9F0EA89A3
:1023F000FB89808185FD05C0A889B9898C9186FDFE
:102400000FC00FB607FCF5CF808185FFF2CFA889FA
:10241000B9898C9185FFEDCFCE010E94D011E7CF15
:10242000DF91CF910895CF92DF92FF920F931F9388
:10243000CF93DF931F92CDB7DEB76C0181E0D60159
:1024400058968C9358975B969C915B975C968C9171
:102450005C97981307C05096ED91FC91519780813D
:1024600085FD2EC0F601038D10E00F5F1F4F0F7327
:102470001127F02EF601848DF81211C00FB607FC5B
:10248000F9CFD6015096ED91FC915197808185FF4F
:10249000F1CFC60169830E94D0116981EBCF838D92
:1024A000E80FF11DE35AFF4F6083D6015B960C9352
:1024B0005B975296ED91FC915397808180620CC09E
:1024C000D6015696ED91FC91579760835096ED9109
:1024D000FC91519780818064808381E090E00F902F
:1024E000DF91CF911F910F91FF90DF90CF900895D2
:1024F000BF92CF92DF92EF92FF92CF93DF93EC01E6
:102500006A017B01B22E60E970ED83E090E0A701E3
:1025100096010E94E614215031094109510956954E
:10252000479537952795E889F98982E080832115B9
:1025300080E1380798F0E889F989108268E478EE3C
:1025400081E090E0A70196010E94E6142150310934
:10255000410951095695479537952795EC85FD8595
:102560003083EE85FF852083188EEC89FD89B0824B
:10257000EA89FB89808180618083EA89FB89808187
:1025800088608083EA89FB89808180688083EA890A
:10259000FB8980818F7D8083DF91CF91FF90EF90C9
:1025A000DF90CF90BF900895FC01938D848D981398
:1025B000FCCFA289B3898C918F7E8C93A289B38939
:1025C0008C91877F8C93A289B3898C918F778C9320
:1025D000A289B3898C918F7D8C93828D818F089590
:1025E0001F920F920FB60F9211242F938F939F93E8
:1025F000EF93FF93E0913804F09139048081E091EA
:102600003E04F0913F0482FD12C09081809141040C
:102610008F5F8F7320914204821751F0E091410443
:10262000F0E0E85DFB4F958F8093410401C080810D
:10263000FF91EF919F918F912F910F900FBE0F906F
:102640001F9018951F920F920FB60F9211242F937F
:102650003F934F935F936F937F938F939F93AF932A
:10266000BF93EF93FF9388E294E00E94D011FF9113
:10267000EF91BF91AF919F918F917F916F915F91FA
:102680004F913F912F910F900FBE0F901F90189573
:1026900088E294E00E94951121E0892B09F420E062
:1026A000822F089510922B0410922A0488EE93E052
:1026B000A0E0B0E080932C0490932D04A0932E040E
:1026C000B0932F0483EF91E0909329048093280422
:1026D00085EC90E0909335048093340484EC90E092
:1026E000909337048093360480EC90E09093390403
:1026F0008093380481EC90E090933B0480933A04FB
:1027000082EC90E090933D0480933C0486EC90E052
:1027100090933F0480933E0410924104109242042F
:102720001092430410924404089508950E94C51025
:102730000E9495130E94F603C2ECD1E10E94590455
:102740002097E1F30E94C211F9CFCF92DF92EF926E
:10275000FF920F931F93CF93DF936C017A01EB01EC
:10276000E60EF71E00E010E0CE15DF0561F069917E
:10277000D601ED91FC910190F081E02DC601099503
:10278000080F191FF1CFC801DF91CF911F910F9151
:10279000FF90EF90DF90CF9008956115710581F063
:1027A000DB010D900020E9F7AD0141505109461BB6
:1027B000570BDC01ED91FC910280F381E02D09942F
:1027C00080E090E00895EF92FF920F931F93CF93D4
:1027D000DF938C01FB01C0E0D0E064917F018FEFBB
:1027E000E81AF80A662361F0D801ED91FC91019096
:1027F000F081E02DC8010995C80FD91FF701EDCF71
:10280000CE01DF91CF911F910F91FF90EF9008952E
:102810000C94CD13DC01ED91FC910190F081E02D41
:1028200009946FEF71E00C94CD130F931F93CF9326
:10283000DF93EC010E94E3138C01CE010E9411147E
:10284000800F911FDF91CF911F910F9108958F926B
:102850009F92AF92BF92CF92DF92EF92FF920F932F
:102860001F93CF93DF93CDB7DEB7A1970FB6F89440
:10287000DEBF0FBECDBF7C01C42EE52FCB01D22E13
:1028800019A221E02D1510F02AE0D22E8E010F5D45
:102890001F4F8D2C912CA12CB12C6C2D7E2FA501BE
:1028A00094010E94E6148C2DD29E801911240150AF
:1028B00011098A3014F4805D01C0895CF8018083BD
:1028C000211531054105510521F0C22EE32FCA0122
:1028D000E4CFB801C7010E94CD13A1960FB6F894BA
:1028E000DEBF0FBECDBFDF91CF911F910F91FF9043
:1028F000EF90DF90CF90BF90AF909F908F90089512
:10290000CF92DF92EF92FF920F931F93CF93DF93BB
:10291000EC016A017B012115310579F4E881F98127
:102920000190F081E02D642FDF91CF911F910F91E5
:10293000FF90EF90DF90CF9009942A303105E9F4B1
:1029400077FF1AC06DE20E940A148C0144275527B4
:10295000BA014C195D096E097F092AE0CE010E9477
:102960002714800F911FDF91CF911F910F91FF903E
:10297000EF90DF90CF9008952AE0B701A601CE0135
:10298000DF91CF911F910F91FF90EF90DF90CF904B
:102990000C9427149A01AB01662757FD6095762F9A
:1029A0000C948014AA1BBB1B51E107C0AA1FBB1FBC
:1029B000A617B70710F0A61BB70B881F991F5A95CB
:1029C000A9F780959095BC01CD010895A1E21A2E3A
:1029D000AA1BBB1BFD010DC0AA1FBB1FEE1FFF1FC3
:1029E000A217B307E407F50720F0A21BB30BE40B13
:1029F000F50B661F771F881F991F1A9469F760955A
:102A00007095809590959B01AC01BD01CF01089513
:102A1000EE0FFF1F0590F491E02D0994A29FB001E5
:102A2000B39FC001A39F700D811D1124911DB29F02
:102A3000700D811D1124911D089581E090E0F8949E
:102A40000C944E15F999FECF92BD81BDF89A992745
:102A500080B50895A8E1B0E042E050E00C94401544
:102A6000262FF999FECF1FBA92BD81BD20BD0FB6AA
:102A7000F894FA9AF99A0FBE01960895DC01CB01F9
:102A8000FC01F999FECF06C0F2BDE1BDF89A31967E
:102A900000B40D9241505040B8F70895F894FFCF1C
:102AA000427C6D5600000000001003FB020203048C
:102AB000030603FF0208030A030C030E033230313E
:102AC000352F4465632F31300000000000D90453D6
:102AD0000BA004240B8504E0040000000069045BE3
:102AE0000B5D056B042D0C7404B904C204C504CF3E
:102AF00004B204140D76049B05A605C00B05050958
:102B00000559055B0522052E057005550526052A84
:102B10000553054C00547C43313600487C250000A9
:102B20000000009306E6050206EE05E905EB050B3D
:102B3000060D060F061106000000005A07E605FA0A
:102B40000504060606FF050B060D060F0611060016
:102B5000000000DD07F30513061506F105F705175C
:102B60000619061B061D06000000001F06E60502EA
:102B7000060406060608060B060D060F06110600DB
:102B80000000009A086D0842084A085D086C0800B9
:102B90000000001312A5139511AE11A011F1110D33
:102BA0000A006E616E00696E66006F7666002E0028
:00000001FF
