:100000000C9409010C9431010C9431010C943101D0
:100010000C9431010C9431010C94A3110C94310116
:100020000C9431010C94F7140C9431010C943101AF
:100030000C9431010C9431010C9431010C94310178
:100040000C9410100C9431010C94EC090C94C6091A
:100050000C9431010C94A60B0C9431010C943101D9
:100060000C945A100C9431012B172B172B172B17AC
:1000700018172B17121712172B1728172B171217D1
:100080002B171F174C00547C43313600487C250049
:10009000767C25002176616C7665206572726F72C0
:1000A000002176616C76652070696E2077697468CE
:1000B00064726177206661696C0074656D70207090
:1000C0006F743A20004C3A20005248253A200054E0
:1000D0003A2000563A200062007231005874616C78
:1000E000002031363A34353A323600626F6172643C
:1000F0002056302E32205245563720000D0A4F70C0
:10010000656E5452563A20000500060007010800AB
:10011000097F0A060B150C120D000E000F001000CF
:100120001220130014031500160119011A141C06DD
:100130001D441E0A1F032045210122D723DC24076A
:10014000256E271E2A282C402D0A2E2D308832009D
:100150003302340A352A362D37D4380039003A00B4
:100160003B003C003D003E003F004000410042009B
:1001700043FF44FF45FF46FF4F1060A062246960C3
:100180006D0B6E0E6FBF700C7123722E73007400B6
:100190007573766A774079007A007C377D047E3704
:1001A000FFFF2176616C76652063616C6962726124
:1001B00074696F6E206661696C00427C6356000052
:1001C000000000240027002A00000000002500286D
:1001D000002B0004040404040404040202020202CA
:1001E00002030303030303010204081020408001FB
:1001F000020408102001020408102000000008007A
:1002000002010000030407000000000000000000DD
:10021000001611241FBECFEFD8E0DEBFCDBF12E025
:10022000A0E0B1E0EAE0F1E302C005900D92AC3746
:10023000B107D9F724E0ACE7B2E001C01D92AC32BF
:10024000B207E1F711E0C9E0D1E004C02197FE0157
:100250000E946918C830D107C9F70E94A1160C94F2
:1002600083180C940000EF92FF920F931F93CF938B
:10027000DF93EC01E881F98104A0F5A1E02D099557
:10028000F82E1FB7F894E881F98100A4F1A5E02DBC
:1002900040E065E0CE010995E881F98100A4F1A56F
:1002A000E02D40E066E0CE010995E881F98104A8DF
:1002B000F5A9E02DCE010995E881F98100A8F1A901
:1002C000E02DCE0109951FBF9AEF9A9501F0E9F74D
:1002D00009EE13E08AEFE82E0150110981F09E2DFE
:1002E0009A9501F0E9F7E881F98102A4F3A5E02DE0
:1002F00063E0CE01099582FFEFCF11E001C010E06D
:10030000FF2039F0E881F98106A0F7A1E02DCE01A8
:100310000995812FDF91CF911F910F91FF90EF9061
:1003200008952A9A08952A9808958EBD0DB407FE5F
:10033000FDCF0895CF93DF9300D0CDB7DEB76A83AA
:1003400089830E949301898180680E9495016A8156
:10035000862F0E9495010F900F90DF91CF910C9402
:1003600091018EBD0DB407FEFDCF8EB508950E949C
:10037000930183E00E94B10180E00E94B10180E01E
:100380000E94B1010C94910180E0089580E00895ED
:1003900081E0089580E0089581E0089581E0089566
:1003A00081E008950C94B70165E087E00C949A0110
:1003B00069E087E00C949A0160E087E00C949A0170
:1003C000CF93DF931F92CDB7DEB769830E9493016D
:1003D0006981862F8F770E94B10180E00E94B10170
:1003E00089830E94910189810F90DF91CF910895B7
:1003F000862F642F0C949A010C9491010C94930114
:1004000080E008958FB7F8948FBF0895089580E035
:1004100090E00895FC0180890895FB011082FA01A3
:10042000108280E4F9018083089581E0089580E0DE
:1004300090E0089583E40895FC01928981E097306B
:1004400008F480E00895FC01928981E0953009F07C
:1004500080E00895FC01928981E0933009F080E00A
:100460000895653620F4FC01648F81E0089580E0F2
:10047000089580E0089580E0089581E008958091D6
:100480000501811105C09091060181E08927089539
:1004900080E00895FC012485233011F421E02587B4
:1004A000089506960C944A02CF93DC011C962C9179
:1004B000253061F4FC01C5890190F081E02D0684AE
:1004C000F785E02D099591E0C81708F490E0892F91
:1004D000CF91089506960C94540283E4089580E029
:1004E0000895089581E00895DC01ED91FC91028C5E
:1004F000F38DE02D0994CF93DF93EC01E881F9812E
:10050000008CF18DE02D0995882329F09A8181E0F6
:10051000923308F480E0DF91CF9108951F93CF9339
:10052000DF93EC01E881F9810488F589E02D0995D4
:10053000982F882361F01A81E881F981068CF78D64
:10054000E02DCE01099591E0181708F490E0892F6D
:10055000DF91CF911F91089580E0089581E0089583
:1005600080E00895089580E0089581E0653608F000
:1005700080E0089580E990E00895FC019FB7F89429
:10058000838513869FBF0895089580E090E00895C5
:10059000089580E090E0089581E00895FB011082C5
:1005A000FA0110820895EF920F93DC01ED91FC9116
:1005B0000688F789E02DE12C09950F91EF900895B9
:1005C00081E00895DC01ED91FC910480F581E02D3E
:1005D00060E070E0099481E008958CE890E008956F
:1005E00081E0653608F080E00895FC01828108957D
:1005F00086E890E00895FC018281938108958CE360
:10060000089584E0089581E06115784F09F080E055
:10061000089584E890E00895FC016483458326836F
:100620000895FC0182810895FC01828108958091E2
:10063000B20008950F931F93CF93DF93EC01E881ED
:10064000F98104A4F5A5E02D09958FB7F8944DB76D
:100650005EB720910001309101014217530730F439
:100660002DB73EB730930101209300018FBF8D85D8
:10067000882309F481C06A816F3F09F47DC0CE01EF
:100680000E94F10D1FB7F894E881F98104A0F5A14B
:10069000E02DCE010995082FE881F98100A4F1A58C
:1006A000E02D43E068E0CE010995E881F98100A4DE
:1006B000F1A5E02D40E068E0CE0109954C85E88188
:1006C000F98100A4F1A5E02D6EE7CE010995E8813E
:1006D000F98102A4F3A5E02D60E3CE010995E8813C
:1006E000F98100A4F1A5E02D87FF1FC042E065E07D
:1006F000CE010995E881F98100A4F1A5E02D40E043
:1007000066E0CE010995E881F98102A4F3A5E02D08
:1007100063E3CE01099583FF15C04C85E881F9811B
:1007200000A4F1A5E02D6EE30BC040E165E0CE0131
:100730000995E881F98100A4F1A5E02D40E066E08B
:10074000CE010995E881F98104A8F5A9E02DCE0133
:100750000995E881F98102A8F3A9E02DCE01099558
:10076000011102C01FBF08C0E881F98106A0F7A1EE
:10077000E02DCE010995F6CFDF91CF911F910F911A
:100780000895AF92BF92DF92EF92FF920F931F9363
:10079000CF93DF9300D0CDB7DEB75C01D62E142FF8
:1007A000DC01ED91FC9104A4F5A5E02D29837A8369
:1007B00009952981622FC5010E94F10DFFB6F894B9
:1007C000D501ED91FC9104A0F5A1E02DC50109959D
:1007D000E82ED501ED91FC9100A4F1A5E02D41E0BA
:1007E00068E0C5010995D501ED91FC9100A4F1A542
:1007F000E02D40E068E0C5010995D501ED91FC913F
:1008000000A0F1A1E02DC50109958FEF8EBD7A8181
:100810000DB407FEFDCFED2DF72F912F915030F045
:1008200081918EBD0DB407FEFDCFF8CFD501ED91BE
:10083000FC9102A0F3A1E02DC5010995EE2041F045
:10084000D501ED91FC9106A0F7A1E02DC501099518
:10085000FFBED501ED91FC9104A0F5A1E02DC501ED
:100860000995F82ED501ED91FC9102A4F3A5E02D98
:1008700060E3C501099583FF0AC0D501ED91FC91A4
:1008800000A4F1A5E02D412F6EE3C5010995FF20DD
:1008900041F0D501ED91FC9106A0F7A1E02DC50135
:1008A0000995C5010E943301182F043048F080E0FB
:1008B0000E94DD11C5010E943301811101C010E0C9
:1008C000D501ED91FC910280F381E02DC5010995E0
:1008D000812F0F900F90DF91CF911F910F91FF907B
:1008E000EF90DF90BF90AF900895AF92BF92DF92EC
:1008F000EF92FF920F931F93CF93DF937C01C62F4C
:10090000D42E5901FC01D281F1E04F1721F082E091
:100910004817B9F030C0429A61E080E10E949A0F16
:10092000D13019F083E00E94DD1161E081E10E9485
:100930009A0F43986C2FC43008F464E0850121E0DD
:1009400015C0439A61E081E10E949A0FD23019F0FC
:1009500083E00E94DD1161E080E10E949A0F4298DD
:100960006C2FC43008F464E0850122E044E0C70144
:100970000E94B50B21C0439A62E081E10E949A0F68
:10098000D11103C040E061E002C042E064E08501B3
:100990002D2FC7010E94B50B429A62E080E10E94B0
:1009A0009A0F20E040E061E0C7010E94B50BDD1521
:1009B00019F082E00E94DD11F701D282DF91CF9120
:1009C0001F910F91FF90EF90DF90BF90AF9008952F
:1009D000CF93CFB7F8948091640082FD03C0CFBF5E
:1009E00080E00FC02A9A61E08AE00E949A0F80910D
:1009F00064008B7F8093640080E58CBD81E08DBDB9
:100A0000CFBFCF9108950C94E804CF93DF931F924A
:100A1000CDB7DEB786EC69830E940308AC0169811B
:100A2000613019F022EC31E002C028E532E081E0CB
:100A30002417350708F080E00F90DF91CF910895DB
:100A4000CF93DF935F9A61E087E00E949A0F87EC73
:100A50000E940308EC0160E087E00E949A0F81E0A9
:100A6000C837D10508F080E0DF91CF910895069650
:100A70000C94580AEF92FF920F931F93CF93DF933A
:100A8000EC01ED80FE8081E40E9403088C018E154C
:100A900019F061E00E949B0B9A8198013695279589
:100AA00036952795822F921730F4A8014E195F09C9
:100AB0004430510540F4891740F5E01AF10A44E04A
:100AC000E416F10410F12A832D813E812F3F3F4F20
:100AD000E1F02B81821718F4EF81F8850AC02C8190
:100AE000281718F4E985FA850CC0891730F4E985D0
:100AF000FA85309751F080E007C0981730F4EF8105
:100B0000F885309711F081E009951E830D838A8165
:100B1000DF91CF911F910F91FF90EF900895EF9289
:100B2000FF920F931F93CF93DF93EC018B01FFB6DE
:100B3000F894E881F98104A0F5A1E02D0995E82E4B
:100B4000F8016491319644916F3F51F0E881F98149
:100B500000A4F1A5E02DCE0109950E5F1F4FF0CF47
:100B6000EE2039F0E881F98106A0F7A1E02DCE0151
:100B70000995FFBEDF91CF911F910F91FF90EF90EC
:100B80000895CF93CFB7F8942A9A8CB58F7B8CBDFC
:100B9000E4E6F0E080818460808361E08AE00E9486
:100BA0009A0F61E08DE00E949A0F61E08BE00E9455
:100BB0009A0F62E08CE00E949A0FCFBFCF91089508
:100BC000CF930E94E804C82F60E887E00E949A0152
:100BD00060E087E00E949A01CC2319F0CF910C9439
:100BE000C105CF9108950C94E005CF93DF93CFB763
:100BF000F8940E94E804D82F60E087E00E949A01F0
:100C000063E088E00E949A0160E088E00E949A0117
:100C10000E94930185E80E94950180E00E94950161
:100C200080E00E9495010E9491010E94B701D111BC
:100C300004C0CFBFDF91CF9108950E94C105F9CFC5
:100C40000C94C105EC010E94BD150E940612182FDC
:100C5000E091EA02F091EB020190F081E02D61E277
:100C60008AEE92E009950E94790B11110E9483157A
:100C7000CE010E94E5158BE191E00E94E2020E9404
:100C8000591561E084E00E949A0F5C9880E00E9410
:100C9000DD115C9A83E00E94DD11F7CF0D9627E00D
:100CA000FC0111922A95E9F70895FF920F931F9383
:100CB000CF93DF93EC01EA85FB8509959C85891725
:100CC00008F0AEC08E010A5F1F4F8A89823039F169
:100CD00028F4882361F0813099F08DC0843009F4C4
:100CE00050C008F441C0853009F456C084C0EE817C
:100CF000FF810288F389E02DC801099581E08CC04D
:100D00008B898F3018F48F5F8B8B8AC0EE81FF81C7
:100D10000288F389E02DC801099582E07DC08B89A6
:100D20008F5F8B8B893718F081EA90E072C0EE8577
:100D3000FF85309729F488899989009729F490C014
:100D40000995811176C0F7CFDC01ED91FC91068009
:100D5000F781E02D0995892B09F46BC0E889F989A1
:100D60008281811166C07CC08B89882309F458C0B8
:100D7000EE81FF810288F389E02DC801099584E0A6
:100D80004BC0EE81FF810284F385E02DC8010995F7
:100D9000811146C085E040C09B8D8C8D981709F469
:100DA0003FC0EE81FF810484F585E02DC8010995DF
:100DB000811136C0FF24F3948C8D823318F4F12C0A
:100DC00080E001C084E69B8D891751F1888999895B
:100DD000009709F46CC0DC01ED91FC910680F7816D
:100DE000E02D0995892B09F440C0E889F9898281B1
:100DF00081113BC05CC088859985DC01ED91FC9137
:100E00000480F581E02D980140E060E0099584E9D7
:100E100090E00E94E51587E08A8BC8010E944E068B
:100E20008B8D8A838A81DF91CF911F910F91FF90E3
:100E3000089561E0C8010E94290C811102C01C8A3A
:100E4000EFCF8C898F5F8C8B833050F3EE81FF81E5
:100E50000084F185E02D61E0C801099583E0DCCFD5
:100E600061E0C8010E94DF0CE8CF9C8D8B8D981744
:100E7000B8F26F2DC8010E94290C811109C01B8A8C
:100E8000EE81FF810680F781E02DC8010995C8CF6A
:100E90008B898F5F8B8B833018F2EE81FF8100840A
:100EA000F185E02D6F2DC80109951B8AB9CFEE851C
:100EB000FF85309719F009958111DBCF6F2DC8019F
:100EC0000E94DF0CDACFCF92DF92EF92FF920F9366
:100ED0001F93CF93DF936C017A018B01C0E0D0E0C8
:100EE000CE15DF0589F0D8016D918D01D601ED9108
:100EF000FC910190F081E02DC6010995892B11F438
:100F00007E0102C02196ECCFC701DF91CF911F91E6
:100F10000F91FF90EF90DF90CF9008958AEE92E0CE
:100F20000E94350E21E0892B09F420E0822F0895DC
:100F30000E947E18EF92FF920F931F93CF93DF933F
:100F4000EC0181E0888F9B8D8C8D981305C0E8891A
:100F5000F989808185FD24C0F62E0B8D10E00F5F8E
:100F60001F4F0F731127E02E8C8DE8120CC00FB6A7
:100F700007FCFACFE889F989808185FFF5CFCE019A
:100F80000E942D0FF1CF8B8DFE01E80FF11DE35A6A
:100F9000FF4FF0820B8FEA89FB898081806207C056
:100FA000EE89FF896083E889F98980818064808384
:100FB00081E090E0DF91CF911F910F91FF90EF9032
:100FC0000895CF93DF93EC01888D8823C9F0EA89D7
:100FD000FB89808185FD05C0A889B9898C9186FD32
:100FE0000FC00FB607FCF5CF808185FFF2CFA8892F
:100FF000B9898C9185FFEDCFCE010E942D0FE7CFEF
:10100000DF91CF9108959091640090FF0CC0909172
:1010100064009E7F9093640090917A009068909312
:101020007A0051E001C050E090B7906890BF809383
:101030007C0083B7817F826083BF10927B008091A8
:101040007A00806280937A0080917A008860809331
:101050007A0080917A00806480937A0024E09FEF88
:101060006FEF2150B1F01092E9028091E9028111F5
:1010700008C083B7816083BF889583B78E7F83BFA5
:10108000F4CF309178004091790049131DC0361398
:101090001BC080917A00877F80937A0080917A00CC
:1010A0008F7D80937A00809178002091790055237C
:1010B000B9F090917A009F7790937A0090916400B4
:1010C0009160909364000CC080919303942F9327B8
:1010D0009F5F8695890F80939303942F632FC1CFD1
:1010E00090E0922B0895009769F0FC010190002098
:1010F000E9F73197AF01481B590BBC018AEE92E02A
:101100000C94630780E090E008958F929F92AF92D5
:10111000BF920F931F93CF93DF93CDB7DEB7A19705
:101120000FB6F894DEBF0FBECDBF19A2423008F44F
:101130004AE08E010F5D1F4F842E912CA12CB12C03
:10114000A50194010E944718E62FB901CA01015078
:101150001109EA3014F4E05D01C0E95CD801EC93B8
:10116000232B242B252B61F7C8010E947308A1961D
:101170000FB6F894DEBF0FBECDBFDF91CF911F91A8
:101180000F91BF90AF909F908F900895CF92DF9274
:10119000EF92FF92CF936C010E940612C82F0D2C84
:1011A000000CEE08FF08F7FE14C0E091EA02F0918F
:1011B000EB020190F081E02D6DE28AEE92E009955C
:1011C00066277727CB016C197D098E099F094AE0B4
:1011D00003C04AE0C701B6010E9485080E94790B4E
:1011E000CC2339F0CF91FF90EF90DF90CF900C940B
:1011F0008315CF91FF90EF90DF90CF9008950F93DC
:101200001F93CF93DF938C01C0E0D0E0F801EC0F87
:10121000FD1F6491662371F0E091EA02F091EB0208
:101220000190F081E02D8AEE92E00995892B11F072
:101230002196ECCFCE01DF91CF911F910F910895B0
:101240009091C6029111FCCF813208F080E291E0CA
:101250009093C6029093C5022FEF2093C402109280
:10126000C302280F2093C2029093C1029091C10241
:1012700090689093C1029091C002913061F41092F5
:10128000C0029091C1029093BB009091BC0093FD6D
:10129000F8CF95EC01C095EE9093BC009091C602FA
:1012A0009130E1F39091C302981710F48091C3023A
:1012B000A0EAB2E029EC32E0F9019E2F921B9817C8
:1012C00018F49D919193F9CF1092C8028093C702B0
:1012D000089520919F0290919E02213208F04AC009
:1012E0008091C6028111FCCF32E03093C60231E01A
:1012F0003093C5023FEF3093C4021092C302209393
:10130000C202AEE7B2E040EA52E0FA013E2F341BDF
:10131000321718F43D913193F9CF1092C102209108
:10132000C102990F922B9093C1029091C00291300B
:1013300061F41092C0029091C1029093BB00909111
:10134000BC0093FDF8CF95EC01C095EE9093BC00E6
:101350009091C6029230E1F39091C4029F3F79F0E0
:101360008091C402803241F08091C402803331F018
:1013700084E005C081E003C082E001C083E01092F8
:101380007D0210929F0210927C0208951F920F928C
:101390000FB60F9211242F933F934F935F936F9348
:1013A0007F938F939F93AF93BF93EF93FF938AEEB7
:1013B00092E00E942D0FFF91EF91BF91AF919F910D
:1013C0008F917F916F915F914F913F912F910F90EE
:1013D0000FBE0F901F9018951F920F920FB60F928D
:1013E00011242F938F939F93EF93FF93E091FA0231
:1013F000F091FB028081E0910003F091010382FDF6
:1014000012C09081809103038F5F8F73209104033A
:10141000821751F0E0910303F0E0E651FD4F958F04
:101420008093030301C08081FF91EF919F918F9181
:101430002F910F900FBE0F901F9018958AEB91E09F
:101440000895FC01868197810895FC01611102C015
:1014500080E001C084E6858B12A211A2611103C055
:101460008789908D02C080E090E090A3878F0895D7
:10147000CF93DF93EC018A859B85009731F4E88553
:10148000F985309779F480E010C0DC01ED91FC9192
:101490000680F781E02D0995EA85FB858281882306
:1014A00071F303C0DF91CF910994DF91CF9108953B
:1014B000CF93DF93EC018A819B81DC01ED91FC915C
:1014C0000480F581E02D9E0140E060E009958A816D
:1014D0009B81DC01ED91FC910480F581E02D9E0162
:1014E00042E060E009958A819B81DC01ED91FC91ED
:1014F0000480F581E02D9E0141E060E009958A813C
:101500009B81DC01ED91FC910480F581E02D9E0131
:1015100040E060E0DF91CF91099483E40895FC01FD
:101520002FB7F89461110AC0878D90A1019679F0C8
:10153000878D90A1019690A3878F09C081A192A168
:10154000019629F081A192A1019692A381A32FBFB8
:10155000089580E0089508950F931F93CF93DF932C
:1015600000D01F92CDB7DEB78C01FC01868D8111B2
:1015700056C083E68B8381E08A83658D462F50E0D9
:10158000F80181A192A1F80184179507E8F066237C
:10159000D9F081A192A1841B950B92A381A3278DE1
:1015A00030A1848D90E08217930750F4278D30A1ED
:1015B000F901E81BF90BCF01F80190A3878FE0CF69
:1015C000F80110A2178EDCCF878D90A1892BB1F086
:1015D000878D90A14789508D8417950788F4878D52
:1015E00090A19A01281B390BA4E6B0E00E946F1865
:1015F0009A0140E050E00E94471803C024E601C071
:1016000020E02983FE01222321F0243620F43196A4
:1016100003C0329601C033968081F801858B0F900C
:101620000F900F90DF91CF911F910F910895089522
:10163000089521E0FC01248B089581E0089580E065
:10164000089580E00895FC01611102C090E001C09E
:1016500094E6958B08950895DC01ED91FC9104A426
:10166000F5A5E02D099581E008951F93CF93DF93B1
:10167000EC01E881F98104A0F5A1E02D0995182F6E
:10168000E881F98102A4F3A5E02D60E0CE0109957F
:10169000883071F4E881F98102A4F3A5E02D61E0BE
:1016A000CE010995863021F4112381F011E003C0A9
:1016B000112351F010E0E881F98106A0F7A1E02D97
:1016C000CE010995111102C080E00FC0EC81FD81AF
:1016D00060817181CE010E948F05E881F98104A4A7
:1016E000F5A5E02DCE01099581E0DF91CF911F9105
:1016F00008958091C00085FD07C066B58091B20055
:101700004AE20E943E15F5CF8AEE92E00E94E10780
:101710008091640081FD08958091C00085FD06C020
:101720008091C00080648093C000F6CF8091C0009B
:1017300086FFFCCF08954091B20066B59091CF032B
:101740009F5F9093CF0389270C943E151F920F92B1
:101750000FB60F9211248F9381E08093E9028F914D
:101760000F900FBE0F901F9018959F92AF92BF924F
:10177000CF92DF92EF92FF920F931F93CF93DF935D
:101780006C01E801F090B20085EE8F1508F448C0B6
:1017900036EE3F19341708F443C0AA24A39421114C
:1017A000A12CBB24B394223009F0B12C142F1F0DAF
:1017B000962F361708F4932F922E092F0F0DE090D5
:1017C000B200EF14E1F3FE2CA11008C0E881F9810A
:1017D0000480F581E02D6B2DCE010995E11678F39B
:1017E000101748F5D601ED91FC910190F081E02DA4
:1017F000692DC6010995182F811114C01091B200EE
:101800001F1581F3F12EA11008C0E881F981048031
:10181000F581E02D6B2DCE010995101718F30BC043
:1018200011E00AC0E881F9810190F081E02D6B2D73
:10183000CE01099501C010E0812FDF91CF911F915A
:101840000F91FF90EF90DF90CF90BF90AF909F905F
:101850000895CF93DF93EC011C8A8A819B81DC0180
:10186000ED91FC910480F581E02D611102C041E011
:1018700001C042E09E016F8109958A819B81DC0154
:10188000ED91FC910480F581E02D9E0140E060E047
:1018900009958C89DF91CF910895FF920F931F9343
:1018A000CF93DF93EC011E8D112351F00E94380A73
:1018B000811106C084E08C87CE010E944E0678C05C
:1018C0001E8D111104C09B8D913118F071C010E074
:1018D0006FC0F92EFF0C80E1F81610F480E1F82EAD
:1018E00084E6082F0F192E89201708F061C0F21620
:1018F00008F05EC04D89241750F0E22FF0E0692F08
:1019000070E0640F711D6E177F070CF050C0421716
:1019100048F050E0892F90E0820F911D84179507C1
:1019200024F145C0421708F561E0CE010E94290C60
:10193000182FCE010E94AC0A1123C9F12D8930E085
:10194000802F90E08F1991092817390714F481E04E
:101950008E8F8D858F5F8D87833048F184E68D8BE8
:101960001AA219A218A21F8E21C060E0CE010E9407
:10197000290C182FCE010E94AC0A1123C1F08F2D23
:1019800090E02D8930E0880F991F8217930714F497
:1019900081E08E8F8D858F5F8D87833040F01D8A2B
:1019A0001AA219A28F89988D98A38F8F1D8611E096
:1019B000812FDF91CF911F910F91FF9008951F9379
:1019C000CF93DF93EC01162F1C8A8A819B81DC0167
:1019D000ED91FC910480F581E02D611102C041E0A0
:1019E00001C042E09E016FEF09958A819B81DC0175
:1019F000ED91FC910480F581E02D9E0140E060E0D6
:101A000009958C89882339F0612FCE01DF91CF9120
:101A10001F910C94290C80E0DF91CF911F910895C4
:101A20001F93CF93DF93EC0111E01E8F0E94380AC1
:101A30008111CBC08A898F5F8A8B893728F082EA2F
:101A400091E00E94E515C3C08989823069F128F4CC
:101A5000882351F0813061F0BAC0833009F441C06D
:101A6000843009F457C0B3C01A8A1B8A198BB4C0DA
:101A700061E0CE010E94DF0C811102C01B8AACC064
:101A80008B898F5F8B8B843008F4A6C018A21F8EC1
:101A90001AA219A21AC0EC81FD8109959E812F819D
:101AA000921B981708F498C060E0CE010E94290CA0
:101AB000811102C01B8AEFCF8B898F5F8B8B8430A3
:101AC00050F38F8D98A19E878D871A8A1B8A1EC01E
:101AD000EC81FD8109959E812F81921B981708F456
:101AE0007BC061E0CE010E94290C811102C01B8ADB
:101AF000EFCF8B898F5F8B8B843050F389A19AA1B4
:101B0000988B8F8718A21F8E1AA219A289898F5FBE
:101B1000898B62C06F818F8598894D855E8524E6AB
:101B20002B8F588F4F8B9A8F898F1C8E1D8E66231B
:101B300009F444C09A018417950708F49C01211503
:101B40003105E1F1FA01F695E7958E179F07B0F19F
:101B5000FC01F695E7954E175F0780F170E0FA01FA
:101B60004817590708F4FC016E177F0728F45695AB
:101B7000479596958795F3CF4C8F8D8F48175907CA
:101B800008F4CA010897D0F0CB01A0E0B0E0BC0196
:101B9000CD0147E0660F771F881F991F4A95D1F73F
:101BA00040E050E00E9447182436310541055105B8
:101BB00020F024E630E040E050E02B8F1E8E84E6DB
:101BC0008D8B1AA219A218A21F8E85E001C087E092
:101BD0008C87CE010E944E0681E0DF91CF911F914C
:101BE00008951F93CF93DF93EC018A858617B9F090
:101BF000262F30E08B81082E000C990B281739070F
:101C000074F4162FEC81FD8183E0689FE00DF11DD7
:101C1000112460817181CE010E948F051A87DF91A6
:101C2000CF911F910895FC01918D828D981761F0DD
:101C3000828DDF01A80FB11D5D968C91928D9F5F03
:101C40009F73928F90E008958FEF9FEF0895FC01AE
:101C5000918D828D981731F0828DE80FF11D858D61
:101C600090E008958FEF9FEF0895FC01918D228DF4
:101C7000892F90E0805C9F4F821B91098F73992779
:101C8000089580E090E0892B29F00E948E07811151
:101C90000C94000008953FB7F89480911D04909132
:101CA0001E04A0911F04B091200426B5A89B05C076
:101CB0002F3F19F00196A11DB11D3FBFBA2FA92FCB
:101CC000982F8827820F911DA11DB11DBC01CD0148
:101CD00046E0660F771F881F991F4A95D1F7089530
:101CE00085ED8093BC008091BC0084FDFCCF1092F8
:101CF000C60208954091F303262F30E0240F311DD2
:101D000021323105DCF42091C6022430C9F4FC01F3
:101D100080E090E0861758F43091F3032191DC01C4
:101D2000AF52BC4FA30FB11D2C930196F3CF8091FE
:101D3000F303680F6093F30380E0089581E0089552
:101D400082E008950895E091C8028091C702E817E3
:101D500030F4F0E0E753FD4F808190E008958FEF7D
:101D60009FEF08959091C8028091C702981750F490
:101D7000E92FF0E0E753FD4F208130E09F5F909323
:101D8000C80202C02FEF3FEFC90108958091C7023A
:101D900090E02091C802821B91090895CF92DF92B2
:101DA000EF92FF920F931F93CF93DF937C01262F27
:101DB000972F8A0180917C02882391F0C62FD72F1C
:101DC0006E01C40ED51ECC15DD0571F06991D701E9
:101DD000ED91FC910190F081E02DC7010995F3CFC1
:101DE000642F822F0E947A0EC801DF91CF911F913C
:101DF0000F91FF90EF90DF90CF900895CF93DF93F6
:101E00001F92CDB7DEB7698320917C022223D1F0E7
:101E100020919F02203240F021E030E0FC0133832A
:101E2000228380E090E015C080917D02E82FF0E0F1
:101E3000E258FD4F998190838F5F80937D0280935C
:101E40009F0205C061E0CE0101960E947A0E81E0FA
:101E500090E00F90DF91CF910895FC01848DDF0118
:101E6000A80FB11DA35ABF4F2C91848D90E001960D
:101E70008F739927848FA689B7892C93A089B189FC
:101E80008C9180648C93938D848D981306C0028806
:101E9000F389E02D80818F7D8083089590E0FC019F
:101EA000E550FE4F3491FC01E951FE4F2491FC01B5
:101EB000ED52FE4FE491EE2309F43BC0332339F198
:101EC000333091F038F43130A9F0323001F584B577
:101ED0008F7D12C0373091F03830A1F03430B9F432
:101EE000809180008F7D03C0809180008F778093E8
:101EF00080000DC084B58F7784BD09C08091B0008B
:101F00008F7703C08091B0008F7D8093B000F0E0A8
:101F1000EE0FFF1FE753FE4FA591B4918FB7F894D2
:101F2000EC91611103C020952E2301C02E2B2C9320
:101F30008FBF0895CF93DF9390E0FC01E951FE4FEE
:101F40002491FC01ED52FE4F8491882361F190E0D1
:101F5000880F991FFC01E154FE4FC591D491FC01FB
:101F6000E753FE4FA591B491611109C09FB7F89452
:101F70008881209582238883EC912E230BC06230C8
:101F800061F49FB7F8943881822F809583238883EA
:101F9000EC912E2B2C939FBF06C08FB7F894E8814D
:101FA0002E2B28838FBFDF91CF9108958F929F9220
:101FB000AF92BF92CF92DF92EF92FF926B017C01C2
:101FC0000E944B0E4B015C01C114D104E104F104E9
:101FD000F1F00E944B0EDC01CB0188199909AA0986
:101FE000BB09883E9340A105B10570F321E0C21AF8
:101FF000D108E108F10888EE880E83E0981EA11C44
:10200000B11CC114D104E104F10419F7DDCFFF9034
:10201000EF90DF90CF90BF90AF909F908F900895FA
:102020001F920F920FB60F9211242F933F938F930D
:102030009F93AF93BF938091190490911A04A0913C
:102040001B04B0911C043091180420E3230F2D379A
:1020500020F44096A11DB11D05C023EB230F41962E
:10206000A11DB11D209318048093190490931A04A4
:10207000A0931B04B0931C0480911D0490911E0436
:10208000A0911F04B09120040196A11DB11D809361
:102090001D0490931E04A0931F04B0932004BF91CD
:1020A000AF919F918F913F912F910F900FBE0F9005
:1020B0001F9018951F920F920FB60F9211242F9315
:1020C0003F934F935F936F937F938F939F93AF93C0
:1020D000BF93EF93FF938091B900887F803609F416
:1020E0009CC068F5883209F45BC090F4803109F433
:1020F00054C038F4882309F4F6C0883009F44DC080
:10210000F6C0883109F44CC0803209F45DC0EFC0DC
:10211000803409F468C048F4803309F455C088332A
:1021200009F0E5C08093C402D8C0803509F44FC0DF
:10213000883509F45DC0883409F0D9C0D6C0883923
:1021400009F4C7C0A8F4883709F467C038F48836A2
:1021500009F463C0803709F460C0C9C0883809F445
:10216000B8C0803909F45FC0803809F0C0C05BC0D6
:10217000803B09F486C038F4803A09F466C0883A96
:1021800009F47FC0B4C0803C09F4A7C0883C09F4BE
:10219000A4C0883B09F48AC0AAC08091C10210C0C3
:1021A0009091C3028091C202981770F5E091C3022A
:1021B00081E08E0F8093C302F0E0E056FD4F8081F6
:1021C0008093BB0085EC86C08093C4028EC0E091F2
:1021D000C30281E08E0F8093C3028091BB00F0E0C8
:1021E000E056FD4F80839091C3028091C2026EC081
:1021F000E091C30281E08E0F8093C3028091BB0007
:10220000F0E0E056FD4F80838091C50281116DC0E2
:1022100081E08093C00284EA61C083E08093C602BB
:1022200010921704CFCF80911704803208F051C06C
:10223000E091170481E08E0F809317048091BB001A
:10224000F0E0E950FC4F8083BDCF85EC8093BC006B
:102250001092C60280911704803230F4E091170486
:10226000F0E0E950FC4F10826091170470E0E091BB
:10227000F503F091F60387EF93E0099510921704A8
:1022800036C084E08093C6021092F4031092F303E8
:10229000E091F103F091F20309958091F30381112C
:1022A00005C081E08093F3031092D103E091F40321
:1022B00081E08E0F8093F403F0E0EF52FC4F8081B9
:1022C0008093BB009091F4038091F303981708F476
:1022D00079CF85E88093BC000AC085EC8093BC0070
:1022E0001092C60204C01092C4020E94700EFF91A8
:1022F000EF91BF91AF919F918F917F916F915F917E
:102300004F913F912F910F900FBE0F901F901895F6
:10231000FC019091610028E030E080E80FB6F8946D
:1023200080936100209361000FBE3197F1F7892FF0
:102330008F7090E020E80FB6F894209361008093AE
:1023400061000FBE08951F920F920FB60F921124D5
:102350008F939F93CF93DF931F92CDB7DEB70FB6C6
:10236000F894A89580916000886180936000109235
:1023700060000FBECE01019680688093D0030F905D
:10238000DF91CF919F918F910F900FBE0F901F9073
:10239000189583B7817F866083BFF89483B7816087
:1023A00083BF85B7806685BF8F7D85BF789488950C
:1023B00083B78E7F83BF789408951092D00383FDF6
:1023C00002C098E001C098E28770892B98E10FB6AF
:1023D000F894A895909360000FBE80936000809160
:1023E00060008064809360000E94C9118091D003D6
:1023F0008823D1F30FB6F894A89580916000886186
:1024000080936000109260000FBE08958091640078
:1024100081FF3CC0809164008D7F80936400E091D7
:10242000FA02F091FB0282E08083E091F602F091E3
:10243000F7021082E091F802F091F90289E18083BD
:1024400010920203E091FE02F091FF0286E0808389
:10245000E091FC02F091FD02808180618083E09137
:10246000FC02F091FD02808188608083E091FC0293
:10247000F091FD02808180688083E091FC02F09100
:10248000FD0280818F7D808381E0089580E0089542
:10249000CF93DF93FC013281631788F4832F90E0A0
:1024A000861B910904971CF01382178205C0838153
:1024B0008F3F11F08F5F8383628380E072C025813C
:1024C0002F3F09F424E086818F3F09F48BEF562FCC
:1024D000531B91E0543008F090E04381911102C009
:1024E000138205C04F3F19F071E0740F7383778139
:1024F000772339F08381833008F44AC0178282E061
:1025000048C0911112C0433080F084818F3F19F090
:10251000281708F440C088E05817D0F1231770F34B
:102520004F3F61F781E0878334C093819E3180F112
:102530004481241768F5481758F5A82FA21BA93025
:1025400038F1B0E0B595A795ED01D595C795D5952E
:10255000C795C20FC617E0F4982F9A1B6917C0F4ED
:10256000641718F4742F761B02C0762F741B50E08A
:1025700090E0DA01A21BB109841B950BA817B907DB
:102580000CF4CD019C013595279581E0271708F4BF
:1025900080E0628306C090E0821B91099595879543
:1025A000BBCFDF91CF9108958CE30895ECEBF0E081
:1025B00080818B7F8083E4E6F0E080818068808387
:1025C0000895CF93DF9381E080937C0280E4809331
:1025D0009E0210927D0210929F0267EE87E893E0C0
:1025E0000E94FE0E0E94690981E00E9420098091EC
:1025F000C70290E02091C802821B910918161906A3
:102600002CF02091B2002D3FC8F31FC087E893E063
:102610000E94B20EC82FD1E0D0937C0280E4809358
:102620009E0210927D0210929F0267EE87E893E06F
:102630000E94FE0E6C2F6873636087E893E00E942F
:10264000FE0E0E946909D0932B04DF91CF9108956B
:102650000F931F93CF93DF93EC018EE40E94030846
:102660008C018C819D810817190721F061E0802F72
:102670000E949B0B8C819D818017910738F0801BF5
:10268000910B079718F48E819F8121C080EC9FEFFA
:10269000B8010E94331887E3869F9001879F300D11
:1026A000112485E0369527958A95E1F71D830C83E3
:1026B0003F832E8381E0233D310508F080E08B834A
:1026C00081E0263F310508F080E08A83C901DF916F
:1026D000CF911F910F910895EF92FF920F931F9347
:1026E000CF93DF93EC015F9A61E087E00E949A0F3D
:1026F00081E00E94DD1180E40E9403087C0160E01B
:1027000087E00E949A0F8701169507951695079501
:102710008A81801721F060E08E2D0E949B0B0A8336
:102720009A8111E08985891730F010E09A818A85B5
:10273000891728F411C01B831E821D820DC01B82C5
:102740008C81811109C08D819E818F3F2FEF92076F
:1027500019F001969E838D838B899C89892B99F032
:102760006A81CE010B960E944812823020F0EB89DC
:10277000FC8981E007C0112331F0882321F0EB8927
:10278000FC8980E009958A818A81DF91CF911F9130
:102790000F91FF90EF9008958091640087FF35C0FE
:1027A000809164008F77809364008091BC00846086
:1027B0008093BC001092C8021092C70210927D0252
:1027C00010929F021092C60281E08093C50210927F
:1027D000C00261E082E10E944E0F61E083E10E944D
:1027E0004E0F8091B9008E7F8093B9008091B9001F
:1027F0008D7F8093B9008DEF8093B80085E480933E
:10280000BC001092B80081E0089580E00895CF9256
:10281000DF92EF92FF920F931F93CF93DF938C0180
:102820000E94CC13C82E80912B04811102C00E94FB
:10283000E11281E080937C0280E480939E021092FA
:102840007D0210929F0265EE87E893E00E94FE0EE3
:1028500086E0E82EF12C81E0E81AF10841F0DFB6BD
:10286000F89486E090E00E948811DFBEF4CF0E94C9
:10287000690983E00E9420094091C70250E08091DD
:10288000C802481B51094330510534F48091B2000D
:102890008D3FC8F38FEF30C087E893E00E94B20EFF
:1028A000D82E87E893E00E94B20E7C01C1100E94EE
:1028B000D612DD2DF0E0CF2F97012C7F33272C2B64
:1028C0003D2BADE7B0E00E946F18CAEFC80FF801CA
:1028D00082818C1729F060E08D2D8E250E949B0B44
:1028E000F801C283CC3418F081E0838304C0C13482
:1028F00010F4F80113828C2FDF91CF911F910F916B
:10290000FF90EF90DF90CF900895EF92FF920F939A
:102910001F93CF93DF938C010E94CC13F82E8091EC
:102920002B04811102C00E94E11281E080937C029D
:1029300080E480939E0210927D0210929F0263EECB
:1029400087E893E00E94FE0E81E00E94DD110E9464
:10295000690983E00E9420092091C70230E080913C
:10296000C802281B3109233031053CF48091B200A4
:102970008D3FC8F380E098EF33C087E893E00E9472
:10298000B20ED82F20E0C22F87E893E00E94B20E4B
:102990008C7F9927C82BD92BF1100E94D6129E014B
:1029A000A7EFB5E10E946F18DC01CB0121E1B595DD
:1029B000A795979587952A95D1F77C01EEEEEE1AAB
:1029C000E2E0FE0AF80182819381E816F90621F01F
:1029D00061E08C2F0E949B0BF801F382E282C70119
:1029E000DF91CF911F910F91FF90EF9008951F926B
:1029F0000F920FB60F9211242F938F939F93809174
:102A00002A048E5F8C33C8F08091280490912904A9
:102A10000196803A25E0920758F080912604909123
:102A200027040196909327048093260480E090E089
:102A3000909329048093280480E080932A04809155
:102A40002504882399F080912404882361F0F89468
:102A500098E288E10FB6F894A895809360000FBEC5
:102A600090936000FFCF81E0809324049F918F9129
:102A70002F910F900FBE0F901F90189590912204E8
:102A80006927909121044927209134012F5F90916B
:102A900023049227209334019427892780932304C9
:102AA000680F609322046695640F86278093210443
:102AB0000895CF93DF930FB6F894A89580916000A6
:102AC000886180936000109260000FBE60E087E034
:102AD0000E949A0F10927A0080E880BF8FE3809363
:102AE0007E0083E080937F00C4E6D0E0888181602F
:102AF00088830E94C1050E94D612888188608883DD
:102B0000DF91CF9108958091640081FD28C08AEE05
:102B100092E00E94E1078AEE92E00E94E107E091D4
:102B2000FC02F091FD0280818F7E8083E091FC02A7
:102B3000F091FD028081877F8083E091FC02F0911B
:102B4000FD0280818F778083E091FC02F091FD028D
:102B500080818F7D8083809104038093030362E0F2
:102B600080E00E949A0F62E081E00E949A0F8091BB
:102B700064008260809364000895CF930E940612DF
:102B8000C82F89E792E00E9473080E94790BCC233A
:102B900019F0CF910C948315CF9108950F931F9343
:102BA000CF938C010E940612C82FC8010E94FF0813
:102BB0000E94790BCC2329F0CF911F910F910C9497
:102BC0008315CF911F910F9108950F931F93CF936A
:102BD0008C010E940612C82FC8010E94FF0889E7D5
:102BE00092E00E9473080E94790BCC2329F0CF91C8
:102BF0001F910F910C948315CF911F910F91089500
:102C0000CF93DF93EAEEF2E01382128288EE93E034
:102C1000A0E0B0E084839583A683B78321ED31E003
:102C20003183208325EC30E03587248724EC30E0A5
:102C30003787268720EC30E0318B208B21EC30E089
:102C4000338B228B22EC30E0358B248B26EC30E06A
:102C5000378B268B118E128E138E148EE7E8F3E0DD
:102C60001382128284839583A683B78381EE91E0D9
:102C70009183808388E091E09093CD038093CC038F
:102C8000EEECF3E080818760877E8F7D8083E8ECC7
:102C9000F3E08FEF828313828BE692E0918380834F
:102CA000EDEBF3E0128284E1838382E4848389E59F
:102CB00092E0918380838FEF9FEF968385831086C8
:102CC000178212861186C4E9D3E01A8283E392E068
:102CD0009983888389E292E09C838B831D828DE0B7
:102CE00092E09F838E8387E993E09987888787E1C5
:102CF00093E09B878A8786EE8C8783E28D878FE3BC
:102D000092E09F878E878CE291E0998B888B1A8E58
:102D10001B8E81E38C8F1A8A8AE993E00E944E060B
:102D200081EF91E09F838E831E8E1D8E18A21F8ED1
:102D300084E689A31AA21BA281E08CA3DF91CF9124
:102D40000895CF93DF93CDB7DEB72C970FB6F894E5
:102D5000DEBF0FBECDBF789484B5826084BD84B5DC
:102D6000816084BD85B5826085BD85B5816085BD86
:102D700080916E00816080936E001092810080913E
:102D800081008260809381008091800081608093C7
:102D900080008091B10084608093B1008091B00088
:102DA00081608093B00080917A008B7F80937A005D
:102DB00080917A00826080937A0080917A008160AD
:102DC00080937A0080917A00806880937A001092D4
:102DD000C1000E945915809164008F6E8093640039
:102DE000809164008F7D80936400809164008F7B6C
:102DF000809364001092B00086E08093B10080E27E
:102E00008093B60081E0809370000EE010E00150E6
:102E1000110930F10E30110528F4F801EC5CFF4F78
:102E20000C94691860E0802F0E944E0F61E014C07E
:102E300061E084E00E949A0F60E084E006C061E0F7
:102E40008DE00E949A0F61E08DE00E944E0FDFCF6F
:102E500060E089E002C062E0802F0E949A0FD7CF25
:102E60008CEF90E00E94CE158BEE90E00E94CE1584
:102E70008CE0E5E3F1E0DE01119601900D928A9578
:102E8000E1F70E940612182FCE0101960E947308E6
:102E90000E94790B11110E94831581EE90E00E942F
:102EA000E5155C9868EE73E080E090E00E94D60F34
:102EB000F090B2001FEFEE24E394EF0C115009F4F0
:102EC0003BC00091B20060E0802F0E949B0B0F1569
:102ED00011F00E1149C080E00E94DD11EFCF20916A
:102EE00066002F3F49F1893C08F446C08091660096
:102EF000815080936600852F8A9501F0E9F79F5FE6
:102F00009038D1F06FB7F8943091B2002091B200B0
:102F10002F5F8091B2003817E1F380E08F5F342F8C
:102F20003A9501F0E9F73091B2003217B9F36FBF6B
:102F300020916600203899F68CED90E013C00E9435
:102F4000E00581E080931E018CEC93E090932001DA
:102F500080931F018BE191E00E94350B811112C01B
:102F600089ED90E00E94220682E08A9501F0E9F75F
:102F700090E048E052E0C6CF883C09F380916600BB
:102F80008F5FB7CF4D9903C087ED90E0EBCF8CE218
:102F900091E00E9428138C0183ED90E00E94CE15F1
:102FA000C8010E94C6080E94BD1587E191E00E94F9
:102FB00085148C018FEC90E00E94CE15C8010E9410
:102FC000C6080E94BD1588EC93E00E940714182FD4
:102FD00089EC90E00E94CE15812F90E00E94C608F7
:102FE0000E94BD1582E091E00E946C13182F85ECC1
:102FF00090E00E94CE15812F90E00E94C6080E94AA
:10300000BD158DEB93E00E943A05182F8AEB90E0F6
:103010000E94CE15812F90E00E94C6080E94BD1527
:1030200084E993E00E9455065C9A80911D018FEF20
:1030300080931D01E0911B01F0911C010280F3813E
:10304000E02D8BE191E0099560E177E280E090E08E
:103050000E94D60F0E9483150E9459150E94C91123
:103060000E94410EF7CFAA1BBB1B51E107C0AA1F4C
:10307000BB1FA617B70710F0A61BB70B881F991F19
:103080005A95A9F780959095BC01CD010895A1E2CC
:103090001A2EAA1BBB1BFD010DC0AA1FBB1FEE1FD2
:1030A000FF1FA217B307E407F50720F0A21BB30B1D
:1030B000E40BF50B661F771F881F991F1A9469F799
:1030C00060957095809590959B01AC01BD01CF01F5
:1030D0000895EE0FFF1F0590F491E02D0994A29F33
:1030E000B001B39FC001A39F700D811D1124911DDC
:1030F000B29F700D811D1124911D089581E090E013
:0A310000F8940C948318F894FFCFA4
:10310A00FF084D010000000000FFFF100C4501FE02
:10311A0000FFFFFF0000005F0100F88501FF0000CB
:10312A00000000000000003C00750100BF01010121
:10313A00FFFF000012323031372F4A616E2F3033D1
:10314A00000000000048120C030000000014033DB8
:10315A000209036C131502D412390200000000FBA5
:10316A0002CE01F8028514CC01FF02CA0103030151
:10317A000300000000CE02CC02C502C402C902C884
:10318A000200000000EB021A03F305E202350BE02D
:10319A00020D020A0207020602BD02C103D302029D
:1031AA000200022C0BFE01FC0103052006F801E0D7
:1031BA0001F505DC01D801D401D20100000000218B
:1031CA000AD0011E0A2813C801C601C40100000062
:1031DA00009A076307350E130E270EE10700000059
:1031EA0000FE0ECE0EC60EB20EA30EA20E000000F8
:1031FA0000190BAB0A8F0AAC0A250A100D4D0C8D6B
:10320A000A5402580AA90A4A0200000000190B18B7
:10321A000B170B2B0B230B210B1F0B6D02540258A0
:10322A000A1D0B4A0200000000050520057504006E
:10323A0000000011033D02BA025506B5023B0239ED
:10324A0002310251022A0223021C026A027B027420
:10325A00021A0237050000000014033D0217023A61
:10326A000515023B0239020000000014033D02ED7D
:0C327A00020714F0023B0239020D0A00AA
:107E0000112484B714BE81FFE6D085E08093810001
:107E100082E08093C00088E18093C10086E0809377
:107E2000C20089E18093C4008EE0BFD0259A86E02D
:107E300023EC3FEF91E0309385002093840096BBC4
:107E4000B09BFECF1D9AA8958150A9F7EE24FF2480
:107E5000AA24A394B5E0CB2EA1E1BA2EF3E0DF2E45
:107E600098D0813461F495D0082FA5D0023829F13B
:107E7000013811F485E001C083E083D07FC08234F3
:107E800011F484E103C0853419F485E09CD076C0F8
:107E9000853579F47ED0E82EFF247BD0082F10E0C2
:107EA000102F00270E291F29000F111F84D07801E1
:107EB00065C0863521F484E086D080E0DECF84364C
:107EC00009F040C066D065D0082F63D080E0E81686
:107ED00080E7F80618F4F701D7BEE895C0E0D1E0D6
:107EE00058D089930C17E1F7F0E0EF16F0E7FF06A2
:107EF00018F0F701D7BEE8955ED007B600FCFDCFBD
:107F0000A701A0E0B1E02C9130E011968C9111977F
:107F100090E0982F8827822B932B1296FA010C0160
:107F2000A7BEE89511244E5F5F4FF1E0A038BF0770
:107F300051F7F701C7BEE89507B600FCFDCFB7BE05
:107F4000E8951CC0843761F424D023D0082F21D0B9
:107F500032D0F70185917F0114D00150D1F70EC0C6
:107F6000853739F428D08EE10CD085E90AD08FE02E
:107F700084CF813511F488E018D01DD080E101D084
:107F80006FCF982F8091C00085FFFCCF9093C600E3
:107F900008958091C00087FFFCCF8091C00084FDD0
:107FA00001C0A8958091C6000895E0E6F0E098E150
:107FB000908380830895EDDF803219F088E0F5DF4B
:107FC000FFCF84E1DECF1F93182FE3DF1150E9F7D5
:107FD000F2DF1F910895282E80E0E7DFEE27FF27CC
:027FE000099402
:027FFE0000057C
:0400000300007E007B
:00000001FF
